{"abi":[{"inputs":[{"internalType":"uint256","name":"minimum","type":"uint256"},{"internalType":"string","name":"title","type":"string"},{"internalType":"string","name":"descript","type":"string"}],"name":"createCampaign","outputs":[],"stateMutability":"nonpayable","type":"function"},{"inputs":[{"internalType":"uint256","name":"","type":"uint256"}],"name":"deployedCampaigns","outputs":[{"internalType":"address payable","name":"","type":"address"}],"stateMutability":"view","type":"function"},{"inputs":[],"name":"getDeployedCampaigns","outputs":[{"internalType":"address payable[]","name":"","type":"address[]"}],"stateMutability":"view","type":"function"}],"devdoc":{"kind":"dev","methods":{},"version":1},"evm":{"assembly":"    /* \"Campaign.sol\":27:472  contract CampaignFactory{... */\n  mstore(0x40, 0x80)\n  callvalue\n  dup1\n  iszero\n  tag_1\n  jumpi\n  0x00\n  dup1\n  revert\ntag_1:\n  pop\n  dataSize(sub_0)\n  dup1\n  dataOffset(sub_0)\n  0x00\n  codecopy\n  0x00\n  return\nstop\n\nsub_0: assembly {\n        /* \"Campaign.sol\":27:472  contract CampaignFactory{... */\n      mstore(0x40, 0x80)\n      callvalue\n      dup1\n      iszero\n      tag_1\n      jumpi\n      0x00\n      dup1\n      revert\n    tag_1:\n      pop\n      jumpi(tag_2, lt(calldatasize, 0x04))\n      shr(0xe0, calldataload(0x00))\n      dup1\n      0x339d50a5\n      eq\n      tag_3\n      jumpi\n      dup1\n      0x4acb9d4f\n      eq\n      tag_4\n      jumpi\n      dup1\n      0xfad4dee3\n      eq\n      tag_5\n      jumpi\n    tag_2:\n      0x00\n      dup1\n      revert\n        /* \"Campaign.sol\":57:99  address payable[] public deployedCampaigns */\n    tag_3:\n      tag_6\n      0x04\n      dup1\n      calldatasize\n      sub\n      dup2\n      add\n      swap1\n      tag_7\n      swap2\n      swap1\n      tag_8\n      jump\t// in\n    tag_7:\n      tag_9\n      jump\t// in\n    tag_6:\n      mload(0x40)\n      tag_10\n      swap2\n      swap1\n      tag_11\n      jump\t// in\n    tag_10:\n      mload(0x40)\n      dup1\n      swap2\n      sub\n      swap1\n      return\n        /* \"Campaign.sol\":350:469  function getDeployedCampaigns() public view returns(address payable[] memory){... */\n    tag_4:\n      tag_12\n      tag_13\n      jump\t// in\n    tag_12:\n      mload(0x40)\n      tag_14\n      swap2\n      swap1\n      tag_15\n      jump\t// in\n    tag_14:\n      mload(0x40)\n      dup1\n      swap2\n      sub\n      swap1\n      return\n        /* \"Campaign.sol\":110:343  function createCampaign(uint minimum,string memory title,string memory descript) public {... */\n    tag_5:\n      tag_16\n      0x04\n      dup1\n      calldatasize\n      sub\n      dup2\n      add\n      swap1\n      tag_17\n      swap2\n      swap1\n      tag_18\n      jump\t// in\n    tag_17:\n      tag_19\n      jump\t// in\n    tag_16:\n      stop\n        /* \"Campaign.sol\":57:99  address payable[] public deployedCampaigns */\n    tag_9:\n      0x00\n      dup2\n      dup2\n      sload\n      dup2\n      lt\n      tag_20\n      jumpi\n      0x00\n      dup1\n      revert\n    tag_20:\n      swap1\n      0x00\n      mstore\n      keccak256(0x00, 0x20)\n      add\n      0x00\n      swap2\n      pop\n      sload\n      swap1\n      0x0100\n      exp\n      swap1\n      div\n      0xffffffffffffffffffffffffffffffffffffffff\n      and\n      dup2\n      jump\t// out\n        /* \"Campaign.sol\":350:469  function getDeployedCampaigns() public view returns(address payable[] memory){... */\n    tag_13:\n        /* \"Campaign.sol\":402:426  address payable[] memory */\n      0x60\n        /* \"Campaign.sol\":445:462  deployedCampaigns */\n      0x00\n        /* \"Campaign.sol\":438:462  return deployedCampaigns */\n      dup1\n      sload\n      dup1\n      0x20\n      mul\n      0x20\n      add\n      mload(0x40)\n      swap1\n      dup2\n      add\n      0x40\n      mstore\n      dup1\n      swap3\n      swap2\n      swap1\n      dup2\n      dup2\n      mstore\n      0x20\n      add\n      dup3\n      dup1\n      sload\n      dup1\n      iszero\n      tag_23\n      jumpi\n      0x20\n      mul\n      dup3\n      add\n      swap2\n      swap1\n      0x00\n      mstore\n      keccak256(0x00, 0x20)\n      swap1\n    tag_24:\n      dup2\n      0x00\n      swap1\n      sload\n      swap1\n      0x0100\n      exp\n      swap1\n      div\n      0xffffffffffffffffffffffffffffffffffffffff\n      and\n      0xffffffffffffffffffffffffffffffffffffffff\n      and\n      dup2\n      mstore\n      0x20\n      add\n      swap1\n      0x01\n      add\n      swap1\n      dup1\n      dup4\n      gt\n      tag_24\n      jumpi\n    tag_23:\n      pop\n      pop\n      pop\n      pop\n      pop\n      swap1\n      pop\n        /* \"Campaign.sol\":350:469  function getDeployedCampaigns() public view returns(address payable[] memory){... */\n      swap1\n      jump\t// out\n        /* \"Campaign.sol\":110:343  function createCampaign(uint minimum,string memory title,string memory descript) public {... */\n    tag_19:\n        /* \"Campaign.sol\":207:226  address newCampaign */\n      0x00\n        /* \"Campaign.sol\":248:255  minimum */\n      dup4\n        /* \"Campaign.sol\":256:261  title */\n      dup4\n        /* \"Campaign.sol\":262:270  descript */\n      dup4\n        /* \"Campaign.sol\":271:281  msg.sender */\n      caller\n        /* \"Campaign.sol\":235:282  new Campaign(minimum,title,descript,msg.sender) */\n      mload(0x40)\n      tag_26\n      swap1\n      tag_27\n      jump\t// in\n    tag_26:\n      tag_28\n      swap5\n      swap4\n      swap3\n      swap2\n      swap1\n      tag_29\n      jump\t// in\n    tag_28:\n      mload(0x40)\n      dup1\n      swap2\n      sub\n      swap1\n      0x00\n      create\n      dup1\n      iszero\n      dup1\n      iszero\n      tag_30\n      jumpi\n      returndatasize\n      0x00\n      dup1\n      returndatacopy\n      revert(0x00, returndatasize)\n    tag_30:\n      pop\n        /* \"Campaign.sol\":207:283  address newCampaign=address(new Campaign(minimum,title,descript,msg.sender)) */\n      swap1\n      pop\n        /* \"Campaign.sol\":292:309  deployedCampaigns */\n      0x00\n        /* \"Campaign.sol\":323:334  newCampaign */\n      dup2\n        /* \"Campaign.sol\":292:336  deployedCampaigns.push(payable(newCampaign)) */\n      swap1\n      dup1\n      0x01\n      dup2\n      sload\n      add\n      dup1\n      dup3\n      sstore\n      dup1\n      swap2\n      pop\n      pop\n      0x01\n      swap1\n      sub\n      swap1\n      0x00\n      mstore\n      keccak256(0x00, 0x20)\n      add\n      0x00\n      swap1\n      swap2\n      swap1\n      swap2\n      swap1\n      swap2\n      0x0100\n      exp\n      dup2\n      sload\n      dup2\n      0xffffffffffffffffffffffffffffffffffffffff\n      mul\n      not\n      and\n      swap1\n      dup4\n      0xffffffffffffffffffffffffffffffffffffffff\n      and\n      mul\n      or\n      swap1\n      sstore\n      pop\n        /* \"Campaign.sol\":198:343  {... */\n      pop\n        /* \"Campaign.sol\":110:343  function createCampaign(uint minimum,string memory title,string memory descript) public {... */\n      pop\n      pop\n      pop\n      jump\t// out\n    tag_27:\n      dataSize(sub_0)\n      dup1\n      dataOffset(sub_0)\n      dup4\n      codecopy\n      add\n      swap1\n      jump\t// out\n        /* \"#utility.yul\":7:82   */\n    tag_32:\n        /* \"#utility.yul\":40:46   */\n      0x00\n        /* \"#utility.yul\":73:75   */\n      0x40\n        /* \"#utility.yul\":67:76   */\n      mload\n        /* \"#utility.yul\":57:76   */\n      swap1\n      pop\n        /* \"#utility.yul\":7:82   */\n      swap1\n      jump\t// out\n        /* \"#utility.yul\":88:205   */\n    tag_33:\n        /* \"#utility.yul\":197:198   */\n      0x00\n        /* \"#utility.yul\":194:195   */\n      dup1\n        /* \"#utility.yul\":187:199   */\n      revert\n        /* \"#utility.yul\":211:328   */\n    tag_34:\n        /* \"#utility.yul\":320:321   */\n      0x00\n        /* \"#utility.yul\":317:318   */\n      dup1\n        /* \"#utility.yul\":310:322   */\n      revert\n        /* \"#utility.yul\":334:411   */\n    tag_35:\n        /* \"#utility.yul\":371:378   */\n      0x00\n        /* \"#utility.yul\":400:405   */\n      dup2\n        /* \"#utility.yul\":389:405   */\n      swap1\n      pop\n        /* \"#utility.yul\":334:411   */\n      swap2\n      swap1\n      pop\n      jump\t// out\n        /* \"#utility.yul\":417:539   */\n    tag_36:\n        /* \"#utility.yul\":490:514   */\n      tag_71\n        /* \"#utility.yul\":508:513   */\n      dup2\n        /* \"#utility.yul\":490:514   */\n      tag_35\n      jump\t// in\n    tag_71:\n        /* \"#utility.yul\":483:488   */\n      dup2\n        /* \"#utility.yul\":480:515   */\n      eq\n        /* \"#utility.yul\":470:533   */\n      tag_72\n      jumpi\n        /* \"#utility.yul\":529:530   */\n      0x00\n        /* \"#utility.yul\":526:527   */\n      dup1\n        /* \"#utility.yul\":519:531   */\n      revert\n        /* \"#utility.yul\":470:533   */\n    tag_72:\n        /* \"#utility.yul\":417:539   */\n      pop\n      jump\t// out\n        /* \"#utility.yul\":545:684   */\n    tag_37:\n        /* \"#utility.yul\":591:596   */\n      0x00\n        /* \"#utility.yul\":629:635   */\n      dup2\n        /* \"#utility.yul\":616:636   */\n      calldataload\n        /* \"#utility.yul\":607:636   */\n      swap1\n      pop\n        /* \"#utility.yul\":645:678   */\n      tag_74\n        /* \"#utility.yul\":672:677   */\n      dup2\n        /* \"#utility.yul\":645:678   */\n      tag_36\n      jump\t// in\n    tag_74:\n        /* \"#utility.yul\":545:684   */\n      swap3\n      swap2\n      pop\n      pop\n      jump\t// out\n        /* \"#utility.yul\":690:1019   */\n    tag_8:\n        /* \"#utility.yul\":749:755   */\n      0x00\n        /* \"#utility.yul\":798:800   */\n      0x20\n        /* \"#utility.yul\":786:795   */\n      dup3\n        /* \"#utility.yul\":777:784   */\n      dup5\n        /* \"#utility.yul\":773:796   */\n      sub\n        /* \"#utility.yul\":769:801   */\n      slt\n        /* \"#utility.yul\":766:885   */\n      iszero\n      tag_76\n      jumpi\n        /* \"#utility.yul\":804:883   */\n      tag_77\n      tag_33\n      jump\t// in\n    tag_77:\n        /* \"#utility.yul\":766:885   */\n    tag_76:\n        /* \"#utility.yul\":924:925   */\n      0x00\n        /* \"#utility.yul\":949:1002   */\n      tag_78\n        /* \"#utility.yul\":994:1001   */\n      dup5\n        /* \"#utility.yul\":985:991   */\n      dup3\n        /* \"#utility.yul\":974:983   */\n      dup6\n        /* \"#utility.yul\":970:992   */\n      add\n        /* \"#utility.yul\":949:1002   */\n      tag_37\n      jump\t// in\n    tag_78:\n        /* \"#utility.yul\":939:1002   */\n      swap2\n      pop\n        /* \"#utility.yul\":895:1012   */\n      pop\n        /* \"#utility.yul\":690:1019   */\n      swap3\n      swap2\n      pop\n      pop\n      jump\t// out\n        /* \"#utility.yul\":1025:1151   */\n    tag_38:\n        /* \"#utility.yul\":1062:1069   */\n      0x00\n        /* \"#utility.yul\":1102:1144   */\n      0xffffffffffffffffffffffffffffffffffffffff\n        /* \"#utility.yul\":1095:1100   */\n      dup3\n        /* \"#utility.yul\":1091:1145   */\n      and\n        /* \"#utility.yul\":1080:1145   */\n      swap1\n      pop\n        /* \"#utility.yul\":1025:1151   */\n      swap2\n      swap1\n      pop\n      jump\t// out\n        /* \"#utility.yul\":1157:1261   */\n    tag_39:\n        /* \"#utility.yul\":1202:1209   */\n      0x00\n        /* \"#utility.yul\":1231:1255   */\n      tag_81\n        /* \"#utility.yul\":1249:1254   */\n      dup3\n        /* \"#utility.yul\":1231:1255   */\n      tag_38\n      jump\t// in\n    tag_81:\n        /* \"#utility.yul\":1220:1255   */\n      swap1\n      pop\n        /* \"#utility.yul\":1157:1261   */\n      swap2\n      swap1\n      pop\n      jump\t// out\n        /* \"#utility.yul\":1267:1409   */\n    tag_40:\n        /* \"#utility.yul\":1370:1402   */\n      tag_83\n        /* \"#utility.yul\":1396:1401   */\n      dup2\n        /* \"#utility.yul\":1370:1402   */\n      tag_39\n      jump\t// in\n    tag_83:\n        /* \"#utility.yul\":1365:1368   */\n      dup3\n        /* \"#utility.yul\":1358:1403   */\n      mstore\n        /* \"#utility.yul\":1267:1409   */\n      pop\n      pop\n      jump\t// out\n        /* \"#utility.yul\":1415:1669   */\n    tag_11:\n        /* \"#utility.yul\":1524:1528   */\n      0x00\n        /* \"#utility.yul\":1562:1564   */\n      0x20\n        /* \"#utility.yul\":1551:1560   */\n      dup3\n        /* \"#utility.yul\":1547:1565   */\n      add\n        /* \"#utility.yul\":1539:1565   */\n      swap1\n      pop\n        /* \"#utility.yul\":1575:1662   */\n      tag_85\n        /* \"#utility.yul\":1659:1660   */\n      0x00\n        /* \"#utility.yul\":1648:1657   */\n      dup4\n        /* \"#utility.yul\":1644:1661   */\n      add\n        /* \"#utility.yul\":1635:1641   */\n      dup5\n        /* \"#utility.yul\":1575:1662   */\n      tag_40\n      jump\t// in\n    tag_85:\n        /* \"#utility.yul\":1415:1669   */\n      swap3\n      swap2\n      pop\n      pop\n      jump\t// out\n        /* \"#utility.yul\":1675:1797   */\n    tag_41:\n        /* \"#utility.yul\":1750:1756   */\n      0x00\n        /* \"#utility.yul\":1784:1789   */\n      dup2\n        /* \"#utility.yul\":1778:1790   */\n      mload\n        /* \"#utility.yul\":1768:1790   */\n      swap1\n      pop\n        /* \"#utility.yul\":1675:1797   */\n      swap2\n      swap1\n      pop\n      jump\t// out\n        /* \"#utility.yul\":1803:1995   */\n    tag_42:\n        /* \"#utility.yul\":1910:1921   */\n      0x00\n        /* \"#utility.yul\":1944:1950   */\n      dup3\n        /* \"#utility.yul\":1939:1942   */\n      dup3\n        /* \"#utility.yul\":1932:1951   */\n      mstore\n        /* \"#utility.yul\":1984:1988   */\n      0x20\n        /* \"#utility.yul\":1979:1982   */\n      dup3\n        /* \"#utility.yul\":1975:1989   */\n      add\n        /* \"#utility.yul\":1960:1989   */\n      swap1\n      pop\n        /* \"#utility.yul\":1803:1995   */\n      swap3\n      swap2\n      pop\n      pop\n      jump\t// out\n        /* \"#utility.yul\":2001:2141   */\n    tag_43:\n        /* \"#utility.yul\":2076:2080   */\n      0x00\n        /* \"#utility.yul\":2099:2102   */\n      dup2\n        /* \"#utility.yul\":2091:2102   */\n      swap1\n      pop\n        /* \"#utility.yul\":2129:2133   */\n      0x20\n        /* \"#utility.yul\":2124:2127   */\n      dup3\n        /* \"#utility.yul\":2120:2134   */\n      add\n        /* \"#utility.yul\":2112:2134   */\n      swap1\n      pop\n        /* \"#utility.yul\":2001:2141   */\n      swap2\n      swap1\n      pop\n      jump\t// out\n        /* \"#utility.yul\":2147:2279   */\n    tag_44:\n        /* \"#utility.yul\":2240:2272   */\n      tag_90\n        /* \"#utility.yul\":2266:2271   */\n      dup2\n        /* \"#utility.yul\":2240:2272   */\n      tag_39\n      jump\t// in\n    tag_90:\n        /* \"#utility.yul\":2235:2238   */\n      dup3\n        /* \"#utility.yul\":2228:2273   */\n      mstore\n        /* \"#utility.yul\":2147:2279   */\n      pop\n      pop\n      jump\t// out\n        /* \"#utility.yul\":2285:2496   */\n    tag_45:\n        /* \"#utility.yul\":2370:2380   */\n      0x00\n        /* \"#utility.yul\":2391:2453   */\n      tag_92\n        /* \"#utility.yul\":2449:2452   */\n      dup4\n        /* \"#utility.yul\":2441:2447   */\n      dup4\n        /* \"#utility.yul\":2391:2453   */\n      tag_44\n      jump\t// in\n    tag_92:\n        /* \"#utility.yul\":2485:2489   */\n      0x20\n        /* \"#utility.yul\":2480:2483   */\n      dup4\n        /* \"#utility.yul\":2476:2490   */\n      add\n        /* \"#utility.yul\":2462:2490   */\n      swap1\n      pop\n        /* \"#utility.yul\":2285:2496   */\n      swap3\n      swap2\n      pop\n      pop\n      jump\t// out\n        /* \"#utility.yul\":2502:2623   */\n    tag_46:\n        /* \"#utility.yul\":2580:2584   */\n      0x00\n        /* \"#utility.yul\":2612:2616   */\n      0x20\n        /* \"#utility.yul\":2607:2610   */\n      dup3\n        /* \"#utility.yul\":2603:2617   */\n      add\n        /* \"#utility.yul\":2595:2617   */\n      swap1\n      pop\n        /* \"#utility.yul\":2502:2623   */\n      swap2\n      swap1\n      pop\n      jump\t// out\n        /* \"#utility.yul\":2675:3471   */\n    tag_47:\n        /* \"#utility.yul\":2810:2813   */\n      0x00\n        /* \"#utility.yul\":2839:2901   */\n      tag_95\n        /* \"#utility.yul\":2895:2900   */\n      dup3\n        /* \"#utility.yul\":2839:2901   */\n      tag_41\n      jump\t// in\n    tag_95:\n        /* \"#utility.yul\":2917:3011   */\n      tag_96\n        /* \"#utility.yul\":3004:3010   */\n      dup2\n        /* \"#utility.yul\":2999:3002   */\n      dup6\n        /* \"#utility.yul\":2917:3011   */\n      tag_42\n      jump\t// in\n    tag_96:\n        /* \"#utility.yul\":2910:3011   */\n      swap4\n      pop\n        /* \"#utility.yul\":3035:3099   */\n      tag_97\n        /* \"#utility.yul\":3093:3098   */\n      dup4\n        /* \"#utility.yul\":3035:3099   */\n      tag_43\n      jump\t// in\n    tag_97:\n        /* \"#utility.yul\":3122:3129   */\n      dup1\n        /* \"#utility.yul\":3153:3154   */\n      0x00\n        /* \"#utility.yul\":3138:3446   */\n    tag_98:\n        /* \"#utility.yul\":3163:3169   */\n      dup4\n        /* \"#utility.yul\":3160:3161   */\n      dup2\n        /* \"#utility.yul\":3157:3170   */\n      lt\n        /* \"#utility.yul\":3138:3446   */\n      iszero\n      tag_100\n      jumpi\n        /* \"#utility.yul\":3239:3245   */\n      dup2\n        /* \"#utility.yul\":3233:3246   */\n      mload\n        /* \"#utility.yul\":3266:3345   */\n      tag_101\n        /* \"#utility.yul\":3341:3344   */\n      dup9\n        /* \"#utility.yul\":3326:3339   */\n      dup3\n        /* \"#utility.yul\":3266:3345   */\n      tag_45\n      jump\t// in\n    tag_101:\n        /* \"#utility.yul\":3259:3345   */\n      swap8\n      pop\n        /* \"#utility.yul\":3368:3436   */\n      tag_102\n        /* \"#utility.yul\":3429:3435   */\n      dup4\n        /* \"#utility.yul\":3368:3436   */\n      tag_46\n      jump\t// in\n    tag_102:\n        /* \"#utility.yul\":3358:3436   */\n      swap3\n      pop\n        /* \"#utility.yul\":3198:3446   */\n      pop\n        /* \"#utility.yul\":3185:3186   */\n      0x01\n        /* \"#utility.yul\":3182:3183   */\n      dup2\n        /* \"#utility.yul\":3178:3187   */\n      add\n        /* \"#utility.yul\":3173:3187   */\n      swap1\n      pop\n        /* \"#utility.yul\":3138:3446   */\n      jump(tag_98)\n    tag_100:\n        /* \"#utility.yul\":3142:3156   */\n      pop\n        /* \"#utility.yul\":3462:3465   */\n      dup6\n        /* \"#utility.yul\":3455:3465   */\n      swap4\n      pop\n        /* \"#utility.yul\":2815:3471   */\n      pop\n      pop\n      pop\n        /* \"#utility.yul\":2675:3471   */\n      swap3\n      swap2\n      pop\n      pop\n      jump\t// out\n        /* \"#utility.yul\":3477:3882   */\n    tag_15:\n        /* \"#utility.yul\":3636:3640   */\n      0x00\n        /* \"#utility.yul\":3674:3676   */\n      0x20\n        /* \"#utility.yul\":3663:3672   */\n      dup3\n        /* \"#utility.yul\":3659:3677   */\n      add\n        /* \"#utility.yul\":3651:3677   */\n      swap1\n      pop\n        /* \"#utility.yul\":3723:3732   */\n      dup2\n        /* \"#utility.yul\":3717:3721   */\n      dup2\n        /* \"#utility.yul\":3713:3733   */\n      sub\n        /* \"#utility.yul\":3709:3710   */\n      0x00\n        /* \"#utility.yul\":3698:3707   */\n      dup4\n        /* \"#utility.yul\":3694:3711   */\n      add\n        /* \"#utility.yul\":3687:3734   */\n      mstore\n        /* \"#utility.yul\":3751:3875   */\n      tag_104\n        /* \"#utility.yul\":3870:3874   */\n      dup2\n        /* \"#utility.yul\":3861:3867   */\n      dup5\n        /* \"#utility.yul\":3751:3875   */\n      tag_47\n      jump\t// in\n    tag_104:\n        /* \"#utility.yul\":3743:3875   */\n      swap1\n      pop\n        /* \"#utility.yul\":3477:3882   */\n      swap3\n      swap2\n      pop\n      pop\n      jump\t// out\n        /* \"#utility.yul\":3888:4005   */\n    tag_48:\n        /* \"#utility.yul\":3997:3998   */\n      0x00\n        /* \"#utility.yul\":3994:3995   */\n      dup1\n        /* \"#utility.yul\":3987:3999   */\n      revert\n        /* \"#utility.yul\":4011:4128   */\n    tag_49:\n        /* \"#utility.yul\":4120:4121   */\n      0x00\n        /* \"#utility.yul\":4117:4118   */\n      dup1\n        /* \"#utility.yul\":4110:4122   */\n      revert\n        /* \"#utility.yul\":4134:4236   */\n    tag_50:\n        /* \"#utility.yul\":4175:4181   */\n      0x00\n        /* \"#utility.yul\":4226:4228   */\n      0x1f\n        /* \"#utility.yul\":4222:4229   */\n      not\n        /* \"#utility.yul\":4217:4219   */\n      0x1f\n        /* \"#utility.yul\":4210:4215   */\n      dup4\n        /* \"#utility.yul\":4206:4220   */\n      add\n        /* \"#utility.yul\":4202:4230   */\n      and\n        /* \"#utility.yul\":4192:4230   */\n      swap1\n      pop\n        /* \"#utility.yul\":4134:4236   */\n      swap2\n      swap1\n      pop\n      jump\t// out\n        /* \"#utility.yul\":4242:4422   */\n    tag_51:\n        /* \"#utility.yul\":4290:4367   */\n      0x4e487b7100000000000000000000000000000000000000000000000000000000\n        /* \"#utility.yul\":4287:4288   */\n      0x00\n        /* \"#utility.yul\":4280:4368   */\n      mstore\n        /* \"#utility.yul\":4387:4391   */\n      0x41\n        /* \"#utility.yul\":4384:4385   */\n      0x04\n        /* \"#utility.yul\":4377:4392   */\n      mstore\n        /* \"#utility.yul\":4411:4415   */\n      0x24\n        /* \"#utility.yul\":4408:4409   */\n      0x00\n        /* \"#utility.yul\":4401:4416   */\n      revert\n        /* \"#utility.yul\":4428:4709   */\n    tag_52:\n        /* \"#utility.yul\":4511:4538   */\n      tag_110\n        /* \"#utility.yul\":4533:4537   */\n      dup3\n        /* \"#utility.yul\":4511:4538   */\n      tag_50\n      jump\t// in\n    tag_110:\n        /* \"#utility.yul\":4503:4509   */\n      dup2\n        /* \"#utility.yul\":4499:4539   */\n      add\n        /* \"#utility.yul\":4641:4647   */\n      dup2\n        /* \"#utility.yul\":4629:4639   */\n      dup2\n        /* \"#utility.yul\":4626:4648   */\n      lt\n        /* \"#utility.yul\":4605:4623   */\n      0xffffffffffffffff\n        /* \"#utility.yul\":4593:4603   */\n      dup3\n        /* \"#utility.yul\":4590:4624   */\n      gt\n        /* \"#utility.yul\":4587:4649   */\n      or\n        /* \"#utility.yul\":4584:4672   */\n      iszero\n      tag_111\n      jumpi\n        /* \"#utility.yul\":4652:4670   */\n      tag_112\n      tag_51\n      jump\t// in\n    tag_112:\n        /* \"#utility.yul\":4584:4672   */\n    tag_111:\n        /* \"#utility.yul\":4692:4702   */\n      dup1\n        /* \"#utility.yul\":4688:4690   */\n      0x40\n        /* \"#utility.yul\":4681:4703   */\n      mstore\n        /* \"#utility.yul\":4471:4709   */\n      pop\n        /* \"#utility.yul\":4428:4709   */\n      pop\n      pop\n      jump\t// out\n        /* \"#utility.yul\":4715:4844   */\n    tag_53:\n        /* \"#utility.yul\":4749:4755   */\n      0x00\n        /* \"#utility.yul\":4776:4796   */\n      tag_114\n      tag_32\n      jump\t// in\n    tag_114:\n        /* \"#utility.yul\":4766:4796   */\n      swap1\n      pop\n        /* \"#utility.yul\":4805:4838   */\n      tag_115\n        /* \"#utility.yul\":4833:4837   */\n      dup3\n        /* \"#utility.yul\":4825:4831   */\n      dup3\n        /* \"#utility.yul\":4805:4838   */\n      tag_52\n      jump\t// in\n    tag_115:\n        /* \"#utility.yul\":4715:4844   */\n      swap2\n      swap1\n      pop\n      jump\t// out\n        /* \"#utility.yul\":4850:5158   */\n    tag_54:\n        /* \"#utility.yul\":4912:4916   */\n      0x00\n        /* \"#utility.yul\":5002:5020   */\n      0xffffffffffffffff\n        /* \"#utility.yul\":4994:5000   */\n      dup3\n        /* \"#utility.yul\":4991:5021   */\n      gt\n        /* \"#utility.yul\":4988:5044   */\n      iszero\n      tag_117\n      jumpi\n        /* \"#utility.yul\":5024:5042   */\n      tag_118\n      tag_51\n      jump\t// in\n    tag_118:\n        /* \"#utility.yul\":4988:5044   */\n    tag_117:\n        /* \"#utility.yul\":5062:5091   */\n      tag_119\n        /* \"#utility.yul\":5084:5090   */\n      dup3\n        /* \"#utility.yul\":5062:5091   */\n      tag_50\n      jump\t// in\n    tag_119:\n        /* \"#utility.yul\":5054:5091   */\n      swap1\n      pop\n        /* \"#utility.yul\":5146:5150   */\n      0x20\n        /* \"#utility.yul\":5140:5144   */\n      dup2\n        /* \"#utility.yul\":5136:5151   */\n      add\n        /* \"#utility.yul\":5128:5151   */\n      swap1\n      pop\n        /* \"#utility.yul\":4850:5158   */\n      swap2\n      swap1\n      pop\n      jump\t// out\n        /* \"#utility.yul\":5164:5318   */\n    tag_55:\n        /* \"#utility.yul\":5248:5254   */\n      dup3\n        /* \"#utility.yul\":5243:5246   */\n      dup2\n        /* \"#utility.yul\":5238:5241   */\n      dup4\n        /* \"#utility.yul\":5225:5255   */\n      calldatacopy\n        /* \"#utility.yul\":5310:5311   */\n      0x00\n        /* \"#utility.yul\":5301:5307   */\n      dup4\n        /* \"#utility.yul\":5296:5299   */\n      dup4\n        /* \"#utility.yul\":5292:5308   */\n      add\n        /* \"#utility.yul\":5285:5312   */\n      mstore\n        /* \"#utility.yul\":5164:5318   */\n      pop\n      pop\n      pop\n      jump\t// out\n        /* \"#utility.yul\":5324:5736   */\n    tag_56:\n        /* \"#utility.yul\":5402:5407   */\n      0x00\n        /* \"#utility.yul\":5427:5493   */\n      tag_122\n        /* \"#utility.yul\":5443:5492   */\n      tag_123\n        /* \"#utility.yul\":5485:5491   */\n      dup5\n        /* \"#utility.yul\":5443:5492   */\n      tag_54\n      jump\t// in\n    tag_123:\n        /* \"#utility.yul\":5427:5493   */\n      tag_53\n      jump\t// in\n    tag_122:\n        /* \"#utility.yul\":5418:5493   */\n      swap1\n      pop\n        /* \"#utility.yul\":5516:5522   */\n      dup3\n        /* \"#utility.yul\":5509:5514   */\n      dup2\n        /* \"#utility.yul\":5502:5523   */\n      mstore\n        /* \"#utility.yul\":5554:5558   */\n      0x20\n        /* \"#utility.yul\":5547:5552   */\n      dup2\n        /* \"#utility.yul\":5543:5559   */\n      add\n        /* \"#utility.yul\":5592:5595   */\n      dup5\n        /* \"#utility.yul\":5583:5589   */\n      dup5\n        /* \"#utility.yul\":5578:5581   */\n      dup5\n        /* \"#utility.yul\":5574:5590   */\n      add\n        /* \"#utility.yul\":5571:5596   */\n      gt\n        /* \"#utility.yul\":5568:5680   */\n      iszero\n      tag_124\n      jumpi\n        /* \"#utility.yul\":5599:5678   */\n      tag_125\n      tag_49\n      jump\t// in\n    tag_125:\n        /* \"#utility.yul\":5568:5680   */\n    tag_124:\n        /* \"#utility.yul\":5689:5730   */\n      tag_126\n        /* \"#utility.yul\":5723:5729   */\n      dup5\n        /* \"#utility.yul\":5718:5721   */\n      dup3\n        /* \"#utility.yul\":5713:5716   */\n      dup6\n        /* \"#utility.yul\":5689:5730   */\n      tag_55\n      jump\t// in\n    tag_126:\n        /* \"#utility.yul\":5408:5736   */\n      pop\n        /* \"#utility.yul\":5324:5736   */\n      swap4\n      swap3\n      pop\n      pop\n      pop\n      jump\t// out\n        /* \"#utility.yul\":5756:6096   */\n    tag_57:\n        /* \"#utility.yul\":5812:5817   */\n      0x00\n        /* \"#utility.yul\":5861:5864   */\n      dup3\n        /* \"#utility.yul\":5854:5858   */\n      0x1f\n        /* \"#utility.yul\":5846:5852   */\n      dup4\n        /* \"#utility.yul\":5842:5859   */\n      add\n        /* \"#utility.yul\":5838:5865   */\n      slt\n        /* \"#utility.yul\":5828:5950   */\n      tag_128\n      jumpi\n        /* \"#utility.yul\":5869:5948   */\n      tag_129\n      tag_48\n      jump\t// in\n    tag_129:\n        /* \"#utility.yul\":5828:5950   */\n    tag_128:\n        /* \"#utility.yul\":5986:5992   */\n      dup2\n        /* \"#utility.yul\":5973:5993   */\n      calldataload\n        /* \"#utility.yul\":6011:6090   */\n      tag_130\n        /* \"#utility.yul\":6086:6089   */\n      dup5\n        /* \"#utility.yul\":6078:6084   */\n      dup3\n        /* \"#utility.yul\":6071:6075   */\n      0x20\n        /* \"#utility.yul\":6063:6069   */\n      dup7\n        /* \"#utility.yul\":6059:6076   */\n      add\n        /* \"#utility.yul\":6011:6090   */\n      tag_56\n      jump\t// in\n    tag_130:\n        /* \"#utility.yul\":6002:6090   */\n      swap2\n      pop\n        /* \"#utility.yul\":5818:6096   */\n      pop\n        /* \"#utility.yul\":5756:6096   */\n      swap3\n      swap2\n      pop\n      pop\n      jump\t// out\n        /* \"#utility.yul\":6102:7081   */\n    tag_18:\n        /* \"#utility.yul\":6199:6205   */\n      0x00\n        /* \"#utility.yul\":6207:6213   */\n      dup1\n        /* \"#utility.yul\":6215:6221   */\n      0x00\n        /* \"#utility.yul\":6264:6266   */\n      0x60\n        /* \"#utility.yul\":6252:6261   */\n      dup5\n        /* \"#utility.yul\":6243:6250   */\n      dup7\n        /* \"#utility.yul\":6239:6262   */\n      sub\n        /* \"#utility.yul\":6235:6267   */\n      slt\n        /* \"#utility.yul\":6232:6351   */\n      iszero\n      tag_132\n      jumpi\n        /* \"#utility.yul\":6270:6349   */\n      tag_133\n      tag_33\n      jump\t// in\n    tag_133:\n        /* \"#utility.yul\":6232:6351   */\n    tag_132:\n        /* \"#utility.yul\":6390:6391   */\n      0x00\n        /* \"#utility.yul\":6415:6468   */\n      tag_134\n        /* \"#utility.yul\":6460:6467   */\n      dup7\n        /* \"#utility.yul\":6451:6457   */\n      dup3\n        /* \"#utility.yul\":6440:6449   */\n      dup8\n        /* \"#utility.yul\":6436:6458   */\n      add\n        /* \"#utility.yul\":6415:6468   */\n      tag_37\n      jump\t// in\n    tag_134:\n        /* \"#utility.yul\":6405:6468   */\n      swap4\n      pop\n        /* \"#utility.yul\":6361:6478   */\n      pop\n        /* \"#utility.yul\":6545:6547   */\n      0x20\n        /* \"#utility.yul\":6534:6543   */\n      dup5\n        /* \"#utility.yul\":6530:6548   */\n      add\n        /* \"#utility.yul\":6517:6549   */\n      calldataload\n        /* \"#utility.yul\":6576:6594   */\n      0xffffffffffffffff\n        /* \"#utility.yul\":6568:6574   */\n      dup2\n        /* \"#utility.yul\":6565:6595   */\n      gt\n        /* \"#utility.yul\":6562:6679   */\n      iszero\n      tag_135\n      jumpi\n        /* \"#utility.yul\":6598:6677   */\n      tag_136\n      tag_34\n      jump\t// in\n    tag_136:\n        /* \"#utility.yul\":6562:6679   */\n    tag_135:\n        /* \"#utility.yul\":6703:6766   */\n      tag_137\n        /* \"#utility.yul\":6758:6765   */\n      dup7\n        /* \"#utility.yul\":6749:6755   */\n      dup3\n        /* \"#utility.yul\":6738:6747   */\n      dup8\n        /* \"#utility.yul\":6734:6756   */\n      add\n        /* \"#utility.yul\":6703:6766   */\n      tag_57\n      jump\t// in\n    tag_137:\n        /* \"#utility.yul\":6693:6766   */\n      swap3\n      pop\n        /* \"#utility.yul\":6488:6776   */\n      pop\n        /* \"#utility.yul\":6843:6845   */\n      0x40\n        /* \"#utility.yul\":6832:6841   */\n      dup5\n        /* \"#utility.yul\":6828:6846   */\n      add\n        /* \"#utility.yul\":6815:6847   */\n      calldataload\n        /* \"#utility.yul\":6874:6892   */\n      0xffffffffffffffff\n        /* \"#utility.yul\":6866:6872   */\n      dup2\n        /* \"#utility.yul\":6863:6893   */\n      gt\n        /* \"#utility.yul\":6860:6977   */\n      iszero\n      tag_138\n      jumpi\n        /* \"#utility.yul\":6896:6975   */\n      tag_139\n      tag_34\n      jump\t// in\n    tag_139:\n        /* \"#utility.yul\":6860:6977   */\n    tag_138:\n        /* \"#utility.yul\":7001:7064   */\n      tag_140\n        /* \"#utility.yul\":7056:7063   */\n      dup7\n        /* \"#utility.yul\":7047:7053   */\n      dup3\n        /* \"#utility.yul\":7036:7045   */\n      dup8\n        /* \"#utility.yul\":7032:7054   */\n      add\n        /* \"#utility.yul\":7001:7064   */\n      tag_57\n      jump\t// in\n    tag_140:\n        /* \"#utility.yul\":6991:7064   */\n      swap2\n      pop\n        /* \"#utility.yul\":6786:7074   */\n      pop\n        /* \"#utility.yul\":6102:7081   */\n      swap3\n      pop\n      swap3\n      pop\n      swap3\n      jump\t// out\n        /* \"#utility.yul\":7087:7205   */\n    tag_58:\n        /* \"#utility.yul\":7174:7198   */\n      tag_142\n        /* \"#utility.yul\":7192:7197   */\n      dup2\n        /* \"#utility.yul\":7174:7198   */\n      tag_35\n      jump\t// in\n    tag_142:\n        /* \"#utility.yul\":7169:7172   */\n      dup3\n        /* \"#utility.yul\":7162:7199   */\n      mstore\n        /* \"#utility.yul\":7087:7205   */\n      pop\n      pop\n      jump\t// out\n        /* \"#utility.yul\":7211:7310   */\n    tag_59:\n        /* \"#utility.yul\":7263:7269   */\n      0x00\n        /* \"#utility.yul\":7297:7302   */\n      dup2\n        /* \"#utility.yul\":7291:7303   */\n      mload\n        /* \"#utility.yul\":7281:7303   */\n      swap1\n      pop\n        /* \"#utility.yul\":7211:7310   */\n      swap2\n      swap1\n      pop\n      jump\t// out\n        /* \"#utility.yul\":7316:7485   */\n    tag_60:\n        /* \"#utility.yul\":7400:7411   */\n      0x00\n        /* \"#utility.yul\":7434:7440   */\n      dup3\n        /* \"#utility.yul\":7429:7432   */\n      dup3\n        /* \"#utility.yul\":7422:7441   */\n      mstore\n        /* \"#utility.yul\":7474:7478   */\n      0x20\n        /* \"#utility.yul\":7469:7472   */\n      dup3\n        /* \"#utility.yul\":7465:7479   */\n      add\n        /* \"#utility.yul\":7450:7479   */\n      swap1\n      pop\n        /* \"#utility.yul\":7316:7485   */\n      swap3\n      swap2\n      pop\n      pop\n      jump\t// out\n        /* \"#utility.yul\":7491:7798   */\n    tag_61:\n        /* \"#utility.yul\":7559:7560   */\n      0x00\n        /* \"#utility.yul\":7569:7682   */\n    tag_146:\n        /* \"#utility.yul\":7583:7589   */\n      dup4\n        /* \"#utility.yul\":7580:7581   */\n      dup2\n        /* \"#utility.yul\":7577:7590   */\n      lt\n        /* \"#utility.yul\":7569:7682   */\n      iszero\n      tag_148\n      jumpi\n        /* \"#utility.yul\":7668:7669   */\n      dup1\n        /* \"#utility.yul\":7663:7666   */\n      dup3\n        /* \"#utility.yul\":7659:7670   */\n      add\n        /* \"#utility.yul\":7653:7671   */\n      mload\n        /* \"#utility.yul\":7649:7650   */\n      dup2\n        /* \"#utility.yul\":7644:7647   */\n      dup5\n        /* \"#utility.yul\":7640:7651   */\n      add\n        /* \"#utility.yul\":7633:7672   */\n      mstore\n        /* \"#utility.yul\":7605:7607   */\n      0x20\n        /* \"#utility.yul\":7602:7603   */\n      dup2\n        /* \"#utility.yul\":7598:7608   */\n      add\n        /* \"#utility.yul\":7593:7608   */\n      swap1\n      pop\n        /* \"#utility.yul\":7569:7682   */\n      jump(tag_146)\n    tag_148:\n        /* \"#utility.yul\":7700:7706   */\n      dup4\n        /* \"#utility.yul\":7697:7698   */\n      dup2\n        /* \"#utility.yul\":7694:7707   */\n      gt\n        /* \"#utility.yul\":7691:7792   */\n      iszero\n      tag_149\n      jumpi\n        /* \"#utility.yul\":7780:7781   */\n      0x00\n        /* \"#utility.yul\":7771:7777   */\n      dup5\n        /* \"#utility.yul\":7766:7769   */\n      dup5\n        /* \"#utility.yul\":7762:7778   */\n      add\n        /* \"#utility.yul\":7755:7782   */\n      mstore\n        /* \"#utility.yul\":7691:7792   */\n    tag_149:\n        /* \"#utility.yul\":7540:7798   */\n      pop\n        /* \"#utility.yul\":7491:7798   */\n      pop\n      pop\n      pop\n      jump\t// out\n        /* \"#utility.yul\":7804:8168   */\n    tag_62:\n        /* \"#utility.yul\":7892:7895   */\n      0x00\n        /* \"#utility.yul\":7920:7959   */\n      tag_151\n        /* \"#utility.yul\":7953:7958   */\n      dup3\n        /* \"#utility.yul\":7920:7959   */\n      tag_59\n      jump\t// in\n    tag_151:\n        /* \"#utility.yul\":7975:8046   */\n      tag_152\n        /* \"#utility.yul\":8039:8045   */\n      dup2\n        /* \"#utility.yul\":8034:8037   */\n      dup6\n        /* \"#utility.yul\":7975:8046   */\n      tag_60\n      jump\t// in\n    tag_152:\n        /* \"#utility.yul\":7968:8046   */\n      swap4\n      pop\n        /* \"#utility.yul\":8055:8107   */\n      tag_153\n        /* \"#utility.yul\":8100:8106   */\n      dup2\n        /* \"#utility.yul\":8095:8098   */\n      dup6\n        /* \"#utility.yul\":8088:8092   */\n      0x20\n        /* \"#utility.yul\":8081:8086   */\n      dup7\n        /* \"#utility.yul\":8077:8093   */\n      add\n        /* \"#utility.yul\":8055:8107   */\n      tag_61\n      jump\t// in\n    tag_153:\n        /* \"#utility.yul\":8132:8161   */\n      tag_154\n        /* \"#utility.yul\":8154:8160   */\n      dup2\n        /* \"#utility.yul\":8132:8161   */\n      tag_50\n      jump\t// in\n    tag_154:\n        /* \"#utility.yul\":8127:8130   */\n      dup5\n        /* \"#utility.yul\":8123:8162   */\n      add\n        /* \"#utility.yul\":8116:8162   */\n      swap2\n      pop\n        /* \"#utility.yul\":7896:8168   */\n      pop\n        /* \"#utility.yul\":7804:8168   */\n      swap3\n      swap2\n      pop\n      pop\n      jump\t// out\n        /* \"#utility.yul\":8174:8270   */\n    tag_63:\n        /* \"#utility.yul\":8211:8218   */\n      0x00\n        /* \"#utility.yul\":8240:8264   */\n      tag_156\n        /* \"#utility.yul\":8258:8263   */\n      dup3\n        /* \"#utility.yul\":8240:8264   */\n      tag_38\n      jump\t// in\n    tag_156:\n        /* \"#utility.yul\":8229:8264   */\n      swap1\n      pop\n        /* \"#utility.yul\":8174:8270   */\n      swap2\n      swap1\n      pop\n      jump\t// out\n        /* \"#utility.yul\":8276:8394   */\n    tag_64:\n        /* \"#utility.yul\":8363:8387   */\n      tag_158\n        /* \"#utility.yul\":8381:8386   */\n      dup2\n        /* \"#utility.yul\":8363:8387   */\n      tag_63\n      jump\t// in\n    tag_158:\n        /* \"#utility.yul\":8358:8361   */\n      dup3\n        /* \"#utility.yul\":8351:8388   */\n      mstore\n        /* \"#utility.yul\":8276:8394   */\n      pop\n      pop\n      jump\t// out\n        /* \"#utility.yul\":8400:9135   */\n    tag_29:\n        /* \"#utility.yul\":8617:8621   */\n      0x00\n        /* \"#utility.yul\":8655:8658   */\n      0x80\n        /* \"#utility.yul\":8644:8653   */\n      dup3\n        /* \"#utility.yul\":8640:8659   */\n      add\n        /* \"#utility.yul\":8632:8659   */\n      swap1\n      pop\n        /* \"#utility.yul\":8669:8740   */\n      tag_160\n        /* \"#utility.yul\":8737:8738   */\n      0x00\n        /* \"#utility.yul\":8726:8735   */\n      dup4\n        /* \"#utility.yul\":8722:8739   */\n      add\n        /* \"#utility.yul\":8713:8719   */\n      dup8\n        /* \"#utility.yul\":8669:8740   */\n      tag_58\n      jump\t// in\n    tag_160:\n        /* \"#utility.yul\":8787:8796   */\n      dup2\n        /* \"#utility.yul\":8781:8785   */\n      dup2\n        /* \"#utility.yul\":8777:8797   */\n      sub\n        /* \"#utility.yul\":8772:8774   */\n      0x20\n        /* \"#utility.yul\":8761:8770   */\n      dup4\n        /* \"#utility.yul\":8757:8775   */\n      add\n        /* \"#utility.yul\":8750:8798   */\n      mstore\n        /* \"#utility.yul\":8815:8893   */\n      tag_161\n        /* \"#utility.yul\":8888:8892   */\n      dup2\n        /* \"#utility.yul\":8879:8885   */\n      dup7\n        /* \"#utility.yul\":8815:8893   */\n      tag_62\n      jump\t// in\n    tag_161:\n        /* \"#utility.yul\":8807:8893   */\n      swap1\n      pop\n        /* \"#utility.yul\":8940:8949   */\n      dup2\n        /* \"#utility.yul\":8934:8938   */\n      dup2\n        /* \"#utility.yul\":8930:8950   */\n      sub\n        /* \"#utility.yul\":8925:8927   */\n      0x40\n        /* \"#utility.yul\":8914:8923   */\n      dup4\n        /* \"#utility.yul\":8910:8928   */\n      add\n        /* \"#utility.yul\":8903:8951   */\n      mstore\n        /* \"#utility.yul\":8968:9046   */\n      tag_162\n        /* \"#utility.yul\":9041:9045   */\n      dup2\n        /* \"#utility.yul\":9032:9038   */\n      dup6\n        /* \"#utility.yul\":8968:9046   */\n      tag_62\n      jump\t// in\n    tag_162:\n        /* \"#utility.yul\":8960:9046   */\n      swap1\n      pop\n        /* \"#utility.yul\":9056:9128   */\n      tag_163\n        /* \"#utility.yul\":9124:9126   */\n      0x60\n        /* \"#utility.yul\":9113:9122   */\n      dup4\n        /* \"#utility.yul\":9109:9127   */\n      add\n        /* \"#utility.yul\":9100:9106   */\n      dup5\n        /* \"#utility.yul\":9056:9128   */\n      tag_64\n      jump\t// in\n    tag_163:\n        /* \"#utility.yul\":8400:9135   */\n      swap6\n      swap5\n      pop\n      pop\n      pop\n      pop\n      pop\n      jump\t// out\n    stop\n\n    sub_0: assembly {\n            /* \"Campaign.sol\":478:2724  contract Campaign{... */\n          mstore(0x40, 0x80)\n            /* \"Campaign.sol\":1033:1239  constructor (uint minimum,string memory title,string memory descript,address creator) {... */\n          callvalue\n          dup1\n          iszero\n          tag_1\n          jumpi\n          0x00\n          dup1\n          revert\n        tag_1:\n          pop\n          mload(0x40)\n          sub(codesize, bytecodeSize)\n          dup1\n          bytecodeSize\n          dup4\n          codecopy\n          dup2\n          dup2\n          add\n          0x40\n          mstore\n          dup2\n          add\n          swap1\n          tag_2\n          swap2\n          swap1\n          tag_3\n          jump\t// in\n        tag_2:\n            /* \"Campaign.sol\":1135:1142  creator */\n          dup1\n            /* \"Campaign.sol\":1127:1134  manager */\n          0x02\n          0x00\n            /* \"Campaign.sol\":1127:1142  manager=creator */\n          0x0100\n          exp\n          dup2\n          sload\n          dup2\n          0xffffffffffffffffffffffffffffffffffffffff\n          mul\n          not\n          and\n          swap1\n          dup4\n          0xffffffffffffffffffffffffffffffffffffffff\n          and\n          mul\n          or\n          swap1\n          sstore\n          pop\n            /* \"Campaign.sol\":1170:1177  minimum */\n          dup4\n            /* \"Campaign.sol\":1150:1169  minimumContribution */\n          0x03\n            /* \"Campaign.sol\":1150:1177  minimumContribution=minimum */\n          dup2\n          swap1\n          sstore\n          pop\n            /* \"Campaign.sol\":1195:1200  title */\n          dup3\n            /* \"Campaign.sol\":1185:1194  campTitle */\n          0x00\n            /* \"Campaign.sol\":1185:1200  campTitle=title */\n          swap1\n          dup2\n          tag_6\n          swap2\n          swap1\n          tag_7\n          jump\t// in\n        tag_6:\n          pop\n            /* \"Campaign.sol\":1224:1232  descript */\n          dup2\n            /* \"Campaign.sol\":1208:1223  campDescription */\n          0x01\n            /* \"Campaign.sol\":1208:1232  campDescription=descript */\n          swap1\n          dup2\n          tag_8\n          swap2\n          swap1\n          tag_7\n          jump\t// in\n        tag_8:\n          pop\n            /* \"Campaign.sol\":1033:1239  constructor (uint minimum,string memory title,string memory descript,address creator) {... */\n          pop\n          pop\n          pop\n          pop\n            /* \"Campaign.sol\":478:2724  contract Campaign{... */\n          jump(tag_9)\n            /* \"#utility.yul\":7:82   */\n        tag_10:\n            /* \"#utility.yul\":40:46   */\n          0x00\n            /* \"#utility.yul\":73:75   */\n          0x40\n            /* \"#utility.yul\":67:76   */\n          mload\n            /* \"#utility.yul\":57:76   */\n          swap1\n          pop\n            /* \"#utility.yul\":7:82   */\n          swap1\n          jump\t// out\n            /* \"#utility.yul\":88:205   */\n        tag_11:\n            /* \"#utility.yul\":197:198   */\n          0x00\n            /* \"#utility.yul\":194:195   */\n          dup1\n            /* \"#utility.yul\":187:199   */\n          revert\n            /* \"#utility.yul\":211:328   */\n        tag_12:\n            /* \"#utility.yul\":320:321   */\n          0x00\n            /* \"#utility.yul\":317:318   */\n          dup1\n            /* \"#utility.yul\":310:322   */\n          revert\n            /* \"#utility.yul\":334:411   */\n        tag_13:\n            /* \"#utility.yul\":371:378   */\n          0x00\n            /* \"#utility.yul\":400:405   */\n          dup2\n            /* \"#utility.yul\":389:405   */\n          swap1\n          pop\n            /* \"#utility.yul\":334:411   */\n          swap2\n          swap1\n          pop\n          jump\t// out\n            /* \"#utility.yul\":417:539   */\n        tag_14:\n            /* \"#utility.yul\":490:514   */\n          tag_54\n            /* \"#utility.yul\":508:513   */\n          dup2\n            /* \"#utility.yul\":490:514   */\n          tag_13\n          jump\t// in\n        tag_54:\n            /* \"#utility.yul\":483:488   */\n          dup2\n            /* \"#utility.yul\":480:515   */\n          eq\n            /* \"#utility.yul\":470:533   */\n          tag_55\n          jumpi\n            /* \"#utility.yul\":529:530   */\n          0x00\n            /* \"#utility.yul\":526:527   */\n          dup1\n            /* \"#utility.yul\":519:531   */\n          revert\n            /* \"#utility.yul\":470:533   */\n        tag_55:\n            /* \"#utility.yul\":417:539   */\n          pop\n          jump\t// out\n            /* \"#utility.yul\":545:688   */\n        tag_15:\n            /* \"#utility.yul\":602:607   */\n          0x00\n            /* \"#utility.yul\":633:639   */\n          dup2\n            /* \"#utility.yul\":627:640   */\n          mload\n            /* \"#utility.yul\":618:640   */\n          swap1\n          pop\n            /* \"#utility.yul\":649:682   */\n          tag_57\n            /* \"#utility.yul\":676:681   */\n          dup2\n            /* \"#utility.yul\":649:682   */\n          tag_14\n          jump\t// in\n        tag_57:\n            /* \"#utility.yul\":545:688   */\n          swap3\n          swap2\n          pop\n          pop\n          jump\t// out\n            /* \"#utility.yul\":694:811   */\n        tag_16:\n            /* \"#utility.yul\":803:804   */\n          0x00\n            /* \"#utility.yul\":800:801   */\n          dup1\n            /* \"#utility.yul\":793:805   */\n          revert\n            /* \"#utility.yul\":817:934   */\n        tag_17:\n            /* \"#utility.yul\":926:927   */\n          0x00\n            /* \"#utility.yul\":923:924   */\n          dup1\n            /* \"#utility.yul\":916:928   */\n          revert\n            /* \"#utility.yul\":940:1042   */\n        tag_18:\n            /* \"#utility.yul\":981:987   */\n          0x00\n            /* \"#utility.yul\":1032:1034   */\n          0x1f\n            /* \"#utility.yul\":1028:1035   */\n          not\n            /* \"#utility.yul\":1023:1025   */\n          0x1f\n            /* \"#utility.yul\":1016:1021   */\n          dup4\n            /* \"#utility.yul\":1012:1026   */\n          add\n            /* \"#utility.yul\":1008:1036   */\n          and\n            /* \"#utility.yul\":998:1036   */\n          swap1\n          pop\n            /* \"#utility.yul\":940:1042   */\n          swap2\n          swap1\n          pop\n          jump\t// out\n            /* \"#utility.yul\":1048:1228   */\n        tag_19:\n            /* \"#utility.yul\":1096:1173   */\n          0x4e487b7100000000000000000000000000000000000000000000000000000000\n            /* \"#utility.yul\":1093:1094   */\n          0x00\n            /* \"#utility.yul\":1086:1174   */\n          mstore\n            /* \"#utility.yul\":1193:1197   */\n          0x41\n            /* \"#utility.yul\":1190:1191   */\n          0x04\n            /* \"#utility.yul\":1183:1198   */\n          mstore\n            /* \"#utility.yul\":1217:1221   */\n          0x24\n            /* \"#utility.yul\":1214:1215   */\n          0x00\n            /* \"#utility.yul\":1207:1222   */\n          revert\n            /* \"#utility.yul\":1234:1515   */\n        tag_20:\n            /* \"#utility.yul\":1317:1344   */\n          tag_63\n            /* \"#utility.yul\":1339:1343   */\n          dup3\n            /* \"#utility.yul\":1317:1344   */\n          tag_18\n          jump\t// in\n        tag_63:\n            /* \"#utility.yul\":1309:1315   */\n          dup2\n            /* \"#utility.yul\":1305:1345   */\n          add\n            /* \"#utility.yul\":1447:1453   */\n          dup2\n            /* \"#utility.yul\":1435:1445   */\n          dup2\n            /* \"#utility.yul\":1432:1454   */\n          lt\n            /* \"#utility.yul\":1411:1429   */\n          0xffffffffffffffff\n            /* \"#utility.yul\":1399:1409   */\n          dup3\n            /* \"#utility.yul\":1396:1430   */\n          gt\n            /* \"#utility.yul\":1393:1455   */\n          or\n            /* \"#utility.yul\":1390:1478   */\n          iszero\n          tag_64\n          jumpi\n            /* \"#utility.yul\":1458:1476   */\n          tag_65\n          tag_19\n          jump\t// in\n        tag_65:\n            /* \"#utility.yul\":1390:1478   */\n        tag_64:\n            /* \"#utility.yul\":1498:1508   */\n          dup1\n            /* \"#utility.yul\":1494:1496   */\n          0x40\n            /* \"#utility.yul\":1487:1509   */\n          mstore\n            /* \"#utility.yul\":1277:1515   */\n          pop\n            /* \"#utility.yul\":1234:1515   */\n          pop\n          pop\n          jump\t// out\n            /* \"#utility.yul\":1521:1650   */\n        tag_21:\n            /* \"#utility.yul\":1555:1561   */\n          0x00\n            /* \"#utility.yul\":1582:1602   */\n          tag_67\n          tag_10\n          jump\t// in\n        tag_67:\n            /* \"#utility.yul\":1572:1602   */\n          swap1\n          pop\n            /* \"#utility.yul\":1611:1644   */\n          tag_68\n            /* \"#utility.yul\":1639:1643   */\n          dup3\n            /* \"#utility.yul\":1631:1637   */\n          dup3\n            /* \"#utility.yul\":1611:1644   */\n          tag_20\n          jump\t// in\n        tag_68:\n            /* \"#utility.yul\":1521:1650   */\n          swap2\n          swap1\n          pop\n          jump\t// out\n            /* \"#utility.yul\":1656:1964   */\n        tag_22:\n            /* \"#utility.yul\":1718:1722   */\n          0x00\n            /* \"#utility.yul\":1808:1826   */\n          0xffffffffffffffff\n            /* \"#utility.yul\":1800:1806   */\n          dup3\n            /* \"#utility.yul\":1797:1827   */\n          gt\n            /* \"#utility.yul\":1794:1850   */\n          iszero\n          tag_70\n          jumpi\n            /* \"#utility.yul\":1830:1848   */\n          tag_71\n          tag_19\n          jump\t// in\n        tag_71:\n            /* \"#utility.yul\":1794:1850   */\n        tag_70:\n            /* \"#utility.yul\":1868:1897   */\n          tag_72\n            /* \"#utility.yul\":1890:1896   */\n          dup3\n            /* \"#utility.yul\":1868:1897   */\n          tag_18\n          jump\t// in\n        tag_72:\n            /* \"#utility.yul\":1860:1897   */\n          swap1\n          pop\n            /* \"#utility.yul\":1952:1956   */\n          0x20\n            /* \"#utility.yul\":1946:1950   */\n          dup2\n            /* \"#utility.yul\":1942:1957   */\n          add\n            /* \"#utility.yul\":1934:1957   */\n          swap1\n          pop\n            /* \"#utility.yul\":1656:1964   */\n          swap2\n          swap1\n          pop\n          jump\t// out\n            /* \"#utility.yul\":1970:2277   */\n        tag_23:\n            /* \"#utility.yul\":2038:2039   */\n          0x00\n            /* \"#utility.yul\":2048:2161   */\n        tag_74:\n            /* \"#utility.yul\":2062:2068   */\n          dup4\n            /* \"#utility.yul\":2059:2060   */\n          dup2\n            /* \"#utility.yul\":2056:2069   */\n          lt\n            /* \"#utility.yul\":2048:2161   */\n          iszero\n          tag_76\n          jumpi\n            /* \"#utility.yul\":2147:2148   */\n          dup1\n            /* \"#utility.yul\":2142:2145   */\n          dup3\n            /* \"#utility.yul\":2138:2149   */\n          add\n            /* \"#utility.yul\":2132:2150   */\n          mload\n            /* \"#utility.yul\":2128:2129   */\n          dup2\n            /* \"#utility.yul\":2123:2126   */\n          dup5\n            /* \"#utility.yul\":2119:2130   */\n          add\n            /* \"#utility.yul\":2112:2151   */\n          mstore\n            /* \"#utility.yul\":2084:2086   */\n          0x20\n            /* \"#utility.yul\":2081:2082   */\n          dup2\n            /* \"#utility.yul\":2077:2087   */\n          add\n            /* \"#utility.yul\":2072:2087   */\n          swap1\n          pop\n            /* \"#utility.yul\":2048:2161   */\n          jump(tag_74)\n        tag_76:\n            /* \"#utility.yul\":2179:2185   */\n          dup4\n            /* \"#utility.yul\":2176:2177   */\n          dup2\n            /* \"#utility.yul\":2173:2186   */\n          gt\n            /* \"#utility.yul\":2170:2271   */\n          iszero\n          tag_77\n          jumpi\n            /* \"#utility.yul\":2259:2260   */\n          0x00\n            /* \"#utility.yul\":2250:2256   */\n          dup5\n            /* \"#utility.yul\":2245:2248   */\n          dup5\n            /* \"#utility.yul\":2241:2257   */\n          add\n            /* \"#utility.yul\":2234:2261   */\n          mstore\n            /* \"#utility.yul\":2170:2271   */\n        tag_77:\n            /* \"#utility.yul\":2019:2277   */\n          pop\n            /* \"#utility.yul\":1970:2277   */\n          pop\n          pop\n          pop\n          jump\t// out\n            /* \"#utility.yul\":2283:2704   */\n        tag_24:\n            /* \"#utility.yul\":2372:2377   */\n          0x00\n            /* \"#utility.yul\":2397:2463   */\n          tag_79\n            /* \"#utility.yul\":2413:2462   */\n          tag_80\n            /* \"#utility.yul\":2455:2461   */\n          dup5\n            /* \"#utility.yul\":2413:2462   */\n          tag_22\n          jump\t// in\n        tag_80:\n            /* \"#utility.yul\":2397:2463   */\n          tag_21\n          jump\t// in\n        tag_79:\n            /* \"#utility.yul\":2388:2463   */\n          swap1\n          pop\n            /* \"#utility.yul\":2486:2492   */\n          dup3\n            /* \"#utility.yul\":2479:2484   */\n          dup2\n            /* \"#utility.yul\":2472:2493   */\n          mstore\n            /* \"#utility.yul\":2524:2528   */\n          0x20\n            /* \"#utility.yul\":2517:2522   */\n          dup2\n            /* \"#utility.yul\":2513:2529   */\n          add\n            /* \"#utility.yul\":2562:2565   */\n          dup5\n            /* \"#utility.yul\":2553:2559   */\n          dup5\n            /* \"#utility.yul\":2548:2551   */\n          dup5\n            /* \"#utility.yul\":2544:2560   */\n          add\n            /* \"#utility.yul\":2541:2566   */\n          gt\n            /* \"#utility.yul\":2538:2650   */\n          iszero\n          tag_81\n          jumpi\n            /* \"#utility.yul\":2569:2648   */\n          tag_82\n          tag_17\n          jump\t// in\n        tag_82:\n            /* \"#utility.yul\":2538:2650   */\n        tag_81:\n            /* \"#utility.yul\":2659:2698   */\n          tag_83\n            /* \"#utility.yul\":2691:2697   */\n          dup5\n            /* \"#utility.yul\":2686:2689   */\n          dup3\n            /* \"#utility.yul\":2681:2684   */\n          dup6\n            /* \"#utility.yul\":2659:2698   */\n          tag_23\n          jump\t// in\n        tag_83:\n            /* \"#utility.yul\":2378:2704   */\n          pop\n            /* \"#utility.yul\":2283:2704   */\n          swap4\n          swap3\n          pop\n          pop\n          pop\n          jump\t// out\n            /* \"#utility.yul\":2724:3079   */\n        tag_25:\n            /* \"#utility.yul\":2791:2796   */\n          0x00\n            /* \"#utility.yul\":2840:2843   */\n          dup3\n            /* \"#utility.yul\":2833:2837   */\n          0x1f\n            /* \"#utility.yul\":2825:2831   */\n          dup4\n            /* \"#utility.yul\":2821:2838   */\n          add\n            /* \"#utility.yul\":2817:2844   */\n          slt\n            /* \"#utility.yul\":2807:2929   */\n          tag_85\n          jumpi\n            /* \"#utility.yul\":2848:2927   */\n          tag_86\n          tag_16\n          jump\t// in\n        tag_86:\n            /* \"#utility.yul\":2807:2929   */\n        tag_85:\n            /* \"#utility.yul\":2958:2964   */\n          dup2\n            /* \"#utility.yul\":2952:2965   */\n          mload\n            /* \"#utility.yul\":2983:3073   */\n          tag_87\n            /* \"#utility.yul\":3069:3072   */\n          dup5\n            /* \"#utility.yul\":3061:3067   */\n          dup3\n            /* \"#utility.yul\":3054:3058   */\n          0x20\n            /* \"#utility.yul\":3046:3052   */\n          dup7\n            /* \"#utility.yul\":3042:3059   */\n          add\n            /* \"#utility.yul\":2983:3073   */\n          tag_24\n          jump\t// in\n        tag_87:\n            /* \"#utility.yul\":2974:3073   */\n          swap2\n          pop\n            /* \"#utility.yul\":2797:3079   */\n          pop\n            /* \"#utility.yul\":2724:3079   */\n          swap3\n          swap2\n          pop\n          pop\n          jump\t// out\n            /* \"#utility.yul\":3085:3211   */\n        tag_26:\n            /* \"#utility.yul\":3122:3129   */\n          0x00\n            /* \"#utility.yul\":3162:3204   */\n          0xffffffffffffffffffffffffffffffffffffffff\n            /* \"#utility.yul\":3155:3160   */\n          dup3\n            /* \"#utility.yul\":3151:3205   */\n          and\n            /* \"#utility.yul\":3140:3205   */\n          swap1\n          pop\n            /* \"#utility.yul\":3085:3211   */\n          swap2\n          swap1\n          pop\n          jump\t// out\n            /* \"#utility.yul\":3217:3313   */\n        tag_27:\n            /* \"#utility.yul\":3254:3261   */\n          0x00\n            /* \"#utility.yul\":3283:3307   */\n          tag_90\n            /* \"#utility.yul\":3301:3306   */\n          dup3\n            /* \"#utility.yul\":3283:3307   */\n          tag_26\n          jump\t// in\n        tag_90:\n            /* \"#utility.yul\":3272:3307   */\n          swap1\n          pop\n            /* \"#utility.yul\":3217:3313   */\n          swap2\n          swap1\n          pop\n          jump\t// out\n            /* \"#utility.yul\":3319:3441   */\n        tag_28:\n            /* \"#utility.yul\":3392:3416   */\n          tag_92\n            /* \"#utility.yul\":3410:3415   */\n          dup2\n            /* \"#utility.yul\":3392:3416   */\n          tag_27\n          jump\t// in\n        tag_92:\n            /* \"#utility.yul\":3385:3390   */\n          dup2\n            /* \"#utility.yul\":3382:3417   */\n          eq\n            /* \"#utility.yul\":3372:3435   */\n          tag_93\n          jumpi\n            /* \"#utility.yul\":3431:3432   */\n          0x00\n            /* \"#utility.yul\":3428:3429   */\n          dup1\n            /* \"#utility.yul\":3421:3433   */\n          revert\n            /* \"#utility.yul\":3372:3435   */\n        tag_93:\n            /* \"#utility.yul\":3319:3441   */\n          pop\n          jump\t// out\n            /* \"#utility.yul\":3447:3590   */\n        tag_29:\n            /* \"#utility.yul\":3504:3509   */\n          0x00\n            /* \"#utility.yul\":3535:3541   */\n          dup2\n            /* \"#utility.yul\":3529:3542   */\n          mload\n            /* \"#utility.yul\":3520:3542   */\n          swap1\n          pop\n            /* \"#utility.yul\":3551:3584   */\n          tag_95\n            /* \"#utility.yul\":3578:3583   */\n          dup2\n            /* \"#utility.yul\":3551:3584   */\n          tag_28\n          jump\t// in\n        tag_95:\n            /* \"#utility.yul\":3447:3590   */\n          swap3\n          swap2\n          pop\n          pop\n          jump\t// out\n            /* \"#utility.yul\":3596:4762   */\n        tag_3:\n            /* \"#utility.yul\":3713:3719   */\n          0x00\n            /* \"#utility.yul\":3721:3727   */\n          dup1\n            /* \"#utility.yul\":3729:3735   */\n          0x00\n            /* \"#utility.yul\":3737:3743   */\n          dup1\n            /* \"#utility.yul\":3786:3789   */\n          0x80\n            /* \"#utility.yul\":3774:3783   */\n          dup6\n            /* \"#utility.yul\":3765:3772   */\n          dup8\n            /* \"#utility.yul\":3761:3784   */\n          sub\n            /* \"#utility.yul\":3757:3790   */\n          slt\n            /* \"#utility.yul\":3754:3874   */\n          iszero\n          tag_97\n          jumpi\n            /* \"#utility.yul\":3793:3872   */\n          tag_98\n          tag_11\n          jump\t// in\n        tag_98:\n            /* \"#utility.yul\":3754:3874   */\n        tag_97:\n            /* \"#utility.yul\":3913:3914   */\n          0x00\n            /* \"#utility.yul\":3938:4002   */\n          tag_99\n            /* \"#utility.yul\":3994:4001   */\n          dup8\n            /* \"#utility.yul\":3985:3991   */\n          dup3\n            /* \"#utility.yul\":3974:3983   */\n          dup9\n            /* \"#utility.yul\":3970:3992   */\n          add\n            /* \"#utility.yul\":3938:4002   */\n          tag_15\n          jump\t// in\n        tag_99:\n            /* \"#utility.yul\":3928:4002   */\n          swap5\n          pop\n            /* \"#utility.yul\":3884:4012   */\n          pop\n            /* \"#utility.yul\":4072:4074   */\n          0x20\n            /* \"#utility.yul\":4061:4070   */\n          dup6\n            /* \"#utility.yul\":4057:4075   */\n          add\n            /* \"#utility.yul\":4051:4076   */\n          mload\n            /* \"#utility.yul\":4103:4121   */\n          0xffffffffffffffff\n            /* \"#utility.yul\":4095:4101   */\n          dup2\n            /* \"#utility.yul\":4092:4122   */\n          gt\n            /* \"#utility.yul\":4089:4206   */\n          iszero\n          tag_100\n          jumpi\n            /* \"#utility.yul\":4125:4204   */\n          tag_101\n          tag_12\n          jump\t// in\n        tag_101:\n            /* \"#utility.yul\":4089:4206   */\n        tag_100:\n            /* \"#utility.yul\":4230:4304   */\n          tag_102\n            /* \"#utility.yul\":4296:4303   */\n          dup8\n            /* \"#utility.yul\":4287:4293   */\n          dup3\n            /* \"#utility.yul\":4276:4285   */\n          dup9\n            /* \"#utility.yul\":4272:4294   */\n          add\n            /* \"#utility.yul\":4230:4304   */\n          tag_25\n          jump\t// in\n        tag_102:\n            /* \"#utility.yul\":4220:4304   */\n          swap4\n          pop\n            /* \"#utility.yul\":4022:4314   */\n          pop\n            /* \"#utility.yul\":4374:4376   */\n          0x40\n            /* \"#utility.yul\":4363:4372   */\n          dup6\n            /* \"#utility.yul\":4359:4377   */\n          add\n            /* \"#utility.yul\":4353:4378   */\n          mload\n            /* \"#utility.yul\":4405:4423   */\n          0xffffffffffffffff\n            /* \"#utility.yul\":4397:4403   */\n          dup2\n            /* \"#utility.yul\":4394:4424   */\n          gt\n            /* \"#utility.yul\":4391:4508   */\n          iszero\n          tag_103\n          jumpi\n            /* \"#utility.yul\":4427:4506   */\n          tag_104\n          tag_12\n          jump\t// in\n        tag_104:\n            /* \"#utility.yul\":4391:4508   */\n        tag_103:\n            /* \"#utility.yul\":4532:4606   */\n          tag_105\n            /* \"#utility.yul\":4598:4605   */\n          dup8\n            /* \"#utility.yul\":4589:4595   */\n          dup3\n            /* \"#utility.yul\":4578:4587   */\n          dup9\n            /* \"#utility.yul\":4574:4596   */\n          add\n            /* \"#utility.yul\":4532:4606   */\n          tag_25\n          jump\t// in\n        tag_105:\n            /* \"#utility.yul\":4522:4606   */\n          swap3\n          pop\n            /* \"#utility.yul\":4324:4616   */\n          pop\n            /* \"#utility.yul\":4655:4657   */\n          0x60\n            /* \"#utility.yul\":4681:4745   */\n          tag_106\n            /* \"#utility.yul\":4737:4744   */\n          dup8\n            /* \"#utility.yul\":4728:4734   */\n          dup3\n            /* \"#utility.yul\":4717:4726   */\n          dup9\n            /* \"#utility.yul\":4713:4735   */\n          add\n            /* \"#utility.yul\":4681:4745   */\n          tag_29\n          jump\t// in\n        tag_106:\n            /* \"#utility.yul\":4671:4745   */\n          swap2\n          pop\n            /* \"#utility.yul\":4626:4755   */\n          pop\n            /* \"#utility.yul\":3596:4762   */\n          swap3\n          swap6\n          swap2\n          swap5\n          pop\n          swap3\n          pop\n          jump\t// out\n            /* \"#utility.yul\":4768:4867   */\n        tag_30:\n            /* \"#utility.yul\":4820:4826   */\n          0x00\n            /* \"#utility.yul\":4854:4859   */\n          dup2\n            /* \"#utility.yul\":4848:4860   */\n          mload\n            /* \"#utility.yul\":4838:4860   */\n          swap1\n          pop\n            /* \"#utility.yul\":4768:4867   */\n          swap2\n          swap1\n          pop\n          jump\t// out\n            /* \"#utility.yul\":4873:5053   */\n        tag_31:\n            /* \"#utility.yul\":4921:4998   */\n          0x4e487b7100000000000000000000000000000000000000000000000000000000\n            /* \"#utility.yul\":4918:4919   */\n          0x00\n            /* \"#utility.yul\":4911:4999   */\n          mstore\n            /* \"#utility.yul\":5018:5022   */\n          0x22\n            /* \"#utility.yul\":5015:5016   */\n          0x04\n            /* \"#utility.yul\":5008:5023   */\n          mstore\n            /* \"#utility.yul\":5042:5046   */\n          0x24\n            /* \"#utility.yul\":5039:5040   */\n          0x00\n            /* \"#utility.yul\":5032:5047   */\n          revert\n            /* \"#utility.yul\":5059:5379   */\n        tag_32:\n            /* \"#utility.yul\":5103:5109   */\n          0x00\n            /* \"#utility.yul\":5140:5141   */\n          0x02\n            /* \"#utility.yul\":5134:5138   */\n          dup3\n            /* \"#utility.yul\":5130:5142   */\n          div\n            /* \"#utility.yul\":5120:5142   */\n          swap1\n          pop\n            /* \"#utility.yul\":5187:5188   */\n          0x01\n            /* \"#utility.yul\":5181:5185   */\n          dup3\n            /* \"#utility.yul\":5177:5189   */\n          and\n            /* \"#utility.yul\":5208:5226   */\n          dup1\n            /* \"#utility.yul\":5198:5279   */\n          tag_110\n          jumpi\n            /* \"#utility.yul\":5264:5268   */\n          0x7f\n            /* \"#utility.yul\":5256:5262   */\n          dup3\n            /* \"#utility.yul\":5252:5269   */\n          and\n            /* \"#utility.yul\":5242:5269   */\n          swap2\n          pop\n            /* \"#utility.yul\":5198:5279   */\n        tag_110:\n            /* \"#utility.yul\":5326:5328   */\n          0x20\n            /* \"#utility.yul\":5318:5324   */\n          dup3\n            /* \"#utility.yul\":5315:5329   */\n          lt\n            /* \"#utility.yul\":5295:5313   */\n          dup2\n            /* \"#utility.yul\":5292:5330   */\n          sub\n            /* \"#utility.yul\":5289:5373   */\n          tag_111\n          jumpi\n            /* \"#utility.yul\":5345:5363   */\n          tag_112\n          tag_31\n          jump\t// in\n        tag_112:\n            /* \"#utility.yul\":5289:5373   */\n        tag_111:\n            /* \"#utility.yul\":5110:5379   */\n          pop\n            /* \"#utility.yul\":5059:5379   */\n          swap2\n          swap1\n          pop\n          jump\t// out\n            /* \"#utility.yul\":5385:5526   */\n        tag_33:\n            /* \"#utility.yul\":5434:5438   */\n          0x00\n            /* \"#utility.yul\":5457:5460   */\n          dup2\n            /* \"#utility.yul\":5449:5460   */\n          swap1\n          pop\n            /* \"#utility.yul\":5480:5483   */\n          dup2\n            /* \"#utility.yul\":5477:5478   */\n          0x00\n            /* \"#utility.yul\":5470:5484   */\n          mstore\n            /* \"#utility.yul\":5514:5518   */\n          0x20\n            /* \"#utility.yul\":5511:5512   */\n          0x00\n            /* \"#utility.yul\":5501:5519   */\n          keccak256\n            /* \"#utility.yul\":5493:5519   */\n          swap1\n          pop\n            /* \"#utility.yul\":5385:5526   */\n          swap2\n          swap1\n          pop\n          jump\t// out\n            /* \"#utility.yul\":5532:5625   */\n        tag_34:\n            /* \"#utility.yul\":5569:5575   */\n          0x00\n            /* \"#utility.yul\":5616:5618   */\n          0x20\n            /* \"#utility.yul\":5611:5613   */\n          0x1f\n            /* \"#utility.yul\":5604:5609   */\n          dup4\n            /* \"#utility.yul\":5600:5614   */\n          add\n            /* \"#utility.yul\":5596:5619   */\n          div\n            /* \"#utility.yul\":5586:5619   */\n          swap1\n          pop\n            /* \"#utility.yul\":5532:5625   */\n          swap2\n          swap1\n          pop\n          jump\t// out\n            /* \"#utility.yul\":5631:5738   */\n        tag_35:\n            /* \"#utility.yul\":5675:5683   */\n          0x00\n            /* \"#utility.yul\":5725:5730   */\n          dup3\n            /* \"#utility.yul\":5719:5723   */\n          dup3\n            /* \"#utility.yul\":5715:5731   */\n          shl\n            /* \"#utility.yul\":5694:5731   */\n          swap1\n          pop\n            /* \"#utility.yul\":5631:5738   */\n          swap3\n          swap2\n          pop\n          pop\n          jump\t// out\n            /* \"#utility.yul\":5744:6137   */\n        tag_36:\n            /* \"#utility.yul\":5813:5819   */\n          0x00\n            /* \"#utility.yul\":5863:5864   */\n          0x08\n            /* \"#utility.yul\":5851:5861   */\n          dup4\n            /* \"#utility.yul\":5847:5865   */\n          mul\n            /* \"#utility.yul\":5886:5983   */\n          tag_117\n            /* \"#utility.yul\":5916:5982   */\n          0xffffffffffffffffffffffffffffffffffffffffffffffffffffffffffffffff\n            /* \"#utility.yul\":5905:5914   */\n          dup3\n            /* \"#utility.yul\":5886:5983   */\n          tag_35\n          jump\t// in\n        tag_117:\n            /* \"#utility.yul\":6004:6043   */\n          tag_118\n            /* \"#utility.yul\":6034:6042   */\n          dup7\n            /* \"#utility.yul\":6023:6032   */\n          dup4\n            /* \"#utility.yul\":6004:6043   */\n          tag_35\n          jump\t// in\n        tag_118:\n            /* \"#utility.yul\":5992:6043   */\n          swap6\n          pop\n            /* \"#utility.yul\":6076:6080   */\n          dup1\n            /* \"#utility.yul\":6072:6081   */\n          not\n            /* \"#utility.yul\":6065:6070   */\n          dup5\n            /* \"#utility.yul\":6061:6082   */\n          and\n            /* \"#utility.yul\":6052:6082   */\n          swap4\n          pop\n            /* \"#utility.yul\":6125:6129   */\n          dup1\n            /* \"#utility.yul\":6115:6123   */\n          dup7\n            /* \"#utility.yul\":6111:6130   */\n          and\n            /* \"#utility.yul\":6104:6109   */\n          dup5\n            /* \"#utility.yul\":6101:6131   */\n          or\n            /* \"#utility.yul\":6091:6131   */\n          swap3\n          pop\n            /* \"#utility.yul\":5820:6137   */\n          pop\n          pop\n            /* \"#utility.yul\":5744:6137   */\n          swap4\n          swap3\n          pop\n          pop\n          pop\n          jump\t// out\n            /* \"#utility.yul\":6143:6203   */\n        tag_37:\n            /* \"#utility.yul\":6171:6174   */\n          0x00\n            /* \"#utility.yul\":6192:6197   */\n          dup2\n            /* \"#utility.yul\":6185:6197   */\n          swap1\n          pop\n            /* \"#utility.yul\":6143:6203   */\n          swap2\n          swap1\n          pop\n          jump\t// out\n            /* \"#utility.yul\":6209:6351   */\n        tag_38:\n            /* \"#utility.yul\":6259:6268   */\n          0x00\n            /* \"#utility.yul\":6292:6345   */\n          tag_121\n            /* \"#utility.yul\":6310:6344   */\n          tag_122\n            /* \"#utility.yul\":6319:6343   */\n          tag_123\n            /* \"#utility.yul\":6337:6342   */\n          dup5\n            /* \"#utility.yul\":6319:6343   */\n          tag_13\n          jump\t// in\n        tag_123:\n            /* \"#utility.yul\":6310:6344   */\n          tag_37\n          jump\t// in\n        tag_122:\n            /* \"#utility.yul\":6292:6345   */\n          tag_13\n          jump\t// in\n        tag_121:\n            /* \"#utility.yul\":6279:6345   */\n          swap1\n          pop\n            /* \"#utility.yul\":6209:6351   */\n          swap2\n          swap1\n          pop\n          jump\t// out\n            /* \"#utility.yul\":6357:6432   */\n        tag_39:\n            /* \"#utility.yul\":6400:6403   */\n          0x00\n            /* \"#utility.yul\":6421:6426   */\n          dup2\n            /* \"#utility.yul\":6414:6426   */\n          swap1\n          pop\n            /* \"#utility.yul\":6357:6432   */\n          swap2\n          swap1\n          pop\n          jump\t// out\n            /* \"#utility.yul\":6438:6707   */\n        tag_40:\n            /* \"#utility.yul\":6548:6587   */\n          tag_126\n            /* \"#utility.yul\":6579:6586   */\n          dup4\n            /* \"#utility.yul\":6548:6587   */\n          tag_38\n          jump\t// in\n        tag_126:\n            /* \"#utility.yul\":6609:6700   */\n          tag_127\n            /* \"#utility.yul\":6658:6699   */\n          tag_128\n            /* \"#utility.yul\":6682:6698   */\n          dup3\n            /* \"#utility.yul\":6658:6699   */\n          tag_39\n          jump\t// in\n        tag_128:\n            /* \"#utility.yul\":6650:6656   */\n          dup5\n            /* \"#utility.yul\":6643:6647   */\n          dup5\n            /* \"#utility.yul\":6637:6648   */\n          sload\n            /* \"#utility.yul\":6609:6700   */\n          tag_36\n          jump\t// in\n        tag_127:\n            /* \"#utility.yul\":6603:6607   */\n          dup3\n            /* \"#utility.yul\":6596:6701   */\n          sstore\n            /* \"#utility.yul\":6514:6707   */\n          pop\n            /* \"#utility.yul\":6438:6707   */\n          pop\n          pop\n          pop\n          jump\t// out\n            /* \"#utility.yul\":6713:6786   */\n        tag_41:\n            /* \"#utility.yul\":6758:6761   */\n          0x00\n            /* \"#utility.yul\":6713:6786   */\n          swap1\n          jump\t// out\n            /* \"#utility.yul\":6792:6981   */\n        tag_42:\n            /* \"#utility.yul\":6869:6901   */\n          tag_131\n          tag_41\n          jump\t// in\n        tag_131:\n            /* \"#utility.yul\":6910:6975   */\n          tag_132\n            /* \"#utility.yul\":6968:6974   */\n          dup2\n            /* \"#utility.yul\":6960:6966   */\n          dup5\n            /* \"#utility.yul\":6954:6958   */\n          dup5\n            /* \"#utility.yul\":6910:6975   */\n          tag_40\n          jump\t// in\n        tag_132:\n            /* \"#utility.yul\":6845:6981   */\n          pop\n            /* \"#utility.yul\":6792:6981   */\n          pop\n          pop\n          jump\t// out\n            /* \"#utility.yul\":6987:7173   */\n        tag_43:\n            /* \"#utility.yul\":7047:7167   */\n        tag_134:\n            /* \"#utility.yul\":7064:7067   */\n          dup2\n            /* \"#utility.yul\":7057:7062   */\n          dup2\n            /* \"#utility.yul\":7054:7068   */\n          lt\n            /* \"#utility.yul\":7047:7167   */\n          iszero\n          tag_136\n          jumpi\n            /* \"#utility.yul\":7118:7157   */\n          tag_137\n            /* \"#utility.yul\":7155:7156   */\n          0x00\n            /* \"#utility.yul\":7148:7153   */\n          dup3\n            /* \"#utility.yul\":7118:7157   */\n          tag_42\n          jump\t// in\n        tag_137:\n            /* \"#utility.yul\":7091:7092   */\n          0x01\n            /* \"#utility.yul\":7084:7089   */\n          dup2\n            /* \"#utility.yul\":7080:7093   */\n          add\n            /* \"#utility.yul\":7071:7093   */\n          swap1\n          pop\n            /* \"#utility.yul\":7047:7167   */\n          jump(tag_134)\n        tag_136:\n            /* \"#utility.yul\":6987:7173   */\n          pop\n          pop\n          jump\t// out\n            /* \"#utility.yul\":7179:7722   */\n        tag_44:\n            /* \"#utility.yul\":7280:7282   */\n          0x1f\n            /* \"#utility.yul\":7275:7278   */\n          dup3\n            /* \"#utility.yul\":7272:7283   */\n          gt\n            /* \"#utility.yul\":7269:7715   */\n          iszero\n          tag_139\n          jumpi\n            /* \"#utility.yul\":7314:7352   */\n          tag_140\n            /* \"#utility.yul\":7346:7351   */\n          dup2\n            /* \"#utility.yul\":7314:7352   */\n          tag_33\n          jump\t// in\n        tag_140:\n            /* \"#utility.yul\":7398:7427   */\n          tag_141\n            /* \"#utility.yul\":7416:7426   */\n          dup5\n            /* \"#utility.yul\":7398:7427   */\n          tag_34\n          jump\t// in\n        tag_141:\n            /* \"#utility.yul\":7388:7396   */\n          dup2\n            /* \"#utility.yul\":7384:7428   */\n          add\n            /* \"#utility.yul\":7581:7583   */\n          0x20\n            /* \"#utility.yul\":7569:7579   */\n          dup6\n            /* \"#utility.yul\":7566:7584   */\n          lt\n            /* \"#utility.yul\":7563:7612   */\n          iszero\n          tag_142\n          jumpi\n            /* \"#utility.yul\":7602:7610   */\n          dup2\n            /* \"#utility.yul\":7587:7610   */\n          swap1\n          pop\n            /* \"#utility.yul\":7563:7612   */\n        tag_142:\n            /* \"#utility.yul\":7625:7705   */\n          tag_143\n            /* \"#utility.yul\":7681:7703   */\n          tag_144\n            /* \"#utility.yul\":7699:7702   */\n          dup6\n            /* \"#utility.yul\":7681:7703   */\n          tag_34\n          jump\t// in\n        tag_144:\n            /* \"#utility.yul\":7671:7679   */\n          dup4\n            /* \"#utility.yul\":7667:7704   */\n          add\n            /* \"#utility.yul\":7654:7665   */\n          dup3\n            /* \"#utility.yul\":7625:7705   */\n          tag_43\n          jump\t// in\n        tag_143:\n            /* \"#utility.yul\":7284:7715   */\n          pop\n          pop\n            /* \"#utility.yul\":7269:7715   */\n        tag_139:\n            /* \"#utility.yul\":7179:7722   */\n          pop\n          pop\n          pop\n          jump\t// out\n            /* \"#utility.yul\":7728:7845   */\n        tag_45:\n            /* \"#utility.yul\":7782:7790   */\n          0x00\n            /* \"#utility.yul\":7832:7837   */\n          dup3\n            /* \"#utility.yul\":7826:7830   */\n          dup3\n            /* \"#utility.yul\":7822:7838   */\n          shr\n            /* \"#utility.yul\":7801:7838   */\n          swap1\n          pop\n            /* \"#utility.yul\":7728:7845   */\n          swap3\n          swap2\n          pop\n          pop\n          jump\t// out\n            /* \"#utility.yul\":7851:8020   */\n        tag_46:\n            /* \"#utility.yul\":7895:7901   */\n          0x00\n            /* \"#utility.yul\":7928:7979   */\n          tag_147\n            /* \"#utility.yul\":7976:7977   */\n          0x00\n            /* \"#utility.yul\":7972:7978   */\n          not\n            /* \"#utility.yul\":7964:7969   */\n          dup5\n            /* \"#utility.yul\":7961:7962   */\n          0x08\n            /* \"#utility.yul\":7957:7970   */\n          mul\n            /* \"#utility.yul\":7928:7979   */\n          tag_45\n          jump\t// in\n        tag_147:\n            /* \"#utility.yul\":7924:7980   */\n          not\n            /* \"#utility.yul\":8009:8013   */\n          dup1\n            /* \"#utility.yul\":8003:8007   */\n          dup4\n            /* \"#utility.yul\":7999:8014   */\n          and\n            /* \"#utility.yul\":7989:8014   */\n          swap2\n          pop\n            /* \"#utility.yul\":7902:8020   */\n          pop\n            /* \"#utility.yul\":7851:8020   */\n          swap3\n          swap2\n          pop\n          pop\n          jump\t// out\n            /* \"#utility.yul\":8025:8320   */\n        tag_47:\n            /* \"#utility.yul\":8101:8105   */\n          0x00\n            /* \"#utility.yul\":8247:8276   */\n          tag_149\n            /* \"#utility.yul\":8272:8275   */\n          dup4\n            /* \"#utility.yul\":8266:8270   */\n          dup4\n            /* \"#utility.yul\":8247:8276   */\n          tag_46\n          jump\t// in\n        tag_149:\n            /* \"#utility.yul\":8239:8276   */\n          swap2\n          pop\n            /* \"#utility.yul\":8309:8312   */\n          dup3\n            /* \"#utility.yul\":8306:8307   */\n          0x02\n            /* \"#utility.yul\":8302:8313   */\n          mul\n            /* \"#utility.yul\":8296:8300   */\n          dup3\n            /* \"#utility.yul\":8293:8314   */\n          or\n            /* \"#utility.yul\":8285:8314   */\n          swap1\n          pop\n            /* \"#utility.yul\":8025:8320   */\n          swap3\n          swap2\n          pop\n          pop\n          jump\t// out\n            /* \"#utility.yul\":8325:9720   */\n        tag_7:\n            /* \"#utility.yul\":8442:8479   */\n          tag_151\n            /* \"#utility.yul\":8475:8478   */\n          dup3\n            /* \"#utility.yul\":8442:8479   */\n          tag_30\n          jump\t// in\n        tag_151:\n            /* \"#utility.yul\":8544:8562   */\n          0xffffffffffffffff\n            /* \"#utility.yul\":8536:8542   */\n          dup2\n            /* \"#utility.yul\":8533:8563   */\n          gt\n            /* \"#utility.yul\":8530:8586   */\n          iszero\n          tag_152\n          jumpi\n            /* \"#utility.yul\":8566:8584   */\n          tag_153\n          tag_19\n          jump\t// in\n        tag_153:\n            /* \"#utility.yul\":8530:8586   */\n        tag_152:\n            /* \"#utility.yul\":8610:8648   */\n          tag_154\n            /* \"#utility.yul\":8642:8646   */\n          dup3\n            /* \"#utility.yul\":8636:8647   */\n          sload\n            /* \"#utility.yul\":8610:8648   */\n          tag_32\n          jump\t// in\n        tag_154:\n            /* \"#utility.yul\":8695:8762   */\n          tag_155\n            /* \"#utility.yul\":8755:8761   */\n          dup3\n            /* \"#utility.yul\":8747:8753   */\n          dup3\n            /* \"#utility.yul\":8741:8745   */\n          dup6\n            /* \"#utility.yul\":8695:8762   */\n          tag_44\n          jump\t// in\n        tag_155:\n            /* \"#utility.yul\":8789:8790   */\n          0x00\n            /* \"#utility.yul\":8813:8817   */\n          0x20\n            /* \"#utility.yul\":8800:8817   */\n          swap1\n          pop\n            /* \"#utility.yul\":8845:8847   */\n          0x1f\n            /* \"#utility.yul\":8837:8843   */\n          dup4\n            /* \"#utility.yul\":8834:8848   */\n          gt\n            /* \"#utility.yul\":8862:8863   */\n          0x01\n            /* \"#utility.yul\":8857:9475   */\n          dup2\n          eq\n          tag_157\n          jumpi\n            /* \"#utility.yul\":9519:9520   */\n          0x00\n            /* \"#utility.yul\":9536:9542   */\n          dup5\n            /* \"#utility.yul\":9533:9610   */\n          iszero\n          tag_158\n          jumpi\n            /* \"#utility.yul\":9585:9594   */\n          dup3\n            /* \"#utility.yul\":9580:9583   */\n          dup8\n            /* \"#utility.yul\":9576:9595   */\n          add\n            /* \"#utility.yul\":9570:9596   */\n          mload\n            /* \"#utility.yul\":9561:9596   */\n          swap1\n          pop\n            /* \"#utility.yul\":9533:9610   */\n        tag_158:\n            /* \"#utility.yul\":9636:9703   */\n          tag_159\n            /* \"#utility.yul\":9696:9702   */\n          dup6\n            /* \"#utility.yul\":9689:9694   */\n          dup3\n            /* \"#utility.yul\":9636:9703   */\n          tag_47\n          jump\t// in\n        tag_159:\n            /* \"#utility.yul\":9630:9634   */\n          dup7\n            /* \"#utility.yul\":9623:9704   */\n          sstore\n            /* \"#utility.yul\":9492:9714   */\n          pop\n            /* \"#utility.yul\":8827:9714   */\n          jump(tag_156)\n            /* \"#utility.yul\":8857:9475   */\n        tag_157:\n            /* \"#utility.yul\":8909:8913   */\n          0x1f\n            /* \"#utility.yul\":8905:8914   */\n          not\n            /* \"#utility.yul\":8897:8903   */\n          dup5\n            /* \"#utility.yul\":8893:8915   */\n          and\n            /* \"#utility.yul\":8943:8980   */\n          tag_160\n            /* \"#utility.yul\":8975:8979   */\n          dup7\n            /* \"#utility.yul\":8943:8980   */\n          tag_33\n          jump\t// in\n        tag_160:\n            /* \"#utility.yul\":9002:9003   */\n          0x00\n            /* \"#utility.yul\":9016:9224   */\n        tag_161:\n            /* \"#utility.yul\":9030:9037   */\n          dup3\n            /* \"#utility.yul\":9027:9028   */\n          dup2\n            /* \"#utility.yul\":9024:9038   */\n          lt\n            /* \"#utility.yul\":9016:9224   */\n          iszero\n          tag_163\n          jumpi\n            /* \"#utility.yul\":9109:9118   */\n          dup5\n            /* \"#utility.yul\":9104:9107   */\n          dup10\n            /* \"#utility.yul\":9100:9119   */\n          add\n            /* \"#utility.yul\":9094:9120   */\n          mload\n            /* \"#utility.yul\":9086:9092   */\n          dup3\n            /* \"#utility.yul\":9079:9121   */\n          sstore\n            /* \"#utility.yul\":9160:9161   */\n          0x01\n            /* \"#utility.yul\":9152:9158   */\n          dup3\n            /* \"#utility.yul\":9148:9162   */\n          add\n            /* \"#utility.yul\":9138:9162   */\n          swap2\n          pop\n            /* \"#utility.yul\":9207:9209   */\n          0x20\n            /* \"#utility.yul\":9196:9205   */\n          dup6\n            /* \"#utility.yul\":9192:9210   */\n          add\n            /* \"#utility.yul\":9179:9210   */\n          swap5\n          pop\n            /* \"#utility.yul\":9053:9057   */\n          0x20\n            /* \"#utility.yul\":9050:9051   */\n          dup2\n            /* \"#utility.yul\":9046:9058   */\n          add\n            /* \"#utility.yul\":9041:9058   */\n          swap1\n          pop\n            /* \"#utility.yul\":9016:9224   */\n          jump(tag_161)\n        tag_163:\n            /* \"#utility.yul\":9252:9258   */\n          dup7\n            /* \"#utility.yul\":9243:9250   */\n          dup4\n            /* \"#utility.yul\":9240:9259   */\n          lt\n            /* \"#utility.yul\":9237:9416   */\n          iszero\n          tag_164\n          jumpi\n            /* \"#utility.yul\":9310:9319   */\n          dup5\n            /* \"#utility.yul\":9305:9308   */\n          dup10\n            /* \"#utility.yul\":9301:9320   */\n          add\n            /* \"#utility.yul\":9295:9321   */\n          mload\n            /* \"#utility.yul\":9353:9401   */\n          tag_165\n            /* \"#utility.yul\":9395:9399   */\n          0x1f\n            /* \"#utility.yul\":9387:9393   */\n          dup10\n            /* \"#utility.yul\":9383:9400   */\n          and\n            /* \"#utility.yul\":9372:9381   */\n          dup3\n            /* \"#utility.yul\":9353:9401   */\n          tag_46\n          jump\t// in\n        tag_165:\n            /* \"#utility.yul\":9345:9351   */\n          dup4\n            /* \"#utility.yul\":9338:9402   */\n          sstore\n            /* \"#utility.yul\":9260:9416   */\n          pop\n            /* \"#utility.yul\":9237:9416   */\n        tag_164:\n            /* \"#utility.yul\":9462:9463   */\n          0x01\n            /* \"#utility.yul\":9458:9459   */\n          0x02\n            /* \"#utility.yul\":9450:9456   */\n          dup9\n            /* \"#utility.yul\":9446:9460   */\n          mul\n            /* \"#utility.yul\":9442:9464   */\n          add\n            /* \"#utility.yul\":9436:9440   */\n          dup9\n            /* \"#utility.yul\":9429:9465   */\n          sstore\n            /* \"#utility.yul\":8864:9475   */\n          pop\n          pop\n          pop\n            /* \"#utility.yul\":8827:9714   */\n        tag_156:\n          pop\n            /* \"#utility.yul\":8417:9720   */\n          pop\n          pop\n          pop\n            /* \"#utility.yul\":8325:9720   */\n          pop\n          pop\n          jump\t// out\n            /* \"Campaign.sol\":478:2724  contract Campaign{... */\n        tag_9:\n          dataSize(sub_0)\n          dup1\n          dataOffset(sub_0)\n          0x00\n          codecopy\n          0x00\n          return\n        stop\n\n        sub_0: assembly {\n                /* \"Campaign.sol\":478:2724  contract Campaign{... */\n              mstore(0x40, 0x80)\n              jumpi(tag_1, lt(calldatasize, 0x04))\n              shr(0xe0, calldataload(0x00))\n              dup1\n              0x81d12c58\n              gt\n              tag_15\n              jumpi\n              dup1\n              0x937e09b1\n              gt\n              tag_16\n              jumpi\n              dup1\n              0x937e09b1\n              eq\n              tag_11\n              jumpi\n              dup1\n              0xb309a91a\n              eq\n              tag_12\n              jumpi\n              dup1\n              0xc90422a9\n              eq\n              tag_13\n              jumpi\n              dup1\n              0xd7d1bbdb\n              eq\n              tag_14\n              jumpi\n              jump(tag_1)\n            tag_16:\n              dup1\n              0x81d12c58\n              eq\n              tag_8\n              jumpi\n              dup1\n              0x82fde093\n              eq\n              tag_9\n              jumpi\n              dup1\n              0x8a9cfd55\n              eq\n              tag_10\n              jumpi\n              jump(tag_1)\n            tag_15:\n              dup1\n              0x03441006\n              eq\n              tag_2\n              jumpi\n              dup1\n              0x0a144391\n              eq\n              tag_3\n              jumpi\n              dup1\n              0x4051ddac\n              eq\n              tag_4\n              jumpi\n              dup1\n              0x44d6cf3d\n              eq\n              tag_5\n              jumpi\n              dup1\n              0x481c6a75\n              eq\n              tag_6\n              jumpi\n              dup1\n              0x79de22dd\n              eq\n              tag_7\n              jumpi\n            tag_1:\n              0x00\n              dup1\n              revert\n                /* \"Campaign.sol\":2065:2385  function finalizeRequest(uint index) public restricted {... */\n            tag_2:\n              callvalue\n              dup1\n              iszero\n              tag_17\n              jumpi\n              0x00\n              dup1\n              revert\n            tag_17:\n              pop\n              tag_18\n              0x04\n              dup1\n              calldatasize\n              sub\n              dup2\n              add\n              swap1\n              tag_19\n              swap2\n              swap1\n              tag_20\n              jump\t// in\n            tag_19:\n              tag_21\n              jump\t// in\n            tag_18:\n              stop\n                /* \"Campaign.sol\":863:902  mapping(address=>bool) public approvers */\n            tag_3:\n              callvalue\n              dup1\n              iszero\n              tag_22\n              jumpi\n              0x00\n              dup1\n              revert\n            tag_22:\n              pop\n              tag_23\n              0x04\n              dup1\n              calldatasize\n              sub\n              dup2\n              add\n              swap1\n              tag_24\n              swap2\n              swap1\n              tag_25\n              jump\t// in\n            tag_24:\n              tag_26\n              jump\t// in\n            tag_23:\n              mload(0x40)\n              tag_27\n              swap2\n              swap1\n              tag_28\n              jump\t// in\n            tag_27:\n              mload(0x40)\n              dup1\n              swap2\n              sub\n              swap1\n              return\n                /* \"Campaign.sol\":2491:2716  function getSummary() public view returns(uint,uint,uint,uint,address){... */\n            tag_4:\n              callvalue\n              dup1\n              iszero\n              tag_29\n              jumpi\n              0x00\n              dup1\n              revert\n            tag_29:\n              pop\n              tag_30\n              tag_31\n              jump\t// in\n            tag_30:\n              mload(0x40)\n              tag_32\n              swap6\n              swap5\n              swap4\n              swap3\n              swap2\n              swap1\n              tag_33\n              jump\t// in\n            tag_32:\n              mload(0x40)\n              dup1\n              swap2\n              sub\n              swap1\n              return\n                /* \"Campaign.sol\":703:726  string public campTitle */\n            tag_5:\n              callvalue\n              dup1\n              iszero\n              tag_34\n              jumpi\n              0x00\n              dup1\n              revert\n            tag_34:\n              pop\n              tag_35\n              tag_36\n              jump\t// in\n            tag_35:\n              mload(0x40)\n              tag_37\n              swap2\n              swap1\n              tag_38\n              jump\t// in\n            tag_37:\n              mload(0x40)\n              dup1\n              swap2\n              sub\n              swap1\n              return\n                /* \"Campaign.sol\":767:789  address public manager */\n            tag_6:\n              callvalue\n              dup1\n              iszero\n              tag_39\n              jumpi\n              0x00\n              dup1\n              revert\n            tag_39:\n              pop\n              tag_40\n              tag_41\n              jump\t// in\n            tag_40:\n              mload(0x40)\n              tag_42\n              swap2\n              swap1\n              tag_43\n              jump\t// in\n            tag_42:\n              mload(0x40)\n              dup1\n              swap2\n              sub\n              swap1\n              return\n                /* \"Campaign.sol\":732:761  string public campDescription */\n            tag_7:\n              callvalue\n              dup1\n              iszero\n              tag_44\n              jumpi\n              0x00\n              dup1\n              revert\n            tag_44:\n              pop\n              tag_45\n              tag_46\n              jump\t// in\n            tag_45:\n              mload(0x40)\n              tag_47\n              swap2\n              swap1\n              tag_38\n              jump\t// in\n            tag_47:\n              mload(0x40)\n              dup1\n              swap2\n              sub\n              swap1\n              return\n                /* \"Campaign.sol\":832:857  Request[] public requests */\n            tag_8:\n              callvalue\n              dup1\n              iszero\n              tag_48\n              jumpi\n              0x00\n              dup1\n              revert\n            tag_48:\n              pop\n              tag_49\n              0x04\n              dup1\n              calldatasize\n              sub\n              dup2\n              add\n              swap1\n              tag_50\n              swap2\n              swap1\n              tag_20\n              jump\t// in\n            tag_50:\n              tag_51\n              jump\t// in\n            tag_49:\n              mload(0x40)\n              tag_52\n              swap6\n              swap5\n              swap4\n              swap3\n              swap2\n              swap1\n              tag_53\n              jump\t// in\n            tag_52:\n              mload(0x40)\n              dup1\n              swap2\n              sub\n              swap1\n              return\n                /* \"Campaign.sol\":908:934  uint public approversCount */\n            tag_9:\n              callvalue\n              dup1\n              iszero\n              tag_54\n              jumpi\n              0x00\n              dup1\n              revert\n            tag_54:\n              pop\n              tag_55\n              tag_56\n              jump\t// in\n            tag_55:\n              mload(0x40)\n              tag_57\n              swap2\n              swap1\n              tag_58\n              jump\t// in\n            tag_57:\n              mload(0x40)\n              dup1\n              swap2\n              sub\n              swap1\n              return\n                /* \"Campaign.sol\":1415:1797  function createRequest(string memory description,uint value,address recipient) public restricted {... */\n            tag_10:\n              callvalue\n              dup1\n              iszero\n              tag_59\n              jumpi\n              0x00\n              dup1\n              revert\n            tag_59:\n              pop\n              tag_60\n              0x04\n              dup1\n              calldatasize\n              sub\n              dup2\n              add\n              swap1\n              tag_61\n              swap2\n              swap1\n              tag_62\n              jump\t// in\n            tag_61:\n              tag_63\n              jump\t// in\n            tag_60:\n              stop\n                /* \"Campaign.sol\":795:826  uint public minimumContribution */\n            tag_11:\n              callvalue\n              dup1\n              iszero\n              tag_64\n              jumpi\n              0x00\n              dup1\n              revert\n            tag_64:\n              pop\n              tag_65\n              tag_66\n              jump\t// in\n            tag_65:\n              mload(0x40)\n              tag_67\n              swap2\n              swap1\n              tag_58\n              jump\t// in\n            tag_67:\n              mload(0x40)\n              dup1\n              swap2\n              sub\n              swap1\n              return\n                /* \"Campaign.sol\":1246:1406  function Contribute() public payable{... */\n            tag_12:\n              tag_68\n              tag_69\n              jump\t// in\n            tag_68:\n              stop\n                /* \"Campaign.sol\":2392:2484  function getrequestCounts() public view returns(uint) {... */\n            tag_13:\n              callvalue\n              dup1\n              iszero\n              tag_70\n              jumpi\n              0x00\n              dup1\n              revert\n            tag_70:\n              pop\n              tag_71\n              tag_72\n              jump\t// in\n            tag_71:\n              mload(0x40)\n              tag_73\n              swap2\n              swap1\n              tag_58\n              jump\t// in\n            tag_73:\n              mload(0x40)\n              dup1\n              swap2\n              sub\n              swap1\n              return\n                /* \"Campaign.sol\":1804:2058  function approveRequest(uint index) public {... */\n            tag_14:\n              callvalue\n              dup1\n              iszero\n              tag_74\n              jumpi\n              0x00\n              dup1\n              revert\n            tag_74:\n              pop\n              tag_75\n              0x04\n              dup1\n              calldatasize\n              sub\n              dup2\n              add\n              swap1\n              tag_76\n              swap2\n              swap1\n              tag_20\n              jump\t// in\n            tag_76:\n              tag_77\n              jump\t// in\n            tag_75:\n              stop\n                /* \"Campaign.sol\":2065:2385  function finalizeRequest(uint index) public restricted {... */\n            tag_21:\n                /* \"Campaign.sol\":997:1004  manager */\n              0x02\n              0x00\n              swap1\n              sload\n              swap1\n              0x0100\n              exp\n              swap1\n              div\n              0xffffffffffffffffffffffffffffffffffffffff\n              and\n                /* \"Campaign.sol\":985:1004  msg.sender==manager */\n              0xffffffffffffffffffffffffffffffffffffffff\n              and\n                /* \"Campaign.sol\":985:995  msg.sender */\n              caller\n                /* \"Campaign.sol\":985:1004  msg.sender==manager */\n              0xffffffffffffffffffffffffffffffffffffffff\n              and\n              eq\n                /* \"Campaign.sol\":977:1005  require(msg.sender==manager) */\n              tag_79\n              jumpi\n              0x00\n              dup1\n              revert\n            tag_79:\n                /* \"Campaign.sol\":2150:2158  requests */\n              0x04\n                /* \"Campaign.sol\":2159:2164  index */\n              dup2\n                /* \"Campaign.sol\":2150:2165  requests[index] */\n              dup2\n              sload\n              dup2\n              lt\n              tag_81\n              jumpi\n              tag_82\n              tag_83\n              jump\t// in\n            tag_82:\n            tag_81:\n              swap1\n              0x00\n              mstore\n              keccak256(0x00, 0x20)\n              swap1\n              0x05\n              mul\n              add\n                /* \"Campaign.sol\":2150:2174  requests[index].complete */\n              0x02\n              add\n              0x14\n              swap1\n              sload\n              swap1\n              0x0100\n              exp\n              swap1\n              div\n              0xff\n              and\n                /* \"Campaign.sol\":2149:2174  !requests[index].complete */\n              iszero\n                /* \"Campaign.sol\":2141:2175  require(!requests[index].complete) */\n              tag_85\n              jumpi\n              0x00\n              dup1\n              revert\n            tag_85:\n                /* \"Campaign.sol\":2241:2242  2 */\n              0x02\n                /* \"Campaign.sol\":2226:2240  approversCount */\n              sload(0x06)\n                /* \"Campaign.sol\":2226:2242  approversCount/2 */\n              tag_86\n              swap2\n              swap1\n              tag_87\n              jump\t// in\n            tag_86:\n                /* \"Campaign.sol\":2192:2200  requests */\n              0x04\n                /* \"Campaign.sol\":2201:2206  index */\n              dup3\n                /* \"Campaign.sol\":2192:2207  requests[index] */\n              dup2\n              sload\n              dup2\n              lt\n              tag_88\n              jumpi\n              tag_89\n              tag_83\n              jump\t// in\n            tag_89:\n            tag_88:\n              swap1\n              0x00\n              mstore\n              keccak256(0x00, 0x20)\n              swap1\n              0x05\n              mul\n              add\n                /* \"Campaign.sol\":2192:2221  requests[index].approvalCount */\n              0x04\n              add\n              sload\n                /* \"Campaign.sol\":2192:2243  requests[index].approvalCount >= (approversCount/2) */\n              lt\n              iszero\n                /* \"Campaign.sol\":2184:2244  require(requests[index].approvalCount >= (approversCount/2)) */\n              tag_91\n              jumpi\n              0x00\n              dup1\n              revert\n            tag_91:\n                /* \"Campaign.sol\":2285:2289  true */\n              0x01\n                /* \"Campaign.sol\":2260:2268  requests */\n              0x04\n                /* \"Campaign.sol\":2269:2274  index */\n              dup3\n                /* \"Campaign.sol\":2260:2275  requests[index] */\n              dup2\n              sload\n              dup2\n              lt\n              tag_92\n              jumpi\n              tag_93\n              tag_83\n              jump\t// in\n            tag_93:\n            tag_92:\n              swap1\n              0x00\n              mstore\n              keccak256(0x00, 0x20)\n              swap1\n              0x05\n              mul\n              add\n                /* \"Campaign.sol\":2260:2284  requests[index].complete */\n              0x02\n              add\n              0x14\n                /* \"Campaign.sol\":2260:2289  requests[index].complete=true */\n              0x0100\n              exp\n              dup2\n              sload\n              dup2\n              0xff\n              mul\n              not\n              and\n              swap1\n              dup4\n              iszero\n              iszero\n              mul\n              or\n              swap1\n              sstore\n              pop\n                /* \"Campaign.sol\":2305:2313  requests */\n              0x04\n                /* \"Campaign.sol\":2314:2319  index */\n              dup2\n                /* \"Campaign.sol\":2305:2320  requests[index] */\n              dup2\n              sload\n              dup2\n              lt\n              tag_95\n              jumpi\n              tag_96\n              tag_83\n              jump\t// in\n            tag_96:\n            tag_95:\n              swap1\n              0x00\n              mstore\n              keccak256(0x00, 0x20)\n              swap1\n              0x05\n              mul\n              add\n                /* \"Campaign.sol\":2305:2330  requests[index].recipient */\n              0x02\n              add\n              0x00\n              swap1\n              sload\n              swap1\n              0x0100\n              exp\n              swap1\n              div\n              0xffffffffffffffffffffffffffffffffffffffff\n              and\n                /* \"Campaign.sol\":2297:2340  payable(requests[index].recipient).transfer */\n              0xffffffffffffffffffffffffffffffffffffffff\n              and\n                /* \"Campaign.sol\":2297:2363  payable(requests[index].recipient).transfer(requests[index].value) */\n              0x08fc\n                /* \"Campaign.sol\":2341:2349  requests */\n              0x04\n                /* \"Campaign.sol\":2350:2355  index */\n              dup4\n                /* \"Campaign.sol\":2341:2356  requests[index] */\n              dup2\n              sload\n              dup2\n              lt\n              tag_98\n              jumpi\n              tag_99\n              tag_83\n              jump\t// in\n            tag_99:\n            tag_98:\n              swap1\n              0x00\n              mstore\n              keccak256(0x00, 0x20)\n              swap1\n              0x05\n              mul\n              add\n                /* \"Campaign.sol\":2341:2362  requests[index].value */\n              0x01\n              add\n              sload\n                /* \"Campaign.sol\":2297:2363  payable(requests[index].recipient).transfer(requests[index].value) */\n              swap1\n              dup2\n              iszero\n              mul\n              swap1\n              mload(0x40)\n              0x00\n              mload(0x40)\n              dup1\n              dup4\n              sub\n              dup2\n              dup6\n              dup9\n              dup9\n              call\n              swap4\n              pop\n              pop\n              pop\n              pop\n              iszero\n              dup1\n              iszero\n              tag_102\n              jumpi\n              returndatasize\n              0x00\n              dup1\n              returndatacopy\n              revert(0x00, returndatasize)\n            tag_102:\n              pop\n                /* \"Campaign.sol\":2065:2385  function finalizeRequest(uint index) public restricted {... */\n              pop\n              jump\t// out\n                /* \"Campaign.sol\":863:902  mapping(address=>bool) public approvers */\n            tag_26:\n              mstore(0x20, 0x05)\n              dup1\n              0x00\n              mstore\n              keccak256(0x00, 0x40)\n              0x00\n              swap2\n              pop\n              sload\n              swap1\n              0x0100\n              exp\n              swap1\n              div\n              0xff\n              and\n              dup2\n              jump\t// out\n                /* \"Campaign.sol\":2491:2716  function getSummary() public view returns(uint,uint,uint,uint,address){... */\n            tag_31:\n                /* \"Campaign.sol\":2533:2537  uint */\n              0x00\n                /* \"Campaign.sol\":2538:2542  uint */\n              dup1\n                /* \"Campaign.sol\":2543:2547  uint */\n              0x00\n                /* \"Campaign.sol\":2548:2552  uint */\n              dup1\n                /* \"Campaign.sol\":2553:2560  address */\n              0x00\n                /* \"Campaign.sol\":2585:2604  minimumContribution */\n              sload(0x03)\n                /* \"Campaign.sol\":2613:2634  address(this).balance */\n              selfbalance\n                /* \"Campaign.sol\":2643:2651  requests */\n              0x04\n                /* \"Campaign.sol\":2643:2658  requests.length */\n              dup1\n              sload\n              swap1\n              pop\n                /* \"Campaign.sol\":2667:2681  approversCount */\n              sload(0x06)\n                /* \"Campaign.sol\":2690:2697  manager */\n              0x02\n              0x00\n              swap1\n              sload\n              swap1\n              0x0100\n              exp\n              swap1\n              div\n              0xffffffffffffffffffffffffffffffffffffffff\n              and\n                /* \"Campaign.sol\":2569:2705  return (... */\n              swap5\n              pop\n              swap5\n              pop\n              swap5\n              pop\n              swap5\n              pop\n              swap5\n              pop\n                /* \"Campaign.sol\":2491:2716  function getSummary() public view returns(uint,uint,uint,uint,address){... */\n              swap1\n              swap2\n              swap3\n              swap4\n              swap5\n              jump\t// out\n                /* \"Campaign.sol\":703:726  string public campTitle */\n            tag_36:\n              0x00\n              dup1\n              sload\n              tag_104\n              swap1\n              tag_105\n              jump\t// in\n            tag_104:\n              dup1\n              0x1f\n              add\n              0x20\n              dup1\n              swap2\n              div\n              mul\n              0x20\n              add\n              mload(0x40)\n              swap1\n              dup2\n              add\n              0x40\n              mstore\n              dup1\n              swap3\n              swap2\n              swap1\n              dup2\n              dup2\n              mstore\n              0x20\n              add\n              dup3\n              dup1\n              sload\n              tag_106\n              swap1\n              tag_105\n              jump\t// in\n            tag_106:\n              dup1\n              iszero\n              tag_107\n              jumpi\n              dup1\n              0x1f\n              lt\n              tag_108\n              jumpi\n              0x0100\n              dup1\n              dup4\n              sload\n              div\n              mul\n              dup4\n              mstore\n              swap2\n              0x20\n              add\n              swap2\n              jump(tag_107)\n            tag_108:\n              dup3\n              add\n              swap2\n              swap1\n              0x00\n              mstore\n              keccak256(0x00, 0x20)\n              swap1\n            tag_109:\n              dup2\n              sload\n              dup2\n              mstore\n              swap1\n              0x01\n              add\n              swap1\n              0x20\n              add\n              dup1\n              dup4\n              gt\n              tag_109\n              jumpi\n              dup3\n              swap1\n              sub\n              0x1f\n              and\n              dup3\n              add\n              swap2\n            tag_107:\n              pop\n              pop\n              pop\n              pop\n              pop\n              dup2\n              jump\t// out\n                /* \"Campaign.sol\":767:789  address public manager */\n            tag_41:\n              0x02\n              0x00\n              swap1\n              sload\n              swap1\n              0x0100\n              exp\n              swap1\n              div\n              0xffffffffffffffffffffffffffffffffffffffff\n              and\n              dup2\n              jump\t// out\n                /* \"Campaign.sol\":732:761  string public campDescription */\n            tag_46:\n              0x01\n              dup1\n              sload\n              tag_110\n              swap1\n              tag_105\n              jump\t// in\n            tag_110:\n              dup1\n              0x1f\n              add\n              0x20\n              dup1\n              swap2\n              div\n              mul\n              0x20\n              add\n              mload(0x40)\n              swap1\n              dup2\n              add\n              0x40\n              mstore\n              dup1\n              swap3\n              swap2\n              swap1\n              dup2\n              dup2\n              mstore\n              0x20\n              add\n              dup3\n              dup1\n              sload\n              tag_111\n              swap1\n              tag_105\n              jump\t// in\n            tag_111:\n              dup1\n              iszero\n              tag_112\n              jumpi\n              dup1\n              0x1f\n              lt\n              tag_113\n              jumpi\n              0x0100\n              dup1\n              dup4\n              sload\n              div\n              mul\n              dup4\n              mstore\n              swap2\n              0x20\n              add\n              swap2\n              jump(tag_112)\n            tag_113:\n              dup3\n              add\n              swap2\n              swap1\n              0x00\n              mstore\n              keccak256(0x00, 0x20)\n              swap1\n            tag_114:\n              dup2\n              sload\n              dup2\n              mstore\n              swap1\n              0x01\n              add\n              swap1\n              0x20\n              add\n              dup1\n              dup4\n              gt\n              tag_114\n              jumpi\n              dup3\n              swap1\n              sub\n              0x1f\n              and\n              dup3\n              add\n              swap2\n            tag_112:\n              pop\n              pop\n              pop\n              pop\n              pop\n              dup2\n              jump\t// out\n                /* \"Campaign.sol\":832:857  Request[] public requests */\n            tag_51:\n              0x04\n              dup2\n              dup2\n              sload\n              dup2\n              lt\n              tag_115\n              jumpi\n              0x00\n              dup1\n              revert\n            tag_115:\n              swap1\n              0x00\n              mstore\n              keccak256(0x00, 0x20)\n              swap1\n              0x05\n              mul\n              add\n              0x00\n              swap2\n              pop\n              swap1\n              pop\n              dup1\n              0x00\n              add\n              dup1\n              sload\n              tag_117\n              swap1\n              tag_105\n              jump\t// in\n            tag_117:\n              dup1\n              0x1f\n              add\n              0x20\n              dup1\n              swap2\n              div\n              mul\n              0x20\n              add\n              mload(0x40)\n              swap1\n              dup2\n              add\n              0x40\n              mstore\n              dup1\n              swap3\n              swap2\n              swap1\n              dup2\n              dup2\n              mstore\n              0x20\n              add\n              dup3\n              dup1\n              sload\n              tag_118\n              swap1\n              tag_105\n              jump\t// in\n            tag_118:\n              dup1\n              iszero\n              tag_119\n              jumpi\n              dup1\n              0x1f\n              lt\n              tag_120\n              jumpi\n              0x0100\n              dup1\n              dup4\n              sload\n              div\n              mul\n              dup4\n              mstore\n              swap2\n              0x20\n              add\n              swap2\n              jump(tag_119)\n            tag_120:\n              dup3\n              add\n              swap2\n              swap1\n              0x00\n              mstore\n              keccak256(0x00, 0x20)\n              swap1\n            tag_121:\n              dup2\n              sload\n              dup2\n              mstore\n              swap1\n              0x01\n              add\n              swap1\n              0x20\n              add\n              dup1\n              dup4\n              gt\n              tag_121\n              jumpi\n              dup3\n              swap1\n              sub\n              0x1f\n              and\n              dup3\n              add\n              swap2\n            tag_119:\n              pop\n              pop\n              pop\n              pop\n              pop\n              swap1\n              dup1\n              0x01\n              add\n              sload\n              swap1\n              dup1\n              0x02\n              add\n              0x00\n              swap1\n              sload\n              swap1\n              0x0100\n              exp\n              swap1\n              div\n              0xffffffffffffffffffffffffffffffffffffffff\n              and\n              swap1\n              dup1\n              0x02\n              add\n              0x14\n              swap1\n              sload\n              swap1\n              0x0100\n              exp\n              swap1\n              div\n              0xff\n              and\n              swap1\n              dup1\n              0x04\n              add\n              sload\n              swap1\n              pop\n              dup6\n              jump\t// out\n                /* \"Campaign.sol\":908:934  uint public approversCount */\n            tag_56:\n              sload(0x06)\n              dup2\n              jump\t// out\n                /* \"Campaign.sol\":1415:1797  function createRequest(string memory description,uint value,address recipient) public restricted {... */\n            tag_63:\n                /* \"Campaign.sol\":997:1004  manager */\n              0x02\n              0x00\n              swap1\n              sload\n              swap1\n              0x0100\n              exp\n              swap1\n              div\n              0xffffffffffffffffffffffffffffffffffffffff\n              and\n                /* \"Campaign.sol\":985:1004  msg.sender==manager */\n              0xffffffffffffffffffffffffffffffffffffffff\n              and\n                /* \"Campaign.sol\":985:995  msg.sender */\n              caller\n                /* \"Campaign.sol\":985:1004  msg.sender==manager */\n              0xffffffffffffffffffffffffffffffffffffffff\n              and\n              eq\n                /* \"Campaign.sol\":977:1005  require(msg.sender==manager) */\n              tag_123\n              jumpi\n              0x00\n              dup1\n              revert\n            tag_123:\n                /* \"Campaign.sol\":1525:1551  Request storage newRequest */\n              0x00\n                /* \"Campaign.sol\":1552:1560  requests */\n              0x04\n                /* \"Campaign.sol\":1552:1567  requests.push() */\n              0x01\n              dup2\n              0x01\n              dup2\n              sload\n              add\n              dup1\n              dup3\n              sstore\n              dup1\n              swap2\n              pop\n              pop\n              sub\n              swap1\n              0x00\n              mstore\n              keccak256(0x00, 0x20)\n              swap1\n              0x05\n              mul\n              add\n                /* \"Campaign.sol\":1525:1567  Request storage newRequest=requests.push() */\n              swap1\n              pop\n                /* \"Campaign.sol\":1605:1616  description */\n              dup4\n                /* \"Campaign.sol\":1582:1592  newRequest */\n              dup2\n                /* \"Campaign.sol\":1582:1604  newRequest.description */\n              0x00\n              add\n                /* \"Campaign.sol\":1582:1616  newRequest.description=description */\n              swap1\n              dup2\n              tag_126\n              swap2\n              swap1\n              tag_127\n              jump\t// in\n            tag_126:\n              pop\n                /* \"Campaign.sol\":1648:1653  value */\n              dup3\n                /* \"Campaign.sol\":1631:1641  newRequest */\n              dup2\n                /* \"Campaign.sol\":1631:1647  newRequest.value */\n              0x01\n              add\n                /* \"Campaign.sol\":1631:1653  newRequest.value=value */\n              dup2\n              swap1\n              sstore\n              pop\n                /* \"Campaign.sol\":1689:1698  recipient */\n              dup2\n                /* \"Campaign.sol\":1668:1678  newRequest */\n              dup2\n                /* \"Campaign.sol\":1668:1688  newRequest.recipient */\n              0x02\n              add\n              0x00\n                /* \"Campaign.sol\":1668:1698  newRequest.recipient=recipient */\n              0x0100\n              exp\n              dup2\n              sload\n              dup2\n              0xffffffffffffffffffffffffffffffffffffffff\n              mul\n              not\n              and\n              swap1\n              dup4\n              0xffffffffffffffffffffffffffffffffffffffff\n              and\n              mul\n              or\n              swap1\n              sstore\n              pop\n                /* \"Campaign.sol\":1733:1738  false */\n              0x00\n                /* \"Campaign.sol\":1713:1723  newRequest */\n              dup2\n                /* \"Campaign.sol\":1713:1732  newRequest.complete */\n              0x02\n              add\n              0x14\n                /* \"Campaign.sol\":1713:1738  newRequest.complete=false */\n              0x0100\n              exp\n              dup2\n              sload\n              dup2\n              0xff\n              mul\n              not\n              and\n              swap1\n              dup4\n              iszero\n              iszero\n              mul\n              or\n              swap1\n              sstore\n              pop\n                /* \"Campaign.sol\":1778:1779  0 */\n              0x00\n                /* \"Campaign.sol\":1753:1763  newRequest */\n              dup2\n                /* \"Campaign.sol\":1753:1777  newRequest.approvalCount */\n              0x04\n              add\n                /* \"Campaign.sol\":1753:1779  newRequest.approvalCount=0 */\n              dup2\n              swap1\n              sstore\n              pop\n                /* \"Campaign.sol\":1512:1797  {... */\n              pop\n                /* \"Campaign.sol\":1415:1797  function createRequest(string memory description,uint value,address recipient) public restricted {... */\n              pop\n              pop\n              pop\n              jump\t// out\n                /* \"Campaign.sol\":795:826  uint public minimumContribution */\n            tag_66:\n              sload(0x03)\n              dup2\n              jump\t// out\n                /* \"Campaign.sol\":1246:1406  function Contribute() public payable{... */\n            tag_69:\n                /* \"Campaign.sol\":1311:1330  minimumContribution */\n              sload(0x03)\n                /* \"Campaign.sol\":1299:1308  msg.value */\n              callvalue\n                /* \"Campaign.sol\":1299:1330  msg.value > minimumContribution */\n              gt\n                /* \"Campaign.sol\":1291:1331  require(msg.value > minimumContribution) */\n              tag_129\n              jumpi\n              0x00\n              dup1\n              revert\n            tag_129:\n                /* \"Campaign.sol\":1370:1374  true */\n              0x01\n                /* \"Campaign.sol\":1348:1357  approvers */\n              0x05\n                /* \"Campaign.sol\":1348:1369  approvers[msg.sender] */\n              0x00\n                /* \"Campaign.sol\":1358:1368  msg.sender */\n              caller\n                /* \"Campaign.sol\":1348:1369  approvers[msg.sender] */\n              0xffffffffffffffffffffffffffffffffffffffff\n              and\n              0xffffffffffffffffffffffffffffffffffffffff\n              and\n              dup2\n              mstore\n              0x20\n              add\n              swap1\n              dup2\n              mstore\n              0x20\n              add\n              0x00\n              keccak256\n              0x00\n                /* \"Campaign.sol\":1348:1374  approvers[msg.sender]=true */\n              0x0100\n              exp\n              dup2\n              sload\n              dup2\n              0xff\n              mul\n              not\n              and\n              swap1\n              dup4\n              iszero\n              iszero\n              mul\n              or\n              swap1\n              sstore\n              pop\n                /* \"Campaign.sol\":1383:1397  approversCount */\n              0x06\n              0x00\n                /* \"Campaign.sol\":1383:1399  approversCount++ */\n              dup2\n              sload\n              dup1\n              swap3\n              swap2\n              swap1\n              tag_130\n              swap1\n              tag_131\n              jump\t// in\n            tag_130:\n              swap2\n              swap1\n              pop\n              sstore\n              pop\n                /* \"Campaign.sol\":1246:1406  function Contribute() public payable{... */\n              jump\t// out\n                /* \"Campaign.sol\":2392:2484  function getrequestCounts() public view returns(uint) {... */\n            tag_72:\n                /* \"Campaign.sol\":2440:2444  uint */\n              0x00\n                /* \"Campaign.sol\":2462:2470  requests */\n              0x04\n                /* \"Campaign.sol\":2462:2477  requests.length */\n              dup1\n              sload\n              swap1\n              pop\n                /* \"Campaign.sol\":2455:2477  return requests.length */\n              swap1\n              pop\n                /* \"Campaign.sol\":2392:2484  function getrequestCounts() public view returns(uint) {... */\n              swap1\n              jump\t// out\n                /* \"Campaign.sol\":1804:2058  function approveRequest(uint index) public {... */\n            tag_77:\n                /* \"Campaign.sol\":1854:1877  Request storage request */\n              0x00\n                /* \"Campaign.sol\":1878:1886  requests */\n              0x04\n                /* \"Campaign.sol\":1887:1892  index */\n              dup3\n                /* \"Campaign.sol\":1878:1893  requests[index] */\n              dup2\n              sload\n              dup2\n              lt\n              tag_134\n              jumpi\n              tag_135\n              tag_83\n              jump\t// in\n            tag_135:\n            tag_134:\n              swap1\n              0x00\n              mstore\n              keccak256(0x00, 0x20)\n              swap1\n              0x05\n              mul\n              add\n                /* \"Campaign.sol\":1854:1893  Request storage request=requests[index] */\n              swap1\n              pop\n                /* \"Campaign.sol\":1910:1919  approvers */\n              0x05\n                /* \"Campaign.sol\":1910:1931  approvers[msg.sender] */\n              0x00\n                /* \"Campaign.sol\":1920:1930  msg.sender */\n              caller\n                /* \"Campaign.sol\":1910:1931  approvers[msg.sender] */\n              0xffffffffffffffffffffffffffffffffffffffff\n              and\n              0xffffffffffffffffffffffffffffffffffffffff\n              and\n              dup2\n              mstore\n              0x20\n              add\n              swap1\n              dup2\n              mstore\n              0x20\n              add\n              0x00\n              keccak256\n              0x00\n              swap1\n              sload\n              swap1\n              0x0100\n              exp\n              swap1\n              div\n              0xff\n              and\n                /* \"Campaign.sol\":1902:1932  require(approvers[msg.sender]) */\n              tag_137\n              jumpi\n              0x00\n              dup1\n              revert\n            tag_137:\n                /* \"Campaign.sol\":1948:1955  request */\n              dup1\n                /* \"Campaign.sol\":1948:1965  request.approvals */\n              0x03\n              add\n                /* \"Campaign.sol\":1948:1977  request.approvals[msg.sender] */\n              0x00\n                /* \"Campaign.sol\":1966:1976  msg.sender */\n              caller\n                /* \"Campaign.sol\":1948:1977  request.approvals[msg.sender] */\n              0xffffffffffffffffffffffffffffffffffffffff\n              and\n              0xffffffffffffffffffffffffffffffffffffffff\n              and\n              dup2\n              mstore\n              0x20\n              add\n              swap1\n              dup2\n              mstore\n              0x20\n              add\n              0x00\n              keccak256\n              0x00\n              swap1\n              sload\n              swap1\n              0x0100\n              exp\n              swap1\n              div\n              0xff\n              and\n                /* \"Campaign.sol\":1947:1977  !request.approvals[msg.sender] */\n              iszero\n                /* \"Campaign.sol\":1939:1978  require(!request.approvals[msg.sender]) */\n              tag_138\n              jumpi\n              0x00\n              dup1\n              revert\n            tag_138:\n                /* \"Campaign.sol\":2017:2021  true */\n              0x01\n                /* \"Campaign.sol\":1987:1994  request */\n              dup2\n                /* \"Campaign.sol\":1987:2004  request.approvals */\n              0x03\n              add\n                /* \"Campaign.sol\":1987:2016  request.approvals[msg.sender] */\n              0x00\n                /* \"Campaign.sol\":2005:2015  msg.sender */\n              caller\n                /* \"Campaign.sol\":1987:2016  request.approvals[msg.sender] */\n              0xffffffffffffffffffffffffffffffffffffffff\n              and\n              0xffffffffffffffffffffffffffffffffffffffff\n              and\n              dup2\n              mstore\n              0x20\n              add\n              swap1\n              dup2\n              mstore\n              0x20\n              add\n              0x00\n              keccak256\n              0x00\n                /* \"Campaign.sol\":1987:2021  request.approvals[msg.sender]=true */\n              0x0100\n              exp\n              dup2\n              sload\n              dup2\n              0xff\n              mul\n              not\n              and\n              swap1\n              dup4\n              iszero\n              iszero\n              mul\n              or\n              swap1\n              sstore\n              pop\n                /* \"Campaign.sol\":2028:2035  request */\n              dup1\n                /* \"Campaign.sol\":2028:2049  request.approvalCount */\n              0x04\n              add\n              0x00\n                /* \"Campaign.sol\":2028:2051  request.approvalCount++ */\n              dup2\n              sload\n              dup1\n              swap3\n              swap2\n              swap1\n              tag_139\n              swap1\n              tag_131\n              jump\t// in\n            tag_139:\n              swap2\n              swap1\n              pop\n              sstore\n              pop\n                /* \"Campaign.sol\":1847:2058  {... */\n              pop\n                /* \"Campaign.sol\":1804:2058  function approveRequest(uint index) public {... */\n              pop\n              jump\t// out\n                /* \"#utility.yul\":7:82   */\n            tag_140:\n                /* \"#utility.yul\":40:46   */\n              0x00\n                /* \"#utility.yul\":73:75   */\n              0x40\n                /* \"#utility.yul\":67:76   */\n              mload\n                /* \"#utility.yul\":57:76   */\n              swap1\n              pop\n                /* \"#utility.yul\":7:82   */\n              swap1\n              jump\t// out\n                /* \"#utility.yul\":88:205   */\n            tag_141:\n                /* \"#utility.yul\":197:198   */\n              0x00\n                /* \"#utility.yul\":194:195   */\n              dup1\n                /* \"#utility.yul\":187:199   */\n              revert\n                /* \"#utility.yul\":211:328   */\n            tag_142:\n                /* \"#utility.yul\":320:321   */\n              0x00\n                /* \"#utility.yul\":317:318   */\n              dup1\n                /* \"#utility.yul\":310:322   */\n              revert\n                /* \"#utility.yul\":334:411   */\n            tag_143:\n                /* \"#utility.yul\":371:378   */\n              0x00\n                /* \"#utility.yul\":400:405   */\n              dup2\n                /* \"#utility.yul\":389:405   */\n              swap1\n              pop\n                /* \"#utility.yul\":334:411   */\n              swap2\n              swap1\n              pop\n              jump\t// out\n                /* \"#utility.yul\":417:539   */\n            tag_144:\n                /* \"#utility.yul\":490:514   */\n              tag_192\n                /* \"#utility.yul\":508:513   */\n              dup2\n                /* \"#utility.yul\":490:514   */\n              tag_143\n              jump\t// in\n            tag_192:\n                /* \"#utility.yul\":483:488   */\n              dup2\n                /* \"#utility.yul\":480:515   */\n              eq\n                /* \"#utility.yul\":470:533   */\n              tag_193\n              jumpi\n                /* \"#utility.yul\":529:530   */\n              0x00\n                /* \"#utility.yul\":526:527   */\n              dup1\n                /* \"#utility.yul\":519:531   */\n              revert\n                /* \"#utility.yul\":470:533   */\n            tag_193:\n                /* \"#utility.yul\":417:539   */\n              pop\n              jump\t// out\n                /* \"#utility.yul\":545:684   */\n            tag_145:\n                /* \"#utility.yul\":591:596   */\n              0x00\n                /* \"#utility.yul\":629:635   */\n              dup2\n                /* \"#utility.yul\":616:636   */\n              calldataload\n                /* \"#utility.yul\":607:636   */\n              swap1\n              pop\n                /* \"#utility.yul\":645:678   */\n              tag_195\n                /* \"#utility.yul\":672:677   */\n              dup2\n                /* \"#utility.yul\":645:678   */\n              tag_144\n              jump\t// in\n            tag_195:\n                /* \"#utility.yul\":545:684   */\n              swap3\n              swap2\n              pop\n              pop\n              jump\t// out\n                /* \"#utility.yul\":690:1019   */\n            tag_20:\n                /* \"#utility.yul\":749:755   */\n              0x00\n                /* \"#utility.yul\":798:800   */\n              0x20\n                /* \"#utility.yul\":786:795   */\n              dup3\n                /* \"#utility.yul\":777:784   */\n              dup5\n                /* \"#utility.yul\":773:796   */\n              sub\n                /* \"#utility.yul\":769:801   */\n              slt\n                /* \"#utility.yul\":766:885   */\n              iszero\n              tag_197\n              jumpi\n                /* \"#utility.yul\":804:883   */\n              tag_198\n              tag_141\n              jump\t// in\n            tag_198:\n                /* \"#utility.yul\":766:885   */\n            tag_197:\n                /* \"#utility.yul\":924:925   */\n              0x00\n                /* \"#utility.yul\":949:1002   */\n              tag_199\n                /* \"#utility.yul\":994:1001   */\n              dup5\n                /* \"#utility.yul\":985:991   */\n              dup3\n                /* \"#utility.yul\":974:983   */\n              dup6\n                /* \"#utility.yul\":970:992   */\n              add\n                /* \"#utility.yul\":949:1002   */\n              tag_145\n              jump\t// in\n            tag_199:\n                /* \"#utility.yul\":939:1002   */\n              swap2\n              pop\n                /* \"#utility.yul\":895:1012   */\n              pop\n                /* \"#utility.yul\":690:1019   */\n              swap3\n              swap2\n              pop\n              pop\n              jump\t// out\n                /* \"#utility.yul\":1025:1151   */\n            tag_146:\n                /* \"#utility.yul\":1062:1069   */\n              0x00\n                /* \"#utility.yul\":1102:1144   */\n              0xffffffffffffffffffffffffffffffffffffffff\n                /* \"#utility.yul\":1095:1100   */\n              dup3\n                /* \"#utility.yul\":1091:1145   */\n              and\n                /* \"#utility.yul\":1080:1145   */\n              swap1\n              pop\n                /* \"#utility.yul\":1025:1151   */\n              swap2\n              swap1\n              pop\n              jump\t// out\n                /* \"#utility.yul\":1157:1253   */\n            tag_147:\n                /* \"#utility.yul\":1194:1201   */\n              0x00\n                /* \"#utility.yul\":1223:1247   */\n              tag_202\n                /* \"#utility.yul\":1241:1246   */\n              dup3\n                /* \"#utility.yul\":1223:1247   */\n              tag_146\n              jump\t// in\n            tag_202:\n                /* \"#utility.yul\":1212:1247   */\n              swap1\n              pop\n                /* \"#utility.yul\":1157:1253   */\n              swap2\n              swap1\n              pop\n              jump\t// out\n                /* \"#utility.yul\":1259:1381   */\n            tag_148:\n                /* \"#utility.yul\":1332:1356   */\n              tag_204\n                /* \"#utility.yul\":1350:1355   */\n              dup2\n                /* \"#utility.yul\":1332:1356   */\n              tag_147\n              jump\t// in\n            tag_204:\n                /* \"#utility.yul\":1325:1330   */\n              dup2\n                /* \"#utility.yul\":1322:1357   */\n              eq\n                /* \"#utility.yul\":1312:1375   */\n              tag_205\n              jumpi\n                /* \"#utility.yul\":1371:1372   */\n              0x00\n                /* \"#utility.yul\":1368:1369   */\n              dup1\n                /* \"#utility.yul\":1361:1373   */\n              revert\n                /* \"#utility.yul\":1312:1375   */\n            tag_205:\n                /* \"#utility.yul\":1259:1381   */\n              pop\n              jump\t// out\n                /* \"#utility.yul\":1387:1526   */\n            tag_149:\n                /* \"#utility.yul\":1433:1438   */\n              0x00\n                /* \"#utility.yul\":1471:1477   */\n              dup2\n                /* \"#utility.yul\":1458:1478   */\n              calldataload\n                /* \"#utility.yul\":1449:1478   */\n              swap1\n              pop\n                /* \"#utility.yul\":1487:1520   */\n              tag_207\n                /* \"#utility.yul\":1514:1519   */\n              dup2\n                /* \"#utility.yul\":1487:1520   */\n              tag_148\n              jump\t// in\n            tag_207:\n                /* \"#utility.yul\":1387:1526   */\n              swap3\n              swap2\n              pop\n              pop\n              jump\t// out\n                /* \"#utility.yul\":1532:1861   */\n            tag_25:\n                /* \"#utility.yul\":1591:1597   */\n              0x00\n                /* \"#utility.yul\":1640:1642   */\n              0x20\n                /* \"#utility.yul\":1628:1637   */\n              dup3\n                /* \"#utility.yul\":1619:1626   */\n              dup5\n                /* \"#utility.yul\":1615:1638   */\n              sub\n                /* \"#utility.yul\":1611:1643   */\n              slt\n                /* \"#utility.yul\":1608:1727   */\n              iszero\n              tag_209\n              jumpi\n                /* \"#utility.yul\":1646:1725   */\n              tag_210\n              tag_141\n              jump\t// in\n            tag_210:\n                /* \"#utility.yul\":1608:1727   */\n            tag_209:\n                /* \"#utility.yul\":1766:1767   */\n              0x00\n                /* \"#utility.yul\":1791:1844   */\n              tag_211\n                /* \"#utility.yul\":1836:1843   */\n              dup5\n                /* \"#utility.yul\":1827:1833   */\n              dup3\n                /* \"#utility.yul\":1816:1825   */\n              dup6\n                /* \"#utility.yul\":1812:1834   */\n              add\n                /* \"#utility.yul\":1791:1844   */\n              tag_149\n              jump\t// in\n            tag_211:\n                /* \"#utility.yul\":1781:1844   */\n              swap2\n              pop\n                /* \"#utility.yul\":1737:1854   */\n              pop\n                /* \"#utility.yul\":1532:1861   */\n              swap3\n              swap2\n              pop\n              pop\n              jump\t// out\n                /* \"#utility.yul\":1867:1957   */\n            tag_150:\n                /* \"#utility.yul\":1901:1908   */\n              0x00\n                /* \"#utility.yul\":1944:1949   */\n              dup2\n                /* \"#utility.yul\":1937:1950   */\n              iszero\n                /* \"#utility.yul\":1930:1951   */\n              iszero\n                /* \"#utility.yul\":1919:1951   */\n              swap1\n              pop\n                /* \"#utility.yul\":1867:1957   */\n              swap2\n              swap1\n              pop\n              jump\t// out\n                /* \"#utility.yul\":1963:2072   */\n            tag_151:\n                /* \"#utility.yul\":2044:2065   */\n              tag_214\n                /* \"#utility.yul\":2059:2064   */\n              dup2\n                /* \"#utility.yul\":2044:2065   */\n              tag_150\n              jump\t// in\n            tag_214:\n                /* \"#utility.yul\":2039:2042   */\n              dup3\n                /* \"#utility.yul\":2032:2066   */\n              mstore\n                /* \"#utility.yul\":1963:2072   */\n              pop\n              pop\n              jump\t// out\n                /* \"#utility.yul\":2078:2288   */\n            tag_28:\n                /* \"#utility.yul\":2165:2169   */\n              0x00\n                /* \"#utility.yul\":2203:2205   */\n              0x20\n                /* \"#utility.yul\":2192:2201   */\n              dup3\n                /* \"#utility.yul\":2188:2206   */\n              add\n                /* \"#utility.yul\":2180:2206   */\n              swap1\n              pop\n                /* \"#utility.yul\":2216:2281   */\n              tag_216\n                /* \"#utility.yul\":2278:2279   */\n              0x00\n                /* \"#utility.yul\":2267:2276   */\n              dup4\n                /* \"#utility.yul\":2263:2280   */\n              add\n                /* \"#utility.yul\":2254:2260   */\n              dup5\n                /* \"#utility.yul\":2216:2281   */\n              tag_151\n              jump\t// in\n            tag_216:\n                /* \"#utility.yul\":2078:2288   */\n              swap3\n              swap2\n              pop\n              pop\n              jump\t// out\n                /* \"#utility.yul\":2294:2412   */\n            tag_152:\n                /* \"#utility.yul\":2381:2405   */\n              tag_218\n                /* \"#utility.yul\":2399:2404   */\n              dup2\n                /* \"#utility.yul\":2381:2405   */\n              tag_143\n              jump\t// in\n            tag_218:\n                /* \"#utility.yul\":2376:2379   */\n              dup3\n                /* \"#utility.yul\":2369:2406   */\n              mstore\n                /* \"#utility.yul\":2294:2412   */\n              pop\n              pop\n              jump\t// out\n                /* \"#utility.yul\":2418:2536   */\n            tag_153:\n                /* \"#utility.yul\":2505:2529   */\n              tag_220\n                /* \"#utility.yul\":2523:2528   */\n              dup2\n                /* \"#utility.yul\":2505:2529   */\n              tag_147\n              jump\t// in\n            tag_220:\n                /* \"#utility.yul\":2500:2503   */\n              dup3\n                /* \"#utility.yul\":2493:2530   */\n              mstore\n                /* \"#utility.yul\":2418:2536   */\n              pop\n              pop\n              jump\t// out\n                /* \"#utility.yul\":2542:3206   */\n            tag_33:\n                /* \"#utility.yul\":2747:2751   */\n              0x00\n                /* \"#utility.yul\":2785:2788   */\n              0xa0\n                /* \"#utility.yul\":2774:2783   */\n              dup3\n                /* \"#utility.yul\":2770:2789   */\n              add\n                /* \"#utility.yul\":2762:2789   */\n              swap1\n              pop\n                /* \"#utility.yul\":2799:2870   */\n              tag_222\n                /* \"#utility.yul\":2867:2868   */\n              0x00\n                /* \"#utility.yul\":2856:2865   */\n              dup4\n                /* \"#utility.yul\":2852:2869   */\n              add\n                /* \"#utility.yul\":2843:2849   */\n              dup9\n                /* \"#utility.yul\":2799:2870   */\n              tag_152\n              jump\t// in\n            tag_222:\n                /* \"#utility.yul\":2880:2952   */\n              tag_223\n                /* \"#utility.yul\":2948:2950   */\n              0x20\n                /* \"#utility.yul\":2937:2946   */\n              dup4\n                /* \"#utility.yul\":2933:2951   */\n              add\n                /* \"#utility.yul\":2924:2930   */\n              dup8\n                /* \"#utility.yul\":2880:2952   */\n              tag_152\n              jump\t// in\n            tag_223:\n                /* \"#utility.yul\":2962:3034   */\n              tag_224\n                /* \"#utility.yul\":3030:3032   */\n              0x40\n                /* \"#utility.yul\":3019:3028   */\n              dup4\n                /* \"#utility.yul\":3015:3033   */\n              add\n                /* \"#utility.yul\":3006:3012   */\n              dup7\n                /* \"#utility.yul\":2962:3034   */\n              tag_152\n              jump\t// in\n            tag_224:\n                /* \"#utility.yul\":3044:3116   */\n              tag_225\n                /* \"#utility.yul\":3112:3114   */\n              0x60\n                /* \"#utility.yul\":3101:3110   */\n              dup4\n                /* \"#utility.yul\":3097:3115   */\n              add\n                /* \"#utility.yul\":3088:3094   */\n              dup6\n                /* \"#utility.yul\":3044:3116   */\n              tag_152\n              jump\t// in\n            tag_225:\n                /* \"#utility.yul\":3126:3199   */\n              tag_226\n                /* \"#utility.yul\":3194:3197   */\n              0x80\n                /* \"#utility.yul\":3183:3192   */\n              dup4\n                /* \"#utility.yul\":3179:3198   */\n              add\n                /* \"#utility.yul\":3170:3176   */\n              dup5\n                /* \"#utility.yul\":3126:3199   */\n              tag_153\n              jump\t// in\n            tag_226:\n                /* \"#utility.yul\":2542:3206   */\n              swap7\n              swap6\n              pop\n              pop\n              pop\n              pop\n              pop\n              pop\n              jump\t// out\n                /* \"#utility.yul\":3212:3311   */\n            tag_154:\n                /* \"#utility.yul\":3264:3270   */\n              0x00\n                /* \"#utility.yul\":3298:3303   */\n              dup2\n                /* \"#utility.yul\":3292:3304   */\n              mload\n                /* \"#utility.yul\":3282:3304   */\n              swap1\n              pop\n                /* \"#utility.yul\":3212:3311   */\n              swap2\n              swap1\n              pop\n              jump\t// out\n                /* \"#utility.yul\":3317:3486   */\n            tag_155:\n                /* \"#utility.yul\":3401:3412   */\n              0x00\n                /* \"#utility.yul\":3435:3441   */\n              dup3\n                /* \"#utility.yul\":3430:3433   */\n              dup3\n                /* \"#utility.yul\":3423:3442   */\n              mstore\n                /* \"#utility.yul\":3475:3479   */\n              0x20\n                /* \"#utility.yul\":3470:3473   */\n              dup3\n                /* \"#utility.yul\":3466:3480   */\n              add\n                /* \"#utility.yul\":3451:3480   */\n              swap1\n              pop\n                /* \"#utility.yul\":3317:3486   */\n              swap3\n              swap2\n              pop\n              pop\n              jump\t// out\n                /* \"#utility.yul\":3492:3799   */\n            tag_156:\n                /* \"#utility.yul\":3560:3561   */\n              0x00\n                /* \"#utility.yul\":3570:3683   */\n            tag_230:\n                /* \"#utility.yul\":3584:3590   */\n              dup4\n                /* \"#utility.yul\":3581:3582   */\n              dup2\n                /* \"#utility.yul\":3578:3591   */\n              lt\n                /* \"#utility.yul\":3570:3683   */\n              iszero\n              tag_232\n              jumpi\n                /* \"#utility.yul\":3669:3670   */\n              dup1\n                /* \"#utility.yul\":3664:3667   */\n              dup3\n                /* \"#utility.yul\":3660:3671   */\n              add\n                /* \"#utility.yul\":3654:3672   */\n              mload\n                /* \"#utility.yul\":3650:3651   */\n              dup2\n                /* \"#utility.yul\":3645:3648   */\n              dup5\n                /* \"#utility.yul\":3641:3652   */\n              add\n                /* \"#utility.yul\":3634:3673   */\n              mstore\n                /* \"#utility.yul\":3606:3608   */\n              0x20\n                /* \"#utility.yul\":3603:3604   */\n              dup2\n                /* \"#utility.yul\":3599:3609   */\n              add\n                /* \"#utility.yul\":3594:3609   */\n              swap1\n              pop\n                /* \"#utility.yul\":3570:3683   */\n              jump(tag_230)\n            tag_232:\n                /* \"#utility.yul\":3701:3707   */\n              dup4\n                /* \"#utility.yul\":3698:3699   */\n              dup2\n                /* \"#utility.yul\":3695:3708   */\n              gt\n                /* \"#utility.yul\":3692:3793   */\n              iszero\n              tag_233\n              jumpi\n                /* \"#utility.yul\":3781:3782   */\n              0x00\n                /* \"#utility.yul\":3772:3778   */\n              dup5\n                /* \"#utility.yul\":3767:3770   */\n              dup5\n                /* \"#utility.yul\":3763:3779   */\n              add\n                /* \"#utility.yul\":3756:3783   */\n              mstore\n                /* \"#utility.yul\":3692:3793   */\n            tag_233:\n                /* \"#utility.yul\":3541:3799   */\n              pop\n                /* \"#utility.yul\":3492:3799   */\n              pop\n              pop\n              pop\n              jump\t// out\n                /* \"#utility.yul\":3805:3907   */\n            tag_157:\n                /* \"#utility.yul\":3846:3852   */\n              0x00\n                /* \"#utility.yul\":3897:3899   */\n              0x1f\n                /* \"#utility.yul\":3893:3900   */\n              not\n                /* \"#utility.yul\":3888:3890   */\n              0x1f\n                /* \"#utility.yul\":3881:3886   */\n              dup4\n                /* \"#utility.yul\":3877:3891   */\n              add\n                /* \"#utility.yul\":3873:3901   */\n              and\n                /* \"#utility.yul\":3863:3901   */\n              swap1\n              pop\n                /* \"#utility.yul\":3805:3907   */\n              swap2\n              swap1\n              pop\n              jump\t// out\n                /* \"#utility.yul\":3913:4277   */\n            tag_158:\n                /* \"#utility.yul\":4001:4004   */\n              0x00\n                /* \"#utility.yul\":4029:4068   */\n              tag_236\n                /* \"#utility.yul\":4062:4067   */\n              dup3\n                /* \"#utility.yul\":4029:4068   */\n              tag_154\n              jump\t// in\n            tag_236:\n                /* \"#utility.yul\":4084:4155   */\n              tag_237\n                /* \"#utility.yul\":4148:4154   */\n              dup2\n                /* \"#utility.yul\":4143:4146   */\n              dup6\n                /* \"#utility.yul\":4084:4155   */\n              tag_155\n              jump\t// in\n            tag_237:\n                /* \"#utility.yul\":4077:4155   */\n              swap4\n              pop\n                /* \"#utility.yul\":4164:4216   */\n              tag_238\n                /* \"#utility.yul\":4209:4215   */\n              dup2\n                /* \"#utility.yul\":4204:4207   */\n              dup6\n                /* \"#utility.yul\":4197:4201   */\n              0x20\n                /* \"#utility.yul\":4190:4195   */\n              dup7\n                /* \"#utility.yul\":4186:4202   */\n              add\n                /* \"#utility.yul\":4164:4216   */\n              tag_156\n              jump\t// in\n            tag_238:\n                /* \"#utility.yul\":4241:4270   */\n              tag_239\n                /* \"#utility.yul\":4263:4269   */\n              dup2\n                /* \"#utility.yul\":4241:4270   */\n              tag_157\n              jump\t// in\n            tag_239:\n                /* \"#utility.yul\":4236:4239   */\n              dup5\n                /* \"#utility.yul\":4232:4271   */\n              add\n                /* \"#utility.yul\":4225:4271   */\n              swap2\n              pop\n                /* \"#utility.yul\":4005:4277   */\n              pop\n                /* \"#utility.yul\":3913:4277   */\n              swap3\n              swap2\n              pop\n              pop\n              jump\t// out\n                /* \"#utility.yul\":4283:4596   */\n            tag_38:\n                /* \"#utility.yul\":4396:4400   */\n              0x00\n                /* \"#utility.yul\":4434:4436   */\n              0x20\n                /* \"#utility.yul\":4423:4432   */\n              dup3\n                /* \"#utility.yul\":4419:4437   */\n              add\n                /* \"#utility.yul\":4411:4437   */\n              swap1\n              pop\n                /* \"#utility.yul\":4483:4492   */\n              dup2\n                /* \"#utility.yul\":4477:4481   */\n              dup2\n                /* \"#utility.yul\":4473:4493   */\n              sub\n                /* \"#utility.yul\":4469:4470   */\n              0x00\n                /* \"#utility.yul\":4458:4467   */\n              dup4\n                /* \"#utility.yul\":4454:4471   */\n              add\n                /* \"#utility.yul\":4447:4494   */\n              mstore\n                /* \"#utility.yul\":4511:4589   */\n              tag_241\n                /* \"#utility.yul\":4584:4588   */\n              dup2\n                /* \"#utility.yul\":4575:4581   */\n              dup5\n                /* \"#utility.yul\":4511:4589   */\n              tag_158\n              jump\t// in\n            tag_241:\n                /* \"#utility.yul\":4503:4589   */\n              swap1\n              pop\n                /* \"#utility.yul\":4283:4596   */\n              swap3\n              swap2\n              pop\n              pop\n              jump\t// out\n                /* \"#utility.yul\":4602:4824   */\n            tag_43:\n                /* \"#utility.yul\":4695:4699   */\n              0x00\n                /* \"#utility.yul\":4733:4735   */\n              0x20\n                /* \"#utility.yul\":4722:4731   */\n              dup3\n                /* \"#utility.yul\":4718:4736   */\n              add\n                /* \"#utility.yul\":4710:4736   */\n              swap1\n              pop\n                /* \"#utility.yul\":4746:4817   */\n              tag_243\n                /* \"#utility.yul\":4814:4815   */\n              0x00\n                /* \"#utility.yul\":4803:4812   */\n              dup4\n                /* \"#utility.yul\":4799:4816   */\n              add\n                /* \"#utility.yul\":4790:4796   */\n              dup5\n                /* \"#utility.yul\":4746:4817   */\n              tag_153\n              jump\t// in\n            tag_243:\n                /* \"#utility.yul\":4602:4824   */\n              swap3\n              swap2\n              pop\n              pop\n              jump\t// out\n                /* \"#utility.yul\":4830:5573   */\n            tag_53:\n                /* \"#utility.yul\":5049:5053   */\n              0x00\n                /* \"#utility.yul\":5087:5090   */\n              0xa0\n                /* \"#utility.yul\":5076:5085   */\n              dup3\n                /* \"#utility.yul\":5072:5091   */\n              add\n                /* \"#utility.yul\":5064:5091   */\n              swap1\n              pop\n                /* \"#utility.yul\":5137:5146   */\n              dup2\n                /* \"#utility.yul\":5131:5135   */\n              dup2\n                /* \"#utility.yul\":5127:5147   */\n              sub\n                /* \"#utility.yul\":5123:5124   */\n              0x00\n                /* \"#utility.yul\":5112:5121   */\n              dup4\n                /* \"#utility.yul\":5108:5125   */\n              add\n                /* \"#utility.yul\":5101:5148   */\n              mstore\n                /* \"#utility.yul\":5165:5243   */\n              tag_245\n                /* \"#utility.yul\":5238:5242   */\n              dup2\n                /* \"#utility.yul\":5229:5235   */\n              dup9\n                /* \"#utility.yul\":5165:5243   */\n              tag_158\n              jump\t// in\n            tag_245:\n                /* \"#utility.yul\":5157:5243   */\n              swap1\n              pop\n                /* \"#utility.yul\":5253:5325   */\n              tag_246\n                /* \"#utility.yul\":5321:5323   */\n              0x20\n                /* \"#utility.yul\":5310:5319   */\n              dup4\n                /* \"#utility.yul\":5306:5324   */\n              add\n                /* \"#utility.yul\":5297:5303   */\n              dup8\n                /* \"#utility.yul\":5253:5325   */\n              tag_152\n              jump\t// in\n            tag_246:\n                /* \"#utility.yul\":5335:5407   */\n              tag_247\n                /* \"#utility.yul\":5403:5405   */\n              0x40\n                /* \"#utility.yul\":5392:5401   */\n              dup4\n                /* \"#utility.yul\":5388:5406   */\n              add\n                /* \"#utility.yul\":5379:5385   */\n              dup7\n                /* \"#utility.yul\":5335:5407   */\n              tag_153\n              jump\t// in\n            tag_247:\n                /* \"#utility.yul\":5417:5483   */\n              tag_248\n                /* \"#utility.yul\":5479:5481   */\n              0x60\n                /* \"#utility.yul\":5468:5477   */\n              dup4\n                /* \"#utility.yul\":5464:5482   */\n              add\n                /* \"#utility.yul\":5455:5461   */\n              dup6\n                /* \"#utility.yul\":5417:5483   */\n              tag_151\n              jump\t// in\n            tag_248:\n                /* \"#utility.yul\":5493:5566   */\n              tag_249\n                /* \"#utility.yul\":5561:5564   */\n              0x80\n                /* \"#utility.yul\":5550:5559   */\n              dup4\n                /* \"#utility.yul\":5546:5565   */\n              add\n                /* \"#utility.yul\":5537:5543   */\n              dup5\n                /* \"#utility.yul\":5493:5566   */\n              tag_152\n              jump\t// in\n            tag_249:\n                /* \"#utility.yul\":4830:5573   */\n              swap7\n              swap6\n              pop\n              pop\n              pop\n              pop\n              pop\n              pop\n              jump\t// out\n                /* \"#utility.yul\":5579:5801   */\n            tag_58:\n                /* \"#utility.yul\":5672:5676   */\n              0x00\n                /* \"#utility.yul\":5710:5712   */\n              0x20\n                /* \"#utility.yul\":5699:5708   */\n              dup3\n                /* \"#utility.yul\":5695:5713   */\n              add\n                /* \"#utility.yul\":5687:5713   */\n              swap1\n              pop\n                /* \"#utility.yul\":5723:5794   */\n              tag_251\n                /* \"#utility.yul\":5791:5792   */\n              0x00\n                /* \"#utility.yul\":5780:5789   */\n              dup4\n                /* \"#utility.yul\":5776:5793   */\n              add\n                /* \"#utility.yul\":5767:5773   */\n              dup5\n                /* \"#utility.yul\":5723:5794   */\n              tag_152\n              jump\t// in\n            tag_251:\n                /* \"#utility.yul\":5579:5801   */\n              swap3\n              swap2\n              pop\n              pop\n              jump\t// out\n                /* \"#utility.yul\":5807:5924   */\n            tag_159:\n                /* \"#utility.yul\":5916:5917   */\n              0x00\n                /* \"#utility.yul\":5913:5914   */\n              dup1\n                /* \"#utility.yul\":5906:5918   */\n              revert\n                /* \"#utility.yul\":5930:6047   */\n            tag_160:\n                /* \"#utility.yul\":6039:6040   */\n              0x00\n                /* \"#utility.yul\":6036:6037   */\n              dup1\n                /* \"#utility.yul\":6029:6041   */\n              revert\n                /* \"#utility.yul\":6053:6233   */\n            tag_161:\n                /* \"#utility.yul\":6101:6178   */\n              0x4e487b7100000000000000000000000000000000000000000000000000000000\n                /* \"#utility.yul\":6098:6099   */\n              0x00\n                /* \"#utility.yul\":6091:6179   */\n              mstore\n                /* \"#utility.yul\":6198:6202   */\n              0x41\n                /* \"#utility.yul\":6195:6196   */\n              0x04\n                /* \"#utility.yul\":6188:6203   */\n              mstore\n                /* \"#utility.yul\":6222:6226   */\n              0x24\n                /* \"#utility.yul\":6219:6220   */\n              0x00\n                /* \"#utility.yul\":6212:6227   */\n              revert\n                /* \"#utility.yul\":6239:6520   */\n            tag_162:\n                /* \"#utility.yul\":6322:6349   */\n              tag_256\n                /* \"#utility.yul\":6344:6348   */\n              dup3\n                /* \"#utility.yul\":6322:6349   */\n              tag_157\n              jump\t// in\n            tag_256:\n                /* \"#utility.yul\":6314:6320   */\n              dup2\n                /* \"#utility.yul\":6310:6350   */\n              add\n                /* \"#utility.yul\":6452:6458   */\n              dup2\n                /* \"#utility.yul\":6440:6450   */\n              dup2\n                /* \"#utility.yul\":6437:6459   */\n              lt\n                /* \"#utility.yul\":6416:6434   */\n              0xffffffffffffffff\n                /* \"#utility.yul\":6404:6414   */\n              dup3\n                /* \"#utility.yul\":6401:6435   */\n              gt\n                /* \"#utility.yul\":6398:6460   */\n              or\n                /* \"#utility.yul\":6395:6483   */\n              iszero\n              tag_257\n              jumpi\n                /* \"#utility.yul\":6463:6481   */\n              tag_258\n              tag_161\n              jump\t// in\n            tag_258:\n                /* \"#utility.yul\":6395:6483   */\n            tag_257:\n                /* \"#utility.yul\":6503:6513   */\n              dup1\n                /* \"#utility.yul\":6499:6501   */\n              0x40\n                /* \"#utility.yul\":6492:6514   */\n              mstore\n                /* \"#utility.yul\":6282:6520   */\n              pop\n                /* \"#utility.yul\":6239:6520   */\n              pop\n              pop\n              jump\t// out\n                /* \"#utility.yul\":6526:6655   */\n            tag_163:\n                /* \"#utility.yul\":6560:6566   */\n              0x00\n                /* \"#utility.yul\":6587:6607   */\n              tag_260\n              tag_140\n              jump\t// in\n            tag_260:\n                /* \"#utility.yul\":6577:6607   */\n              swap1\n              pop\n                /* \"#utility.yul\":6616:6649   */\n              tag_261\n                /* \"#utility.yul\":6644:6648   */\n              dup3\n                /* \"#utility.yul\":6636:6642   */\n              dup3\n                /* \"#utility.yul\":6616:6649   */\n              tag_162\n              jump\t// in\n            tag_261:\n                /* \"#utility.yul\":6526:6655   */\n              swap2\n              swap1\n              pop\n              jump\t// out\n                /* \"#utility.yul\":6661:6969   */\n            tag_164:\n                /* \"#utility.yul\":6723:6727   */\n              0x00\n                /* \"#utility.yul\":6813:6831   */\n              0xffffffffffffffff\n                /* \"#utility.yul\":6805:6811   */\n              dup3\n                /* \"#utility.yul\":6802:6832   */\n              gt\n                /* \"#utility.yul\":6799:6855   */\n              iszero\n              tag_263\n              jumpi\n                /* \"#utility.yul\":6835:6853   */\n              tag_264\n              tag_161\n              jump\t// in\n            tag_264:\n                /* \"#utility.yul\":6799:6855   */\n            tag_263:\n                /* \"#utility.yul\":6873:6902   */\n              tag_265\n                /* \"#utility.yul\":6895:6901   */\n              dup3\n                /* \"#utility.yul\":6873:6902   */\n              tag_157\n              jump\t// in\n            tag_265:\n                /* \"#utility.yul\":6865:6902   */\n              swap1\n              pop\n                /* \"#utility.yul\":6957:6961   */\n              0x20\n                /* \"#utility.yul\":6951:6955   */\n              dup2\n                /* \"#utility.yul\":6947:6962   */\n              add\n                /* \"#utility.yul\":6939:6962   */\n              swap1\n              pop\n                /* \"#utility.yul\":6661:6969   */\n              swap2\n              swap1\n              pop\n              jump\t// out\n                /* \"#utility.yul\":6975:7129   */\n            tag_165:\n                /* \"#utility.yul\":7059:7065   */\n              dup3\n                /* \"#utility.yul\":7054:7057   */\n              dup2\n                /* \"#utility.yul\":7049:7052   */\n              dup4\n                /* \"#utility.yul\":7036:7066   */\n              calldatacopy\n                /* \"#utility.yul\":7121:7122   */\n              0x00\n                /* \"#utility.yul\":7112:7118   */\n              dup4\n                /* \"#utility.yul\":7107:7110   */\n              dup4\n                /* \"#utility.yul\":7103:7119   */\n              add\n                /* \"#utility.yul\":7096:7123   */\n              mstore\n                /* \"#utility.yul\":6975:7129   */\n              pop\n              pop\n              pop\n              jump\t// out\n                /* \"#utility.yul\":7135:7547   */\n            tag_166:\n                /* \"#utility.yul\":7213:7218   */\n              0x00\n                /* \"#utility.yul\":7238:7304   */\n              tag_268\n                /* \"#utility.yul\":7254:7303   */\n              tag_269\n                /* \"#utility.yul\":7296:7302   */\n              dup5\n                /* \"#utility.yul\":7254:7303   */\n              tag_164\n              jump\t// in\n            tag_269:\n                /* \"#utility.yul\":7238:7304   */\n              tag_163\n              jump\t// in\n            tag_268:\n                /* \"#utility.yul\":7229:7304   */\n              swap1\n              pop\n                /* \"#utility.yul\":7327:7333   */\n              dup3\n                /* \"#utility.yul\":7320:7325   */\n              dup2\n                /* \"#utility.yul\":7313:7334   */\n              mstore\n                /* \"#utility.yul\":7365:7369   */\n              0x20\n                /* \"#utility.yul\":7358:7363   */\n              dup2\n                /* \"#utility.yul\":7354:7370   */\n              add\n                /* \"#utility.yul\":7403:7406   */\n              dup5\n                /* \"#utility.yul\":7394:7400   */\n              dup5\n                /* \"#utility.yul\":7389:7392   */\n              dup5\n                /* \"#utility.yul\":7385:7401   */\n              add\n                /* \"#utility.yul\":7382:7407   */\n              gt\n                /* \"#utility.yul\":7379:7491   */\n              iszero\n              tag_270\n              jumpi\n                /* \"#utility.yul\":7410:7489   */\n              tag_271\n              tag_160\n              jump\t// in\n            tag_271:\n                /* \"#utility.yul\":7379:7491   */\n            tag_270:\n                /* \"#utility.yul\":7500:7541   */\n              tag_272\n                /* \"#utility.yul\":7534:7540   */\n              dup5\n                /* \"#utility.yul\":7529:7532   */\n              dup3\n                /* \"#utility.yul\":7524:7527   */\n              dup6\n                /* \"#utility.yul\":7500:7541   */\n              tag_165\n              jump\t// in\n            tag_272:\n                /* \"#utility.yul\":7219:7547   */\n              pop\n                /* \"#utility.yul\":7135:7547   */\n              swap4\n              swap3\n              pop\n              pop\n              pop\n              jump\t// out\n                /* \"#utility.yul\":7567:7907   */\n            tag_167:\n                /* \"#utility.yul\":7623:7628   */\n              0x00\n                /* \"#utility.yul\":7672:7675   */\n              dup3\n                /* \"#utility.yul\":7665:7669   */\n              0x1f\n                /* \"#utility.yul\":7657:7663   */\n              dup4\n                /* \"#utility.yul\":7653:7670   */\n              add\n                /* \"#utility.yul\":7649:7676   */\n              slt\n                /* \"#utility.yul\":7639:7761   */\n              tag_274\n              jumpi\n                /* \"#utility.yul\":7680:7759   */\n              tag_275\n              tag_159\n              jump\t// in\n            tag_275:\n                /* \"#utility.yul\":7639:7761   */\n            tag_274:\n                /* \"#utility.yul\":7797:7803   */\n              dup2\n                /* \"#utility.yul\":7784:7804   */\n              calldataload\n                /* \"#utility.yul\":7822:7901   */\n              tag_276\n                /* \"#utility.yul\":7897:7900   */\n              dup5\n                /* \"#utility.yul\":7889:7895   */\n              dup3\n                /* \"#utility.yul\":7882:7886   */\n              0x20\n                /* \"#utility.yul\":7874:7880   */\n              dup7\n                /* \"#utility.yul\":7870:7887   */\n              add\n                /* \"#utility.yul\":7822:7901   */\n              tag_166\n              jump\t// in\n            tag_276:\n                /* \"#utility.yul\":7813:7901   */\n              swap2\n              pop\n                /* \"#utility.yul\":7629:7907   */\n              pop\n                /* \"#utility.yul\":7567:7907   */\n              swap3\n              swap2\n              pop\n              pop\n              jump\t// out\n                /* \"#utility.yul\":7913:8712   */\n            tag_62:\n                /* \"#utility.yul\":8000:8006   */\n              0x00\n                /* \"#utility.yul\":8008:8014   */\n              dup1\n                /* \"#utility.yul\":8016:8022   */\n              0x00\n                /* \"#utility.yul\":8065:8067   */\n              0x60\n                /* \"#utility.yul\":8053:8062   */\n              dup5\n                /* \"#utility.yul\":8044:8051   */\n              dup7\n                /* \"#utility.yul\":8040:8063   */\n              sub\n                /* \"#utility.yul\":8036:8068   */\n              slt\n                /* \"#utility.yul\":8033:8152   */\n              iszero\n              tag_278\n              jumpi\n                /* \"#utility.yul\":8071:8150   */\n              tag_279\n              tag_141\n              jump\t// in\n            tag_279:\n                /* \"#utility.yul\":8033:8152   */\n            tag_278:\n                /* \"#utility.yul\":8219:8220   */\n              0x00\n                /* \"#utility.yul\":8208:8217   */\n              dup5\n                /* \"#utility.yul\":8204:8221   */\n              add\n                /* \"#utility.yul\":8191:8222   */\n              calldataload\n                /* \"#utility.yul\":8249:8267   */\n              0xffffffffffffffff\n                /* \"#utility.yul\":8241:8247   */\n              dup2\n                /* \"#utility.yul\":8238:8268   */\n              gt\n                /* \"#utility.yul\":8235:8352   */\n              iszero\n              tag_280\n              jumpi\n                /* \"#utility.yul\":8271:8350   */\n              tag_281\n              tag_142\n              jump\t// in\n            tag_281:\n                /* \"#utility.yul\":8235:8352   */\n            tag_280:\n                /* \"#utility.yul\":8376:8439   */\n              tag_282\n                /* \"#utility.yul\":8431:8438   */\n              dup7\n                /* \"#utility.yul\":8422:8428   */\n              dup3\n                /* \"#utility.yul\":8411:8420   */\n              dup8\n                /* \"#utility.yul\":8407:8429   */\n              add\n                /* \"#utility.yul\":8376:8439   */\n              tag_167\n              jump\t// in\n            tag_282:\n                /* \"#utility.yul\":8366:8439   */\n              swap4\n              pop\n                /* \"#utility.yul\":8162:8449   */\n              pop\n                /* \"#utility.yul\":8488:8490   */\n              0x20\n                /* \"#utility.yul\":8514:8567   */\n              tag_283\n                /* \"#utility.yul\":8559:8566   */\n              dup7\n                /* \"#utility.yul\":8550:8556   */\n              dup3\n                /* \"#utility.yul\":8539:8548   */\n              dup8\n                /* \"#utility.yul\":8535:8557   */\n              add\n                /* \"#utility.yul\":8514:8567   */\n              tag_145\n              jump\t// in\n            tag_283:\n                /* \"#utility.yul\":8504:8567   */\n              swap3\n              pop\n                /* \"#utility.yul\":8459:8577   */\n              pop\n                /* \"#utility.yul\":8616:8618   */\n              0x40\n                /* \"#utility.yul\":8642:8695   */\n              tag_284\n                /* \"#utility.yul\":8687:8694   */\n              dup7\n                /* \"#utility.yul\":8678:8684   */\n              dup3\n                /* \"#utility.yul\":8667:8676   */\n              dup8\n                /* \"#utility.yul\":8663:8685   */\n              add\n                /* \"#utility.yul\":8642:8695   */\n              tag_149\n              jump\t// in\n            tag_284:\n                /* \"#utility.yul\":8632:8695   */\n              swap2\n              pop\n                /* \"#utility.yul\":8587:8705   */\n              pop\n                /* \"#utility.yul\":7913:8712   */\n              swap3\n              pop\n              swap3\n              pop\n              swap3\n              jump\t// out\n                /* \"#utility.yul\":8718:8898   */\n            tag_83:\n                /* \"#utility.yul\":8766:8843   */\n              0x4e487b7100000000000000000000000000000000000000000000000000000000\n                /* \"#utility.yul\":8763:8764   */\n              0x00\n                /* \"#utility.yul\":8756:8844   */\n              mstore\n                /* \"#utility.yul\":8863:8867   */\n              0x32\n                /* \"#utility.yul\":8860:8861   */\n              0x04\n                /* \"#utility.yul\":8853:8868   */\n              mstore\n                /* \"#utility.yul\":8887:8891   */\n              0x24\n                /* \"#utility.yul\":8884:8885   */\n              0x00\n                /* \"#utility.yul\":8877:8892   */\n              revert\n                /* \"#utility.yul\":8904:9084   */\n            tag_168:\n                /* \"#utility.yul\":8952:9029   */\n              0x4e487b7100000000000000000000000000000000000000000000000000000000\n                /* \"#utility.yul\":8949:8950   */\n              0x00\n                /* \"#utility.yul\":8942:9030   */\n              mstore\n                /* \"#utility.yul\":9049:9053   */\n              0x12\n                /* \"#utility.yul\":9046:9047   */\n              0x04\n                /* \"#utility.yul\":9039:9054   */\n              mstore\n                /* \"#utility.yul\":9073:9077   */\n              0x24\n                /* \"#utility.yul\":9070:9071   */\n              0x00\n                /* \"#utility.yul\":9063:9078   */\n              revert\n                /* \"#utility.yul\":9090:9270   */\n            tag_169:\n                /* \"#utility.yul\":9138:9215   */\n              0x4e487b7100000000000000000000000000000000000000000000000000000000\n                /* \"#utility.yul\":9135:9136   */\n              0x00\n                /* \"#utility.yul\":9128:9216   */\n              mstore\n                /* \"#utility.yul\":9235:9239   */\n              0x11\n                /* \"#utility.yul\":9232:9233   */\n              0x04\n                /* \"#utility.yul\":9225:9240   */\n              mstore\n                /* \"#utility.yul\":9259:9263   */\n              0x24\n                /* \"#utility.yul\":9256:9257   */\n              0x00\n                /* \"#utility.yul\":9249:9264   */\n              revert\n                /* \"#utility.yul\":9276:9461   */\n            tag_87:\n                /* \"#utility.yul\":9316:9317   */\n              0x00\n                /* \"#utility.yul\":9333:9353   */\n              tag_289\n                /* \"#utility.yul\":9351:9352   */\n              dup3\n                /* \"#utility.yul\":9333:9353   */\n              tag_143\n              jump\t// in\n            tag_289:\n                /* \"#utility.yul\":9328:9353   */\n              swap2\n              pop\n                /* \"#utility.yul\":9367:9387   */\n              tag_290\n                /* \"#utility.yul\":9385:9386   */\n              dup4\n                /* \"#utility.yul\":9367:9387   */\n              tag_143\n              jump\t// in\n            tag_290:\n                /* \"#utility.yul\":9362:9387   */\n              swap3\n              pop\n                /* \"#utility.yul\":9406:9407   */\n              dup3\n                /* \"#utility.yul\":9396:9431   */\n              tag_291\n              jumpi\n                /* \"#utility.yul\":9411:9429   */\n              tag_292\n              tag_168\n              jump\t// in\n            tag_292:\n                /* \"#utility.yul\":9396:9431   */\n            tag_291:\n                /* \"#utility.yul\":9453:9454   */\n              dup3\n                /* \"#utility.yul\":9450:9451   */\n              dup3\n                /* \"#utility.yul\":9446:9455   */\n              div\n                /* \"#utility.yul\":9441:9455   */\n              swap1\n              pop\n                /* \"#utility.yul\":9276:9461   */\n              swap3\n              swap2\n              pop\n              pop\n              jump\t// out\n                /* \"#utility.yul\":9467:9647   */\n            tag_170:\n                /* \"#utility.yul\":9515:9592   */\n              0x4e487b7100000000000000000000000000000000000000000000000000000000\n                /* \"#utility.yul\":9512:9513   */\n              0x00\n                /* \"#utility.yul\":9505:9593   */\n              mstore\n                /* \"#utility.yul\":9612:9616   */\n              0x22\n                /* \"#utility.yul\":9609:9610   */\n              0x04\n                /* \"#utility.yul\":9602:9617   */\n              mstore\n                /* \"#utility.yul\":9636:9640   */\n              0x24\n                /* \"#utility.yul\":9633:9634   */\n              0x00\n                /* \"#utility.yul\":9626:9641   */\n              revert\n                /* \"#utility.yul\":9653:9973   */\n            tag_105:\n                /* \"#utility.yul\":9697:9703   */\n              0x00\n                /* \"#utility.yul\":9734:9735   */\n              0x02\n                /* \"#utility.yul\":9728:9732   */\n              dup3\n                /* \"#utility.yul\":9724:9736   */\n              div\n                /* \"#utility.yul\":9714:9736   */\n              swap1\n              pop\n                /* \"#utility.yul\":9781:9782   */\n              0x01\n                /* \"#utility.yul\":9775:9779   */\n              dup3\n                /* \"#utility.yul\":9771:9783   */\n              and\n                /* \"#utility.yul\":9802:9820   */\n              dup1\n                /* \"#utility.yul\":9792:9873   */\n              tag_295\n              jumpi\n                /* \"#utility.yul\":9858:9862   */\n              0x7f\n                /* \"#utility.yul\":9850:9856   */\n              dup3\n                /* \"#utility.yul\":9846:9863   */\n              and\n                /* \"#utility.yul\":9836:9863   */\n              swap2\n              pop\n                /* \"#utility.yul\":9792:9873   */\n            tag_295:\n                /* \"#utility.yul\":9920:9922   */\n              0x20\n                /* \"#utility.yul\":9912:9918   */\n              dup3\n                /* \"#utility.yul\":9909:9923   */\n              lt\n                /* \"#utility.yul\":9889:9907   */\n              dup2\n                /* \"#utility.yul\":9886:9924   */\n              sub\n                /* \"#utility.yul\":9883:9967   */\n              tag_296\n              jumpi\n                /* \"#utility.yul\":9939:9957   */\n              tag_297\n              tag_170\n              jump\t// in\n            tag_297:\n                /* \"#utility.yul\":9883:9967   */\n            tag_296:\n                /* \"#utility.yul\":9704:9973   */\n              pop\n                /* \"#utility.yul\":9653:9973   */\n              swap2\n              swap1\n              pop\n              jump\t// out\n                /* \"#utility.yul\":9979:10120   */\n            tag_171:\n                /* \"#utility.yul\":10028:10032   */\n              0x00\n                /* \"#utility.yul\":10051:10054   */\n              dup2\n                /* \"#utility.yul\":10043:10054   */\n              swap1\n              pop\n                /* \"#utility.yul\":10074:10077   */\n              dup2\n                /* \"#utility.yul\":10071:10072   */\n              0x00\n                /* \"#utility.yul\":10064:10078   */\n              mstore\n                /* \"#utility.yul\":10108:10112   */\n              0x20\n                /* \"#utility.yul\":10105:10106   */\n              0x00\n                /* \"#utility.yul\":10095:10113   */\n              keccak256\n                /* \"#utility.yul\":10087:10113   */\n              swap1\n              pop\n                /* \"#utility.yul\":9979:10120   */\n              swap2\n              swap1\n              pop\n              jump\t// out\n                /* \"#utility.yul\":10126:10219   */\n            tag_172:\n                /* \"#utility.yul\":10163:10169   */\n              0x00\n                /* \"#utility.yul\":10210:10212   */\n              0x20\n                /* \"#utility.yul\":10205:10207   */\n              0x1f\n                /* \"#utility.yul\":10198:10203   */\n              dup4\n                /* \"#utility.yul\":10194:10208   */\n              add\n                /* \"#utility.yul\":10190:10213   */\n              div\n                /* \"#utility.yul\":10180:10213   */\n              swap1\n              pop\n                /* \"#utility.yul\":10126:10219   */\n              swap2\n              swap1\n              pop\n              jump\t// out\n                /* \"#utility.yul\":10225:10332   */\n            tag_173:\n                /* \"#utility.yul\":10269:10277   */\n              0x00\n                /* \"#utility.yul\":10319:10324   */\n              dup3\n                /* \"#utility.yul\":10313:10317   */\n              dup3\n                /* \"#utility.yul\":10309:10325   */\n              shl\n                /* \"#utility.yul\":10288:10325   */\n              swap1\n              pop\n                /* \"#utility.yul\":10225:10332   */\n              swap3\n              swap2\n              pop\n              pop\n              jump\t// out\n                /* \"#utility.yul\":10338:10731   */\n            tag_174:\n                /* \"#utility.yul\":10407:10413   */\n              0x00\n                /* \"#utility.yul\":10457:10458   */\n              0x08\n                /* \"#utility.yul\":10445:10455   */\n              dup4\n                /* \"#utility.yul\":10441:10459   */\n              mul\n                /* \"#utility.yul\":10480:10577   */\n              tag_302\n                /* \"#utility.yul\":10510:10576   */\n              0xffffffffffffffffffffffffffffffffffffffffffffffffffffffffffffffff\n                /* \"#utility.yul\":10499:10508   */\n              dup3\n                /* \"#utility.yul\":10480:10577   */\n              tag_173\n              jump\t// in\n            tag_302:\n                /* \"#utility.yul\":10598:10637   */\n              tag_303\n                /* \"#utility.yul\":10628:10636   */\n              dup7\n                /* \"#utility.yul\":10617:10626   */\n              dup4\n                /* \"#utility.yul\":10598:10637   */\n              tag_173\n              jump\t// in\n            tag_303:\n                /* \"#utility.yul\":10586:10637   */\n              swap6\n              pop\n                /* \"#utility.yul\":10670:10674   */\n              dup1\n                /* \"#utility.yul\":10666:10675   */\n              not\n                /* \"#utility.yul\":10659:10664   */\n              dup5\n                /* \"#utility.yul\":10655:10676   */\n              and\n                /* \"#utility.yul\":10646:10676   */\n              swap4\n              pop\n                /* \"#utility.yul\":10719:10723   */\n              dup1\n                /* \"#utility.yul\":10709:10717   */\n              dup7\n                /* \"#utility.yul\":10705:10724   */\n              and\n                /* \"#utility.yul\":10698:10703   */\n              dup5\n                /* \"#utility.yul\":10695:10725   */\n              or\n                /* \"#utility.yul\":10685:10725   */\n              swap3\n              pop\n                /* \"#utility.yul\":10414:10731   */\n              pop\n              pop\n                /* \"#utility.yul\":10338:10731   */\n              swap4\n              swap3\n              pop\n              pop\n              pop\n              jump\t// out\n                /* \"#utility.yul\":10737:10797   */\n            tag_175:\n                /* \"#utility.yul\":10765:10768   */\n              0x00\n                /* \"#utility.yul\":10786:10791   */\n              dup2\n                /* \"#utility.yul\":10779:10791   */\n              swap1\n              pop\n                /* \"#utility.yul\":10737:10797   */\n              swap2\n              swap1\n              pop\n              jump\t// out\n                /* \"#utility.yul\":10803:10945   */\n            tag_176:\n                /* \"#utility.yul\":10853:10862   */\n              0x00\n                /* \"#utility.yul\":10886:10939   */\n              tag_306\n                /* \"#utility.yul\":10904:10938   */\n              tag_307\n                /* \"#utility.yul\":10913:10937   */\n              tag_308\n                /* \"#utility.yul\":10931:10936   */\n              dup5\n                /* \"#utility.yul\":10913:10937   */\n              tag_143\n              jump\t// in\n            tag_308:\n                /* \"#utility.yul\":10904:10938   */\n              tag_175\n              jump\t// in\n            tag_307:\n                /* \"#utility.yul\":10886:10939   */\n              tag_143\n              jump\t// in\n            tag_306:\n                /* \"#utility.yul\":10873:10939   */\n              swap1\n              pop\n                /* \"#utility.yul\":10803:10945   */\n              swap2\n              swap1\n              pop\n              jump\t// out\n                /* \"#utility.yul\":10951:11026   */\n            tag_177:\n                /* \"#utility.yul\":10994:10997   */\n              0x00\n                /* \"#utility.yul\":11015:11020   */\n              dup2\n                /* \"#utility.yul\":11008:11020   */\n              swap1\n              pop\n                /* \"#utility.yul\":10951:11026   */\n              swap2\n              swap1\n              pop\n              jump\t// out\n                /* \"#utility.yul\":11032:11301   */\n            tag_178:\n                /* \"#utility.yul\":11142:11181   */\n              tag_311\n                /* \"#utility.yul\":11173:11180   */\n              dup4\n                /* \"#utility.yul\":11142:11181   */\n              tag_176\n              jump\t// in\n            tag_311:\n                /* \"#utility.yul\":11203:11294   */\n              tag_312\n                /* \"#utility.yul\":11252:11293   */\n              tag_313\n                /* \"#utility.yul\":11276:11292   */\n              dup3\n                /* \"#utility.yul\":11252:11293   */\n              tag_177\n              jump\t// in\n            tag_313:\n                /* \"#utility.yul\":11244:11250   */\n              dup5\n                /* \"#utility.yul\":11237:11241   */\n              dup5\n                /* \"#utility.yul\":11231:11242   */\n              sload\n                /* \"#utility.yul\":11203:11294   */\n              tag_174\n              jump\t// in\n            tag_312:\n                /* \"#utility.yul\":11197:11201   */\n              dup3\n                /* \"#utility.yul\":11190:11295   */\n              sstore\n                /* \"#utility.yul\":11108:11301   */\n              pop\n                /* \"#utility.yul\":11032:11301   */\n              pop\n              pop\n              pop\n              jump\t// out\n                /* \"#utility.yul\":11307:11380   */\n            tag_179:\n                /* \"#utility.yul\":11352:11355   */\n              0x00\n                /* \"#utility.yul\":11307:11380   */\n              swap1\n              jump\t// out\n                /* \"#utility.yul\":11386:11575   */\n            tag_180:\n                /* \"#utility.yul\":11463:11495   */\n              tag_316\n              tag_179\n              jump\t// in\n            tag_316:\n                /* \"#utility.yul\":11504:11569   */\n              tag_317\n                /* \"#utility.yul\":11562:11568   */\n              dup2\n                /* \"#utility.yul\":11554:11560   */\n              dup5\n                /* \"#utility.yul\":11548:11552   */\n              dup5\n                /* \"#utility.yul\":11504:11569   */\n              tag_178\n              jump\t// in\n            tag_317:\n                /* \"#utility.yul\":11439:11575   */\n              pop\n                /* \"#utility.yul\":11386:11575   */\n              pop\n              pop\n              jump\t// out\n                /* \"#utility.yul\":11581:11767   */\n            tag_181:\n                /* \"#utility.yul\":11641:11761   */\n            tag_319:\n                /* \"#utility.yul\":11658:11661   */\n              dup2\n                /* \"#utility.yul\":11651:11656   */\n              dup2\n                /* \"#utility.yul\":11648:11662   */\n              lt\n                /* \"#utility.yul\":11641:11761   */\n              iszero\n              tag_321\n              jumpi\n                /* \"#utility.yul\":11712:11751   */\n              tag_322\n                /* \"#utility.yul\":11749:11750   */\n              0x00\n                /* \"#utility.yul\":11742:11747   */\n              dup3\n                /* \"#utility.yul\":11712:11751   */\n              tag_180\n              jump\t// in\n            tag_322:\n                /* \"#utility.yul\":11685:11686   */\n              0x01\n                /* \"#utility.yul\":11678:11683   */\n              dup2\n                /* \"#utility.yul\":11674:11687   */\n              add\n                /* \"#utility.yul\":11665:11687   */\n              swap1\n              pop\n                /* \"#utility.yul\":11641:11761   */\n              jump(tag_319)\n            tag_321:\n                /* \"#utility.yul\":11581:11767   */\n              pop\n              pop\n              jump\t// out\n                /* \"#utility.yul\":11773:12316   */\n            tag_182:\n                /* \"#utility.yul\":11874:11876   */\n              0x1f\n                /* \"#utility.yul\":11869:11872   */\n              dup3\n                /* \"#utility.yul\":11866:11877   */\n              gt\n                /* \"#utility.yul\":11863:12309   */\n              iszero\n              tag_324\n              jumpi\n                /* \"#utility.yul\":11908:11946   */\n              tag_325\n                /* \"#utility.yul\":11940:11945   */\n              dup2\n                /* \"#utility.yul\":11908:11946   */\n              tag_171\n              jump\t// in\n            tag_325:\n                /* \"#utility.yul\":11992:12021   */\n              tag_326\n                /* \"#utility.yul\":12010:12020   */\n              dup5\n                /* \"#utility.yul\":11992:12021   */\n              tag_172\n              jump\t// in\n            tag_326:\n                /* \"#utility.yul\":11982:11990   */\n              dup2\n                /* \"#utility.yul\":11978:12022   */\n              add\n                /* \"#utility.yul\":12175:12177   */\n              0x20\n                /* \"#utility.yul\":12163:12173   */\n              dup6\n                /* \"#utility.yul\":12160:12178   */\n              lt\n                /* \"#utility.yul\":12157:12206   */\n              iszero\n              tag_327\n              jumpi\n                /* \"#utility.yul\":12196:12204   */\n              dup2\n                /* \"#utility.yul\":12181:12204   */\n              swap1\n              pop\n                /* \"#utility.yul\":12157:12206   */\n            tag_327:\n                /* \"#utility.yul\":12219:12299   */\n              tag_328\n                /* \"#utility.yul\":12275:12297   */\n              tag_329\n                /* \"#utility.yul\":12293:12296   */\n              dup6\n                /* \"#utility.yul\":12275:12297   */\n              tag_172\n              jump\t// in\n            tag_329:\n                /* \"#utility.yul\":12265:12273   */\n              dup4\n                /* \"#utility.yul\":12261:12298   */\n              add\n                /* \"#utility.yul\":12248:12259   */\n              dup3\n                /* \"#utility.yul\":12219:12299   */\n              tag_181\n              jump\t// in\n            tag_328:\n                /* \"#utility.yul\":11878:12309   */\n              pop\n              pop\n                /* \"#utility.yul\":11863:12309   */\n            tag_324:\n                /* \"#utility.yul\":11773:12316   */\n              pop\n              pop\n              pop\n              jump\t// out\n                /* \"#utility.yul\":12322:12439   */\n            tag_183:\n                /* \"#utility.yul\":12376:12384   */\n              0x00\n                /* \"#utility.yul\":12426:12431   */\n              dup3\n                /* \"#utility.yul\":12420:12424   */\n              dup3\n                /* \"#utility.yul\":12416:12432   */\n              shr\n                /* \"#utility.yul\":12395:12432   */\n              swap1\n              pop\n                /* \"#utility.yul\":12322:12439   */\n              swap3\n              swap2\n              pop\n              pop\n              jump\t// out\n                /* \"#utility.yul\":12445:12614   */\n            tag_184:\n                /* \"#utility.yul\":12489:12495   */\n              0x00\n                /* \"#utility.yul\":12522:12573   */\n              tag_332\n                /* \"#utility.yul\":12570:12571   */\n              0x00\n                /* \"#utility.yul\":12566:12572   */\n              not\n                /* \"#utility.yul\":12558:12563   */\n              dup5\n                /* \"#utility.yul\":12555:12556   */\n              0x08\n                /* \"#utility.yul\":12551:12564   */\n              mul\n                /* \"#utility.yul\":12522:12573   */\n              tag_183\n              jump\t// in\n            tag_332:\n                /* \"#utility.yul\":12518:12574   */\n              not\n                /* \"#utility.yul\":12603:12607   */\n              dup1\n                /* \"#utility.yul\":12597:12601   */\n              dup4\n                /* \"#utility.yul\":12593:12608   */\n              and\n                /* \"#utility.yul\":12583:12608   */\n              swap2\n              pop\n                /* \"#utility.yul\":12496:12614   */\n              pop\n                /* \"#utility.yul\":12445:12614   */\n              swap3\n              swap2\n              pop\n              pop\n              jump\t// out\n                /* \"#utility.yul\":12619:12914   */\n            tag_185:\n                /* \"#utility.yul\":12695:12699   */\n              0x00\n                /* \"#utility.yul\":12841:12870   */\n              tag_334\n                /* \"#utility.yul\":12866:12869   */\n              dup4\n                /* \"#utility.yul\":12860:12864   */\n              dup4\n                /* \"#utility.yul\":12841:12870   */\n              tag_184\n              jump\t// in\n            tag_334:\n                /* \"#utility.yul\":12833:12870   */\n              swap2\n              pop\n                /* \"#utility.yul\":12903:12906   */\n              dup3\n                /* \"#utility.yul\":12900:12901   */\n              0x02\n                /* \"#utility.yul\":12896:12907   */\n              mul\n                /* \"#utility.yul\":12890:12894   */\n              dup3\n                /* \"#utility.yul\":12887:12908   */\n              or\n                /* \"#utility.yul\":12879:12908   */\n              swap1\n              pop\n                /* \"#utility.yul\":12619:12914   */\n              swap3\n              swap2\n              pop\n              pop\n              jump\t// out\n                /* \"#utility.yul\":12919:14314   */\n            tag_127:\n                /* \"#utility.yul\":13036:13073   */\n              tag_336\n                /* \"#utility.yul\":13069:13072   */\n              dup3\n                /* \"#utility.yul\":13036:13073   */\n              tag_154\n              jump\t// in\n            tag_336:\n                /* \"#utility.yul\":13138:13156   */\n              0xffffffffffffffff\n                /* \"#utility.yul\":13130:13136   */\n              dup2\n                /* \"#utility.yul\":13127:13157   */\n              gt\n                /* \"#utility.yul\":13124:13180   */\n              iszero\n              tag_337\n              jumpi\n                /* \"#utility.yul\":13160:13178   */\n              tag_338\n              tag_161\n              jump\t// in\n            tag_338:\n                /* \"#utility.yul\":13124:13180   */\n            tag_337:\n                /* \"#utility.yul\":13204:13242   */\n              tag_339\n                /* \"#utility.yul\":13236:13240   */\n              dup3\n                /* \"#utility.yul\":13230:13241   */\n              sload\n                /* \"#utility.yul\":13204:13242   */\n              tag_105\n              jump\t// in\n            tag_339:\n                /* \"#utility.yul\":13289:13356   */\n              tag_340\n                /* \"#utility.yul\":13349:13355   */\n              dup3\n                /* \"#utility.yul\":13341:13347   */\n              dup3\n                /* \"#utility.yul\":13335:13339   */\n              dup6\n                /* \"#utility.yul\":13289:13356   */\n              tag_182\n              jump\t// in\n            tag_340:\n                /* \"#utility.yul\":13383:13384   */\n              0x00\n                /* \"#utility.yul\":13407:13411   */\n              0x20\n                /* \"#utility.yul\":13394:13411   */\n              swap1\n              pop\n                /* \"#utility.yul\":13439:13441   */\n              0x1f\n                /* \"#utility.yul\":13431:13437   */\n              dup4\n                /* \"#utility.yul\":13428:13442   */\n              gt\n                /* \"#utility.yul\":13456:13457   */\n              0x01\n                /* \"#utility.yul\":13451:14069   */\n              dup2\n              eq\n              tag_342\n              jumpi\n                /* \"#utility.yul\":14113:14114   */\n              0x00\n                /* \"#utility.yul\":14130:14136   */\n              dup5\n                /* \"#utility.yul\":14127:14204   */\n              iszero\n              tag_343\n              jumpi\n                /* \"#utility.yul\":14179:14188   */\n              dup3\n                /* \"#utility.yul\":14174:14177   */\n              dup8\n                /* \"#utility.yul\":14170:14189   */\n              add\n                /* \"#utility.yul\":14164:14190   */\n              mload\n                /* \"#utility.yul\":14155:14190   */\n              swap1\n              pop\n                /* \"#utility.yul\":14127:14204   */\n            tag_343:\n                /* \"#utility.yul\":14230:14297   */\n              tag_344\n                /* \"#utility.yul\":14290:14296   */\n              dup6\n                /* \"#utility.yul\":14283:14288   */\n              dup3\n                /* \"#utility.yul\":14230:14297   */\n              tag_185\n              jump\t// in\n            tag_344:\n                /* \"#utility.yul\":14224:14228   */\n              dup7\n                /* \"#utility.yul\":14217:14298   */\n              sstore\n                /* \"#utility.yul\":14086:14308   */\n              pop\n                /* \"#utility.yul\":13421:14308   */\n              jump(tag_341)\n                /* \"#utility.yul\":13451:14069   */\n            tag_342:\n                /* \"#utility.yul\":13503:13507   */\n              0x1f\n                /* \"#utility.yul\":13499:13508   */\n              not\n                /* \"#utility.yul\":13491:13497   */\n              dup5\n                /* \"#utility.yul\":13487:13509   */\n              and\n                /* \"#utility.yul\":13537:13574   */\n              tag_345\n                /* \"#utility.yul\":13569:13573   */\n              dup7\n                /* \"#utility.yul\":13537:13574   */\n              tag_171\n              jump\t// in\n            tag_345:\n                /* \"#utility.yul\":13596:13597   */\n              0x00\n                /* \"#utility.yul\":13610:13818   */\n            tag_346:\n                /* \"#utility.yul\":13624:13631   */\n              dup3\n                /* \"#utility.yul\":13621:13622   */\n              dup2\n                /* \"#utility.yul\":13618:13632   */\n              lt\n                /* \"#utility.yul\":13610:13818   */\n              iszero\n              tag_348\n              jumpi\n                /* \"#utility.yul\":13703:13712   */\n              dup5\n                /* \"#utility.yul\":13698:13701   */\n              dup10\n                /* \"#utility.yul\":13694:13713   */\n              add\n                /* \"#utility.yul\":13688:13714   */\n              mload\n                /* \"#utility.yul\":13680:13686   */\n              dup3\n                /* \"#utility.yul\":13673:13715   */\n              sstore\n                /* \"#utility.yul\":13754:13755   */\n              0x01\n                /* \"#utility.yul\":13746:13752   */\n              dup3\n                /* \"#utility.yul\":13742:13756   */\n              add\n                /* \"#utility.yul\":13732:13756   */\n              swap2\n              pop\n                /* \"#utility.yul\":13801:13803   */\n              0x20\n                /* \"#utility.yul\":13790:13799   */\n              dup6\n                /* \"#utility.yul\":13786:13804   */\n              add\n                /* \"#utility.yul\":13773:13804   */\n              swap5\n              pop\n                /* \"#utility.yul\":13647:13651   */\n              0x20\n                /* \"#utility.yul\":13644:13645   */\n              dup2\n                /* \"#utility.yul\":13640:13652   */\n              add\n                /* \"#utility.yul\":13635:13652   */\n              swap1\n              pop\n                /* \"#utility.yul\":13610:13818   */\n              jump(tag_346)\n            tag_348:\n                /* \"#utility.yul\":13846:13852   */\n              dup7\n                /* \"#utility.yul\":13837:13844   */\n              dup4\n                /* \"#utility.yul\":13834:13853   */\n              lt\n                /* \"#utility.yul\":13831:14010   */\n              iszero\n              tag_349\n              jumpi\n                /* \"#utility.yul\":13904:13913   */\n              dup5\n                /* \"#utility.yul\":13899:13902   */\n              dup10\n                /* \"#utility.yul\":13895:13914   */\n              add\n                /* \"#utility.yul\":13889:13915   */\n              mload\n                /* \"#utility.yul\":13947:13995   */\n              tag_350\n                /* \"#utility.yul\":13989:13993   */\n              0x1f\n                /* \"#utility.yul\":13981:13987   */\n              dup10\n                /* \"#utility.yul\":13977:13994   */\n              and\n                /* \"#utility.yul\":13966:13975   */\n              dup3\n                /* \"#utility.yul\":13947:13995   */\n              tag_184\n              jump\t// in\n            tag_350:\n                /* \"#utility.yul\":13939:13945   */\n              dup4\n                /* \"#utility.yul\":13932:13996   */\n              sstore\n                /* \"#utility.yul\":13854:14010   */\n              pop\n                /* \"#utility.yul\":13831:14010   */\n            tag_349:\n                /* \"#utility.yul\":14056:14057   */\n              0x01\n                /* \"#utility.yul\":14052:14053   */\n              0x02\n                /* \"#utility.yul\":14044:14050   */\n              dup9\n                /* \"#utility.yul\":14040:14054   */\n              mul\n                /* \"#utility.yul\":14036:14058   */\n              add\n                /* \"#utility.yul\":14030:14034   */\n              dup9\n                /* \"#utility.yul\":14023:14059   */\n              sstore\n                /* \"#utility.yul\":13458:14069   */\n              pop\n              pop\n              pop\n                /* \"#utility.yul\":13421:14308   */\n            tag_341:\n              pop\n                /* \"#utility.yul\":13011:14314   */\n              pop\n              pop\n              pop\n                /* \"#utility.yul\":12919:14314   */\n              pop\n              pop\n              jump\t// out\n                /* \"#utility.yul\":14320:14553   */\n            tag_131:\n                /* \"#utility.yul\":14359:14362   */\n              0x00\n                /* \"#utility.yul\":14382:14406   */\n              tag_352\n                /* \"#utility.yul\":14400:14405   */\n              dup3\n                /* \"#utility.yul\":14382:14406   */\n              tag_143\n              jump\t// in\n            tag_352:\n                /* \"#utility.yul\":14373:14406   */\n              swap2\n              pop\n                /* \"#utility.yul\":14428:14494   */\n              0xffffffffffffffffffffffffffffffffffffffffffffffffffffffffffffffff\n                /* \"#utility.yul\":14421:14426   */\n              dup3\n                /* \"#utility.yul\":14418:14495   */\n              sub\n                /* \"#utility.yul\":14415:14518   */\n              tag_353\n              jumpi\n                /* \"#utility.yul\":14498:14516   */\n              tag_354\n              tag_169\n              jump\t// in\n            tag_354:\n                /* \"#utility.yul\":14415:14518   */\n            tag_353:\n                /* \"#utility.yul\":14545:14546   */\n              0x01\n                /* \"#utility.yul\":14538:14543   */\n              dup3\n                /* \"#utility.yul\":14534:14547   */\n              add\n                /* \"#utility.yul\":14527:14547   */\n              swap1\n              pop\n                /* \"#utility.yul\":14320:14553   */\n              swap2\n              swap1\n              pop\n              jump\t// out\n\n            auxdata: 0xa2646970667358221220f5e309b555d81451ae017685cb92d6870ff231341ee46310b1963d283ea00ba664736f6c634300080f0033\n        }\n    }\n\n    auxdata: 0xa264697066735822122099a68ed5a3239015ff31ae7489aa81bebe3b74bc4ce21f8e8245514acf735efb64736f6c634300080f0033\n}\n","bytecode":{"linkReferences":{},"object":"608060405234801561001057600080fd5b50612155806100206000396000f3fe60806040523480156200001157600080fd5b5060043610620000465760003560e01c8063339d50a5146200004b5780634acb9d4f1462000081578063fad4dee314620000a3575b600080fd5b6200006960048036038101906200006391906200029c565b620000c3565b60405162000078919062000313565b60405180910390f35b6200008b62000103565b6040516200009a9190620003fe565b60405180910390f35b620000c16004803603810190620000bb919062000584565b62000193565b005b60008181548110620000d457600080fd5b906000526020600020016000915054906101000a900473ffffffffffffffffffffffffffffffffffffffff1681565b606060008054806020026020016040519081016040528092919081815260200182805480156200018957602002820191906000526020600020905b8160009054906101000a900473ffffffffffffffffffffffffffffffffffffffff1673ffffffffffffffffffffffffffffffffffffffff16815260200190600101908083116200013e575b5050505050905090565b600083838333604051620001a7906200023f565b620001b69493929190620006e7565b604051809103906000f080158015620001d3573d6000803e3d6000fd5b5090506000819080600181540180825580915050600190039060005260206000200160009091909190916101000a81548173ffffffffffffffffffffffffffffffffffffffff021916908373ffffffffffffffffffffffffffffffffffffffff16021790555050505050565b6119dd806200074383390190565b6000604051905090565b600080fd5b600080fd5b6000819050919050565b620002768162000261565b81146200028257600080fd5b50565b60008135905062000296816200026b565b92915050565b600060208284031215620002b557620002b462000257565b5b6000620002c58482850162000285565b91505092915050565b600073ffffffffffffffffffffffffffffffffffffffff82169050919050565b6000620002fb82620002ce565b9050919050565b6200030d81620002ee565b82525050565b60006020820190506200032a600083018462000302565b92915050565b600081519050919050565b600082825260208201905092915050565b6000819050602082019050919050565b6200036781620002ee565b82525050565b60006200037b83836200035c565b60208301905092915050565b6000602082019050919050565b6000620003a18262000330565b620003ad81856200033b565b9350620003ba836200034c565b8060005b83811015620003f1578151620003d588826200036d565b9750620003e28362000387565b925050600181019050620003be565b5085935050505092915050565b600060208201905081810360008301526200041a818462000394565b905092915050565b600080fd5b600080fd5b6000601f19601f8301169050919050565b7f4e487b7100000000000000000000000000000000000000000000000000000000600052604160045260246000fd5b62000477826200042c565b810181811067ffffffffffffffff821117156200049957620004986200043d565b5b80604052505050565b6000620004ae6200024d565b9050620004bc82826200046c565b919050565b600067ffffffffffffffff821115620004df57620004de6200043d565b5b620004ea826200042c565b9050602081019050919050565b82818337600083830152505050565b60006200051d6200051784620004c1565b620004a2565b9050828152602081018484840111156200053c576200053b62000427565b5b62000549848285620004f7565b509392505050565b600082601f83011262000569576200056862000422565b5b81356200057b84826020860162000506565b91505092915050565b600080600060608486031215620005a0576200059f62000257565b5b6000620005b08682870162000285565b935050602084013567ffffffffffffffff811115620005d457620005d36200025c565b5b620005e28682870162000551565b925050604084013567ffffffffffffffff8111156200060657620006056200025c565b5b620006148682870162000551565b9150509250925092565b620006298162000261565b82525050565b600081519050919050565b600082825260208201905092915050565b60005b838110156200066b5780820151818401526020810190506200064e565b838111156200067b576000848401525b50505050565b60006200068e826200062f565b6200069a81856200063a565b9350620006ac8185602086016200064b565b620006b7816200042c565b840191505092915050565b6000620006cf82620002ce565b9050919050565b620006e181620006c2565b82525050565b6000608082019050620006fe60008301876200061e565b818103602083015262000712818662000681565b9050818103604083015262000728818562000681565b9050620007396060830184620006d6565b9594505050505056fe60806040523480156200001157600080fd5b50604051620019dd380380620019dd8339818101604052810190620000379190620002ea565b80600260006101000a81548173ffffffffffffffffffffffffffffffffffffffff021916908373ffffffffffffffffffffffffffffffffffffffff160217905550836003819055508260009081620000909190620005db565b508160019081620000a29190620005db565b5050505050620006c2565b6000604051905090565b600080fd5b600080fd5b6000819050919050565b620000d681620000c1565b8114620000e257600080fd5b50565b600081519050620000f681620000cb565b92915050565b600080fd5b600080fd5b6000601f19601f8301169050919050565b7f4e487b7100000000000000000000000000000000000000000000000000000000600052604160045260246000fd5b620001518262000106565b810181811067ffffffffffffffff8211171562000173576200017262000117565b5b80604052505050565b600062000188620000ad565b905062000196828262000146565b919050565b600067ffffffffffffffff821115620001b957620001b862000117565b5b620001c48262000106565b9050602081019050919050565b60005b83811015620001f1578082015181840152602081019050620001d4565b8381111562000201576000848401525b50505050565b60006200021e62000218846200019b565b6200017c565b9050828152602081018484840111156200023d576200023c62000101565b5b6200024a848285620001d1565b509392505050565b600082601f8301126200026a5762000269620000fc565b5b81516200027c84826020860162000207565b91505092915050565b600073ffffffffffffffffffffffffffffffffffffffff82169050919050565b6000620002b28262000285565b9050919050565b620002c481620002a5565b8114620002d057600080fd5b50565b600081519050620002e481620002b9565b92915050565b60008060008060808587031215620003075762000306620000b7565b5b60006200031787828801620000e5565b945050602085015167ffffffffffffffff8111156200033b576200033a620000bc565b5b620003498782880162000252565b935050604085015167ffffffffffffffff8111156200036d576200036c620000bc565b5b6200037b8782880162000252565b92505060606200038e87828801620002d3565b91505092959194509250565b600081519050919050565b7f4e487b7100000000000000000000000000000000000000000000000000000000600052602260045260246000fd5b60006002820490506001821680620003ed57607f821691505b602082108103620004035762000402620003a5565b5b50919050565b60008190508160005260206000209050919050565b60006020601f8301049050919050565b600082821b905092915050565b6000600883026200046d7fffffffffffffffffffffffffffffffffffffffffffffffffffffffffffffffff826200042e565b6200047986836200042e565b95508019841693508086168417925050509392505050565b6000819050919050565b6000620004bc620004b6620004b084620000c1565b62000491565b620000c1565b9050919050565b6000819050919050565b620004d8836200049b565b620004f0620004e782620004c3565b8484546200043b565b825550505050565b600090565b62000507620004f8565b62000514818484620004cd565b505050565b5b818110156200053c5762000530600082620004fd565b6001810190506200051a565b5050565b601f8211156200058b57620005558162000409565b62000560846200041e565b8101602085101562000570578190505b620005886200057f856200041e565b83018262000519565b50505b505050565b600082821c905092915050565b6000620005b06000198460080262000590565b1980831691505092915050565b6000620005cb83836200059d565b9150826002028217905092915050565b620005e6826200039a565b67ffffffffffffffff81111562000602576200060162000117565b5b6200060e8254620003d4565b6200061b82828562000540565b600060209050601f8311600181146200065357600084156200063e578287015190505b6200064a8582620005bd565b865550620006ba565b601f198416620006638662000409565b60005b828110156200068d5784890151825560018201915060208501945060208101905062000666565b86831015620006ad5784890151620006a9601f8916826200059d565b8355505b6001600288020188555050505b505050505050565b61130b80620006d26000396000f3fe6080604052600436106100c25760003560e01c806381d12c581161007f578063937e09b111610059578063937e09b114610272578063b309a91a1461029d578063c90422a9146102a7578063d7d1bbdb146102d2576100c2565b806381d12c58146101dd57806382fde0931461021e5780638a9cfd5514610249576100c2565b806303441006146100c75780630a144391146100f05780634051ddac1461012d57806344d6cf3d1461015c578063481c6a751461018757806379de22dd146101b2575b600080fd5b3480156100d357600080fd5b506100ee60048036038101906100e99190610aa3565b6102fb565b005b3480156100fc57600080fd5b5061011760048036038101906101129190610b2e565b6104c4565b6040516101249190610b76565b60405180910390f35b34801561013957600080fd5b506101426104e4565b604051610153959493929190610baf565b60405180910390f35b34801561016857600080fd5b5061017161052d565b60405161017e9190610c9b565b60405180910390f35b34801561019357600080fd5b5061019c6105bb565b6040516101a99190610cbd565b60405180910390f35b3480156101be57600080fd5b506101c76105e1565b6040516101d49190610c9b565b60405180910390f35b3480156101e957600080fd5b5061020460048036038101906101ff9190610aa3565b61066f565b604051610215959493929190610cd8565b60405180910390f35b34801561022a57600080fd5b5061023361076a565b6040516102409190610d32565b60405180910390f35b34801561025557600080fd5b50610270600480360381019061026b9190610e82565b610770565b005b34801561027e57600080fd5b50610287610879565b6040516102949190610d32565b60405180910390f35b6102a561087f565b005b3480156102b357600080fd5b506102bc6108ff565b6040516102c99190610d32565b60405180910390f35b3480156102de57600080fd5b506102f960048036038101906102f49190610aa3565b61090c565b005b600260009054906101000a900473ffffffffffffffffffffffffffffffffffffffff1673ffffffffffffffffffffffffffffffffffffffff163373ffffffffffffffffffffffffffffffffffffffff161461035557600080fd5b6004818154811061036957610368610ef1565b5b906000526020600020906005020160020160149054906101000a900460ff161561039257600080fd5b60026006546103a19190610f7e565b600482815481106103b5576103b4610ef1565b5b90600052602060002090600502016004015410156103d257600080fd5b6001600482815481106103e8576103e7610ef1565b5b906000526020600020906005020160020160146101000a81548160ff0219169083151502179055506004818154811061042457610423610ef1565b5b906000526020600020906005020160020160009054906101000a900473ffffffffffffffffffffffffffffffffffffffff1673ffffffffffffffffffffffffffffffffffffffff166108fc6004838154811061048357610482610ef1565b5b9060005260206000209060050201600101549081150290604051600060405180830381858888f193505050501580156104c0573d6000803e3d6000fd5b5050565b60056020528060005260406000206000915054906101000a900460ff1681565b600080600080600060035447600480549050600654600260009054906101000a900473ffffffffffffffffffffffffffffffffffffffff16945094509450945094509091929394565b6000805461053a90610fde565b80601f016020809104026020016040519081016040528092919081815260200182805461056690610fde565b80156105b35780601f10610588576101008083540402835291602001916105b3565b820191906000526020600020905b81548152906001019060200180831161059657829003601f168201915b505050505081565b600260009054906101000a900473ffffffffffffffffffffffffffffffffffffffff1681565b600180546105ee90610fde565b80601f016020809104026020016040519081016040528092919081815260200182805461061a90610fde565b80156106675780601f1061063c57610100808354040283529160200191610667565b820191906000526020600020905b81548152906001019060200180831161064a57829003601f168201915b505050505081565b6004818154811061067f57600080fd5b90600052602060002090600502016000915090508060000180546106a290610fde565b80601f01602080910402602001604051908101604052809291908181526020018280546106ce90610fde565b801561071b5780601f106106f05761010080835404028352916020019161071b565b820191906000526020600020905b8154815290600101906020018083116106fe57829003601f168201915b5050505050908060010154908060020160009054906101000a900473ffffffffffffffffffffffffffffffffffffffff16908060020160149054906101000a900460ff16908060040154905085565b60065481565b600260009054906101000a900473ffffffffffffffffffffffffffffffffffffffff1673ffffffffffffffffffffffffffffffffffffffff163373ffffffffffffffffffffffffffffffffffffffff16146107ca57600080fd5b600060046001816001815401808255809150500390600052602060002090600502019050838160000190816107ff91906111bb565b50828160010181905550818160020160006101000a81548173ffffffffffffffffffffffffffffffffffffffff021916908373ffffffffffffffffffffffffffffffffffffffff16021790555060008160020160146101000a81548160ff0219169083151502179055506000816004018190555050505050565b60035481565b600354341161088d57600080fd5b6001600560003373ffffffffffffffffffffffffffffffffffffffff1673ffffffffffffffffffffffffffffffffffffffff16815260200190815260200160002060006101000a81548160ff021916908315150217905550600660008154809291906108f89061128d565b9190505550565b6000600480549050905090565b60006004828154811061092257610921610ef1565b5b90600052602060002090600502019050600560003373ffffffffffffffffffffffffffffffffffffffff1673ffffffffffffffffffffffffffffffffffffffff16815260200190815260200160002060009054906101000a900460ff1661098857600080fd5b8060030160003373ffffffffffffffffffffffffffffffffffffffff1673ffffffffffffffffffffffffffffffffffffffff16815260200190815260200160002060009054906101000a900460ff16156109e157600080fd5b60018160030160003373ffffffffffffffffffffffffffffffffffffffff1673ffffffffffffffffffffffffffffffffffffffff16815260200190815260200160002060006101000a81548160ff021916908315150217905550806004016000815480929190610a509061128d565b91905055505050565b6000604051905090565b600080fd5b600080fd5b6000819050919050565b610a8081610a6d565b8114610a8b57600080fd5b50565b600081359050610a9d81610a77565b92915050565b600060208284031215610ab957610ab8610a63565b5b6000610ac784828501610a8e565b91505092915050565b600073ffffffffffffffffffffffffffffffffffffffff82169050919050565b6000610afb82610ad0565b9050919050565b610b0b81610af0565b8114610b1657600080fd5b50565b600081359050610b2881610b02565b92915050565b600060208284031215610b4457610b43610a63565b5b6000610b5284828501610b19565b91505092915050565b60008115159050919050565b610b7081610b5b565b82525050565b6000602082019050610b8b6000830184610b67565b92915050565b610b9a81610a6d565b82525050565b610ba981610af0565b82525050565b600060a082019050610bc46000830188610b91565b610bd16020830187610b91565b610bde6040830186610b91565b610beb6060830185610b91565b610bf86080830184610ba0565b9695505050505050565b600081519050919050565b600082825260208201905092915050565b60005b83811015610c3c578082015181840152602081019050610c21565b83811115610c4b576000848401525b50505050565b6000601f19601f8301169050919050565b6000610c6d82610c02565b610c778185610c0d565b9350610c87818560208601610c1e565b610c9081610c51565b840191505092915050565b60006020820190508181036000830152610cb58184610c62565b905092915050565b6000602082019050610cd26000830184610ba0565b92915050565b600060a0820190508181036000830152610cf28188610c62565b9050610d016020830187610b91565b610d0e6040830186610ba0565b610d1b6060830185610b67565b610d286080830184610b91565b9695505050505050565b6000602082019050610d476000830184610b91565b92915050565b600080fd5b600080fd5b7f4e487b7100000000000000000000000000000000000000000000000000000000600052604160045260246000fd5b610d8f82610c51565b810181811067ffffffffffffffff82111715610dae57610dad610d57565b5b80604052505050565b6000610dc1610a59565b9050610dcd8282610d86565b919050565b600067ffffffffffffffff821115610ded57610dec610d57565b5b610df682610c51565b9050602081019050919050565b82818337600083830152505050565b6000610e25610e2084610dd2565b610db7565b905082815260208101848484011115610e4157610e40610d52565b5b610e4c848285610e03565b509392505050565b600082601f830112610e6957610e68610d4d565b5b8135610e79848260208601610e12565b91505092915050565b600080600060608486031215610e9b57610e9a610a63565b5b600084013567ffffffffffffffff811115610eb957610eb8610a68565b5b610ec586828701610e54565b9350506020610ed686828701610a8e565b9250506040610ee786828701610b19565b9150509250925092565b7f4e487b7100000000000000000000000000000000000000000000000000000000600052603260045260246000fd5b7f4e487b7100000000000000000000000000000000000000000000000000000000600052601260045260246000fd5b7f4e487b7100000000000000000000000000000000000000000000000000000000600052601160045260246000fd5b6000610f8982610a6d565b9150610f9483610a6d565b925082610fa457610fa3610f20565b5b828204905092915050565b7f4e487b7100000000000000000000000000000000000000000000000000000000600052602260045260246000fd5b60006002820490506001821680610ff657607f821691505b60208210810361100957611008610faf565b5b50919050565b60008190508160005260206000209050919050565b60006020601f8301049050919050565b600082821b905092915050565b6000600883026110717fffffffffffffffffffffffffffffffffffffffffffffffffffffffffffffffff82611034565b61107b8683611034565b95508019841693508086168417925050509392505050565b6000819050919050565b60006110b86110b36110ae84610a6d565b611093565b610a6d565b9050919050565b6000819050919050565b6110d28361109d565b6110e66110de826110bf565b848454611041565b825550505050565b600090565b6110fb6110ee565b6111068184846110c9565b505050565b5b8181101561112a5761111f6000826110f3565b60018101905061110c565b5050565b601f82111561116f576111408161100f565b61114984611024565b81016020851015611158578190505b61116c61116485611024565b83018261110b565b50505b505050565b600082821c905092915050565b600061119260001984600802611174565b1980831691505092915050565b60006111ab8383611181565b9150826002028217905092915050565b6111c482610c02565b67ffffffffffffffff8111156111dd576111dc610d57565b5b6111e78254610fde565b6111f282828561112e565b600060209050601f8311600181146112255760008415611213578287015190505b61121d858261119f565b865550611285565b601f1984166112338661100f565b60005b8281101561125b57848901518255600182019150602085019450602081019050611236565b868310156112785784890151611274601f891682611181565b8355505b6001600288020188555050505b505050505050565b600061129882610a6d565b91507fffffffffffffffffffffffffffffffffffffffffffffffffffffffffffffffff82036112ca576112c9610f4f565b5b60018201905091905056fea2646970667358221220f5e309b555d81451ae017685cb92d6870ff231341ee46310b1963d283ea00ba664736f6c634300080f0033a264697066735822122099a68ed5a3239015ff31ae7489aa81bebe3b74bc4ce21f8e8245514acf735efb64736f6c634300080f0033","opcodes":"PUSH1 0x80 PUSH1 0x40 MSTORE CALLVALUE DUP1 ISZERO PUSH2 0x10 JUMPI PUSH1 0x0 DUP1 REVERT JUMPDEST POP PUSH2 0x2155 DUP1 PUSH2 0x20 PUSH1 0x0 CODECOPY PUSH1 0x0 RETURN INVALID PUSH1 0x80 PUSH1 0x40 MSTORE CALLVALUE DUP1 ISZERO PUSH3 0x11 JUMPI PUSH1 0x0 DUP1 REVERT JUMPDEST POP PUSH1 0x4 CALLDATASIZE LT PUSH3 0x46 JUMPI PUSH1 0x0 CALLDATALOAD PUSH1 0xE0 SHR DUP1 PUSH4 0x339D50A5 EQ PUSH3 0x4B JUMPI DUP1 PUSH4 0x4ACB9D4F EQ PUSH3 0x81 JUMPI DUP1 PUSH4 0xFAD4DEE3 EQ PUSH3 0xA3 JUMPI JUMPDEST PUSH1 0x0 DUP1 REVERT JUMPDEST PUSH3 0x69 PUSH1 0x4 DUP1 CALLDATASIZE SUB DUP2 ADD SWAP1 PUSH3 0x63 SWAP2 SWAP1 PUSH3 0x29C JUMP JUMPDEST PUSH3 0xC3 JUMP JUMPDEST PUSH1 0x40 MLOAD PUSH3 0x78 SWAP2 SWAP1 PUSH3 0x313 JUMP JUMPDEST PUSH1 0x40 MLOAD DUP1 SWAP2 SUB SWAP1 RETURN JUMPDEST PUSH3 0x8B PUSH3 0x103 JUMP JUMPDEST PUSH1 0x40 MLOAD PUSH3 0x9A SWAP2 SWAP1 PUSH3 0x3FE JUMP JUMPDEST PUSH1 0x40 MLOAD DUP1 SWAP2 SUB SWAP1 RETURN JUMPDEST PUSH3 0xC1 PUSH1 0x4 DUP1 CALLDATASIZE SUB DUP2 ADD SWAP1 PUSH3 0xBB SWAP2 SWAP1 PUSH3 0x584 JUMP JUMPDEST PUSH3 0x193 JUMP JUMPDEST STOP JUMPDEST PUSH1 0x0 DUP2 DUP2 SLOAD DUP2 LT PUSH3 0xD4 JUMPI PUSH1 0x0 DUP1 REVERT JUMPDEST SWAP1 PUSH1 0x0 MSTORE PUSH1 0x20 PUSH1 0x0 KECCAK256 ADD PUSH1 0x0 SWAP2 POP SLOAD SWAP1 PUSH2 0x100 EXP SWAP1 DIV PUSH20 0xFFFFFFFFFFFFFFFFFFFFFFFFFFFFFFFFFFFFFFFF AND DUP2 JUMP JUMPDEST PUSH1 0x60 PUSH1 0x0 DUP1 SLOAD DUP1 PUSH1 0x20 MUL PUSH1 0x20 ADD PUSH1 0x40 MLOAD SWAP1 DUP2 ADD PUSH1 0x40 MSTORE DUP1 SWAP3 SWAP2 SWAP1 DUP2 DUP2 MSTORE PUSH1 0x20 ADD DUP3 DUP1 SLOAD DUP1 ISZERO PUSH3 0x189 JUMPI PUSH1 0x20 MUL DUP3 ADD SWAP2 SWAP1 PUSH1 0x0 MSTORE PUSH1 0x20 PUSH1 0x0 KECCAK256 SWAP1 JUMPDEST DUP2 PUSH1 0x0 SWAP1 SLOAD SWAP1 PUSH2 0x100 EXP SWAP1 DIV PUSH20 0xFFFFFFFFFFFFFFFFFFFFFFFFFFFFFFFFFFFFFFFF AND PUSH20 0xFFFFFFFFFFFFFFFFFFFFFFFFFFFFFFFFFFFFFFFF AND DUP2 MSTORE PUSH1 0x20 ADD SWAP1 PUSH1 0x1 ADD SWAP1 DUP1 DUP4 GT PUSH3 0x13E JUMPI JUMPDEST POP POP POP POP POP SWAP1 POP SWAP1 JUMP JUMPDEST PUSH1 0x0 DUP4 DUP4 DUP4 CALLER PUSH1 0x40 MLOAD PUSH3 0x1A7 SWAP1 PUSH3 0x23F JUMP JUMPDEST PUSH3 0x1B6 SWAP5 SWAP4 SWAP3 SWAP2 SWAP1 PUSH3 0x6E7 JUMP JUMPDEST PUSH1 0x40 MLOAD DUP1 SWAP2 SUB SWAP1 PUSH1 0x0 CREATE DUP1 ISZERO DUP1 ISZERO PUSH3 0x1D3 JUMPI RETURNDATASIZE PUSH1 0x0 DUP1 RETURNDATACOPY RETURNDATASIZE PUSH1 0x0 REVERT JUMPDEST POP SWAP1 POP PUSH1 0x0 DUP2 SWAP1 DUP1 PUSH1 0x1 DUP2 SLOAD ADD DUP1 DUP3 SSTORE DUP1 SWAP2 POP POP PUSH1 0x1 SWAP1 SUB SWAP1 PUSH1 0x0 MSTORE PUSH1 0x20 PUSH1 0x0 KECCAK256 ADD PUSH1 0x0 SWAP1 SWAP2 SWAP1 SWAP2 SWAP1 SWAP2 PUSH2 0x100 EXP DUP2 SLOAD DUP2 PUSH20 0xFFFFFFFFFFFFFFFFFFFFFFFFFFFFFFFFFFFFFFFF MUL NOT AND SWAP1 DUP4 PUSH20 0xFFFFFFFFFFFFFFFFFFFFFFFFFFFFFFFFFFFFFFFF AND MUL OR SWAP1 SSTORE POP POP POP POP POP JUMP JUMPDEST PUSH2 0x19DD DUP1 PUSH3 0x743 DUP4 CODECOPY ADD SWAP1 JUMP JUMPDEST PUSH1 0x0 PUSH1 0x40 MLOAD SWAP1 POP SWAP1 JUMP JUMPDEST PUSH1 0x0 DUP1 REVERT JUMPDEST PUSH1 0x0 DUP1 REVERT JUMPDEST PUSH1 0x0 DUP2 SWAP1 POP SWAP2 SWAP1 POP JUMP JUMPDEST PUSH3 0x276 DUP2 PUSH3 0x261 JUMP JUMPDEST DUP2 EQ PUSH3 0x282 JUMPI PUSH1 0x0 DUP1 REVERT JUMPDEST POP JUMP JUMPDEST PUSH1 0x0 DUP2 CALLDATALOAD SWAP1 POP PUSH3 0x296 DUP2 PUSH3 0x26B JUMP JUMPDEST SWAP3 SWAP2 POP POP JUMP JUMPDEST PUSH1 0x0 PUSH1 0x20 DUP3 DUP5 SUB SLT ISZERO PUSH3 0x2B5 JUMPI PUSH3 0x2B4 PUSH3 0x257 JUMP JUMPDEST JUMPDEST PUSH1 0x0 PUSH3 0x2C5 DUP5 DUP3 DUP6 ADD PUSH3 0x285 JUMP JUMPDEST SWAP2 POP POP SWAP3 SWAP2 POP POP JUMP JUMPDEST PUSH1 0x0 PUSH20 0xFFFFFFFFFFFFFFFFFFFFFFFFFFFFFFFFFFFFFFFF DUP3 AND SWAP1 POP SWAP2 SWAP1 POP JUMP JUMPDEST PUSH1 0x0 PUSH3 0x2FB DUP3 PUSH3 0x2CE JUMP JUMPDEST SWAP1 POP SWAP2 SWAP1 POP JUMP JUMPDEST PUSH3 0x30D DUP2 PUSH3 0x2EE JUMP JUMPDEST DUP3 MSTORE POP POP JUMP JUMPDEST PUSH1 0x0 PUSH1 0x20 DUP3 ADD SWAP1 POP PUSH3 0x32A PUSH1 0x0 DUP4 ADD DUP5 PUSH3 0x302 JUMP JUMPDEST SWAP3 SWAP2 POP POP JUMP JUMPDEST PUSH1 0x0 DUP2 MLOAD SWAP1 POP SWAP2 SWAP1 POP JUMP JUMPDEST PUSH1 0x0 DUP3 DUP3 MSTORE PUSH1 0x20 DUP3 ADD SWAP1 POP SWAP3 SWAP2 POP POP JUMP JUMPDEST PUSH1 0x0 DUP2 SWAP1 POP PUSH1 0x20 DUP3 ADD SWAP1 POP SWAP2 SWAP1 POP JUMP JUMPDEST PUSH3 0x367 DUP2 PUSH3 0x2EE JUMP JUMPDEST DUP3 MSTORE POP POP JUMP JUMPDEST PUSH1 0x0 PUSH3 0x37B DUP4 DUP4 PUSH3 0x35C JUMP JUMPDEST PUSH1 0x20 DUP4 ADD SWAP1 POP SWAP3 SWAP2 POP POP JUMP JUMPDEST PUSH1 0x0 PUSH1 0x20 DUP3 ADD SWAP1 POP SWAP2 SWAP1 POP JUMP JUMPDEST PUSH1 0x0 PUSH3 0x3A1 DUP3 PUSH3 0x330 JUMP JUMPDEST PUSH3 0x3AD DUP2 DUP6 PUSH3 0x33B JUMP JUMPDEST SWAP4 POP PUSH3 0x3BA DUP4 PUSH3 0x34C JUMP JUMPDEST DUP1 PUSH1 0x0 JUMPDEST DUP4 DUP2 LT ISZERO PUSH3 0x3F1 JUMPI DUP2 MLOAD PUSH3 0x3D5 DUP9 DUP3 PUSH3 0x36D JUMP JUMPDEST SWAP8 POP PUSH3 0x3E2 DUP4 PUSH3 0x387 JUMP JUMPDEST SWAP3 POP POP PUSH1 0x1 DUP2 ADD SWAP1 POP PUSH3 0x3BE JUMP JUMPDEST POP DUP6 SWAP4 POP POP POP POP SWAP3 SWAP2 POP POP JUMP JUMPDEST PUSH1 0x0 PUSH1 0x20 DUP3 ADD SWAP1 POP DUP2 DUP2 SUB PUSH1 0x0 DUP4 ADD MSTORE PUSH3 0x41A DUP2 DUP5 PUSH3 0x394 JUMP JUMPDEST SWAP1 POP SWAP3 SWAP2 POP POP JUMP JUMPDEST PUSH1 0x0 DUP1 REVERT JUMPDEST PUSH1 0x0 DUP1 REVERT JUMPDEST PUSH1 0x0 PUSH1 0x1F NOT PUSH1 0x1F DUP4 ADD AND SWAP1 POP SWAP2 SWAP1 POP JUMP JUMPDEST PUSH32 0x4E487B7100000000000000000000000000000000000000000000000000000000 PUSH1 0x0 MSTORE PUSH1 0x41 PUSH1 0x4 MSTORE PUSH1 0x24 PUSH1 0x0 REVERT JUMPDEST PUSH3 0x477 DUP3 PUSH3 0x42C JUMP JUMPDEST DUP2 ADD DUP2 DUP2 LT PUSH8 0xFFFFFFFFFFFFFFFF DUP3 GT OR ISZERO PUSH3 0x499 JUMPI PUSH3 0x498 PUSH3 0x43D JUMP JUMPDEST JUMPDEST DUP1 PUSH1 0x40 MSTORE POP POP POP JUMP JUMPDEST PUSH1 0x0 PUSH3 0x4AE PUSH3 0x24D JUMP JUMPDEST SWAP1 POP PUSH3 0x4BC DUP3 DUP3 PUSH3 0x46C JUMP JUMPDEST SWAP2 SWAP1 POP JUMP JUMPDEST PUSH1 0x0 PUSH8 0xFFFFFFFFFFFFFFFF DUP3 GT ISZERO PUSH3 0x4DF JUMPI PUSH3 0x4DE PUSH3 0x43D JUMP JUMPDEST JUMPDEST PUSH3 0x4EA DUP3 PUSH3 0x42C JUMP JUMPDEST SWAP1 POP PUSH1 0x20 DUP2 ADD SWAP1 POP SWAP2 SWAP1 POP JUMP JUMPDEST DUP3 DUP2 DUP4 CALLDATACOPY PUSH1 0x0 DUP4 DUP4 ADD MSTORE POP POP POP JUMP JUMPDEST PUSH1 0x0 PUSH3 0x51D PUSH3 0x517 DUP5 PUSH3 0x4C1 JUMP JUMPDEST PUSH3 0x4A2 JUMP JUMPDEST SWAP1 POP DUP3 DUP2 MSTORE PUSH1 0x20 DUP2 ADD DUP5 DUP5 DUP5 ADD GT ISZERO PUSH3 0x53C JUMPI PUSH3 0x53B PUSH3 0x427 JUMP JUMPDEST JUMPDEST PUSH3 0x549 DUP5 DUP3 DUP6 PUSH3 0x4F7 JUMP JUMPDEST POP SWAP4 SWAP3 POP POP POP JUMP JUMPDEST PUSH1 0x0 DUP3 PUSH1 0x1F DUP4 ADD SLT PUSH3 0x569 JUMPI PUSH3 0x568 PUSH3 0x422 JUMP JUMPDEST JUMPDEST DUP2 CALLDATALOAD PUSH3 0x57B DUP5 DUP3 PUSH1 0x20 DUP7 ADD PUSH3 0x506 JUMP JUMPDEST SWAP2 POP POP SWAP3 SWAP2 POP POP JUMP JUMPDEST PUSH1 0x0 DUP1 PUSH1 0x0 PUSH1 0x60 DUP5 DUP7 SUB SLT ISZERO PUSH3 0x5A0 JUMPI PUSH3 0x59F PUSH3 0x257 JUMP JUMPDEST JUMPDEST PUSH1 0x0 PUSH3 0x5B0 DUP7 DUP3 DUP8 ADD PUSH3 0x285 JUMP JUMPDEST SWAP4 POP POP PUSH1 0x20 DUP5 ADD CALLDATALOAD PUSH8 0xFFFFFFFFFFFFFFFF DUP2 GT ISZERO PUSH3 0x5D4 JUMPI PUSH3 0x5D3 PUSH3 0x25C JUMP JUMPDEST JUMPDEST PUSH3 0x5E2 DUP7 DUP3 DUP8 ADD PUSH3 0x551 JUMP JUMPDEST SWAP3 POP POP PUSH1 0x40 DUP5 ADD CALLDATALOAD PUSH8 0xFFFFFFFFFFFFFFFF DUP2 GT ISZERO PUSH3 0x606 JUMPI PUSH3 0x605 PUSH3 0x25C JUMP JUMPDEST JUMPDEST PUSH3 0x614 DUP7 DUP3 DUP8 ADD PUSH3 0x551 JUMP JUMPDEST SWAP2 POP POP SWAP3 POP SWAP3 POP SWAP3 JUMP JUMPDEST PUSH3 0x629 DUP2 PUSH3 0x261 JUMP JUMPDEST DUP3 MSTORE POP POP JUMP JUMPDEST PUSH1 0x0 DUP2 MLOAD SWAP1 POP SWAP2 SWAP1 POP JUMP JUMPDEST PUSH1 0x0 DUP3 DUP3 MSTORE PUSH1 0x20 DUP3 ADD SWAP1 POP SWAP3 SWAP2 POP POP JUMP JUMPDEST PUSH1 0x0 JUMPDEST DUP4 DUP2 LT ISZERO PUSH3 0x66B JUMPI DUP1 DUP3 ADD MLOAD DUP2 DUP5 ADD MSTORE PUSH1 0x20 DUP2 ADD SWAP1 POP PUSH3 0x64E JUMP JUMPDEST DUP4 DUP2 GT ISZERO PUSH3 0x67B JUMPI PUSH1 0x0 DUP5 DUP5 ADD MSTORE JUMPDEST POP POP POP POP JUMP JUMPDEST PUSH1 0x0 PUSH3 0x68E DUP3 PUSH3 0x62F JUMP JUMPDEST PUSH3 0x69A DUP2 DUP6 PUSH3 0x63A JUMP JUMPDEST SWAP4 POP PUSH3 0x6AC DUP2 DUP6 PUSH1 0x20 DUP7 ADD PUSH3 0x64B JUMP JUMPDEST PUSH3 0x6B7 DUP2 PUSH3 0x42C JUMP JUMPDEST DUP5 ADD SWAP2 POP POP SWAP3 SWAP2 POP POP JUMP JUMPDEST PUSH1 0x0 PUSH3 0x6CF DUP3 PUSH3 0x2CE JUMP JUMPDEST SWAP1 POP SWAP2 SWAP1 POP JUMP JUMPDEST PUSH3 0x6E1 DUP2 PUSH3 0x6C2 JUMP JUMPDEST DUP3 MSTORE POP POP JUMP JUMPDEST PUSH1 0x0 PUSH1 0x80 DUP3 ADD SWAP1 POP PUSH3 0x6FE PUSH1 0x0 DUP4 ADD DUP8 PUSH3 0x61E JUMP JUMPDEST DUP2 DUP2 SUB PUSH1 0x20 DUP4 ADD MSTORE PUSH3 0x712 DUP2 DUP7 PUSH3 0x681 JUMP JUMPDEST SWAP1 POP DUP2 DUP2 SUB PUSH1 0x40 DUP4 ADD MSTORE PUSH3 0x728 DUP2 DUP6 PUSH3 0x681 JUMP JUMPDEST SWAP1 POP PUSH3 0x739 PUSH1 0x60 DUP4 ADD DUP5 PUSH3 0x6D6 JUMP JUMPDEST SWAP6 SWAP5 POP POP POP POP POP JUMP INVALID PUSH1 0x80 PUSH1 0x40 MSTORE CALLVALUE DUP1 ISZERO PUSH3 0x11 JUMPI PUSH1 0x0 DUP1 REVERT JUMPDEST POP PUSH1 0x40 MLOAD PUSH3 0x19DD CODESIZE SUB DUP1 PUSH3 0x19DD DUP4 CODECOPY DUP2 DUP2 ADD PUSH1 0x40 MSTORE DUP2 ADD SWAP1 PUSH3 0x37 SWAP2 SWAP1 PUSH3 0x2EA JUMP JUMPDEST DUP1 PUSH1 0x2 PUSH1 0x0 PUSH2 0x100 EXP DUP2 SLOAD DUP2 PUSH20 0xFFFFFFFFFFFFFFFFFFFFFFFFFFFFFFFFFFFFFFFF MUL NOT AND SWAP1 DUP4 PUSH20 0xFFFFFFFFFFFFFFFFFFFFFFFFFFFFFFFFFFFFFFFF AND MUL OR SWAP1 SSTORE POP DUP4 PUSH1 0x3 DUP2 SWAP1 SSTORE POP DUP3 PUSH1 0x0 SWAP1 DUP2 PUSH3 0x90 SWAP2 SWAP1 PUSH3 0x5DB JUMP JUMPDEST POP DUP2 PUSH1 0x1 SWAP1 DUP2 PUSH3 0xA2 SWAP2 SWAP1 PUSH3 0x5DB JUMP JUMPDEST POP POP POP POP POP PUSH3 0x6C2 JUMP JUMPDEST PUSH1 0x0 PUSH1 0x40 MLOAD SWAP1 POP SWAP1 JUMP JUMPDEST PUSH1 0x0 DUP1 REVERT JUMPDEST PUSH1 0x0 DUP1 REVERT JUMPDEST PUSH1 0x0 DUP2 SWAP1 POP SWAP2 SWAP1 POP JUMP JUMPDEST PUSH3 0xD6 DUP2 PUSH3 0xC1 JUMP JUMPDEST DUP2 EQ PUSH3 0xE2 JUMPI PUSH1 0x0 DUP1 REVERT JUMPDEST POP JUMP JUMPDEST PUSH1 0x0 DUP2 MLOAD SWAP1 POP PUSH3 0xF6 DUP2 PUSH3 0xCB JUMP JUMPDEST SWAP3 SWAP2 POP POP JUMP JUMPDEST PUSH1 0x0 DUP1 REVERT JUMPDEST PUSH1 0x0 DUP1 REVERT JUMPDEST PUSH1 0x0 PUSH1 0x1F NOT PUSH1 0x1F DUP4 ADD AND SWAP1 POP SWAP2 SWAP1 POP JUMP JUMPDEST PUSH32 0x4E487B7100000000000000000000000000000000000000000000000000000000 PUSH1 0x0 MSTORE PUSH1 0x41 PUSH1 0x4 MSTORE PUSH1 0x24 PUSH1 0x0 REVERT JUMPDEST PUSH3 0x151 DUP3 PUSH3 0x106 JUMP JUMPDEST DUP2 ADD DUP2 DUP2 LT PUSH8 0xFFFFFFFFFFFFFFFF DUP3 GT OR ISZERO PUSH3 0x173 JUMPI PUSH3 0x172 PUSH3 0x117 JUMP JUMPDEST JUMPDEST DUP1 PUSH1 0x40 MSTORE POP POP POP JUMP JUMPDEST PUSH1 0x0 PUSH3 0x188 PUSH3 0xAD JUMP JUMPDEST SWAP1 POP PUSH3 0x196 DUP3 DUP3 PUSH3 0x146 JUMP JUMPDEST SWAP2 SWAP1 POP JUMP JUMPDEST PUSH1 0x0 PUSH8 0xFFFFFFFFFFFFFFFF DUP3 GT ISZERO PUSH3 0x1B9 JUMPI PUSH3 0x1B8 PUSH3 0x117 JUMP JUMPDEST JUMPDEST PUSH3 0x1C4 DUP3 PUSH3 0x106 JUMP JUMPDEST SWAP1 POP PUSH1 0x20 DUP2 ADD SWAP1 POP SWAP2 SWAP1 POP JUMP JUMPDEST PUSH1 0x0 JUMPDEST DUP4 DUP2 LT ISZERO PUSH3 0x1F1 JUMPI DUP1 DUP3 ADD MLOAD DUP2 DUP5 ADD MSTORE PUSH1 0x20 DUP2 ADD SWAP1 POP PUSH3 0x1D4 JUMP JUMPDEST DUP4 DUP2 GT ISZERO PUSH3 0x201 JUMPI PUSH1 0x0 DUP5 DUP5 ADD MSTORE JUMPDEST POP POP POP POP JUMP JUMPDEST PUSH1 0x0 PUSH3 0x21E PUSH3 0x218 DUP5 PUSH3 0x19B JUMP JUMPDEST PUSH3 0x17C JUMP JUMPDEST SWAP1 POP DUP3 DUP2 MSTORE PUSH1 0x20 DUP2 ADD DUP5 DUP5 DUP5 ADD GT ISZERO PUSH3 0x23D JUMPI PUSH3 0x23C PUSH3 0x101 JUMP JUMPDEST JUMPDEST PUSH3 0x24A DUP5 DUP3 DUP6 PUSH3 0x1D1 JUMP JUMPDEST POP SWAP4 SWAP3 POP POP POP JUMP JUMPDEST PUSH1 0x0 DUP3 PUSH1 0x1F DUP4 ADD SLT PUSH3 0x26A JUMPI PUSH3 0x269 PUSH3 0xFC JUMP JUMPDEST JUMPDEST DUP2 MLOAD PUSH3 0x27C DUP5 DUP3 PUSH1 0x20 DUP7 ADD PUSH3 0x207 JUMP JUMPDEST SWAP2 POP POP SWAP3 SWAP2 POP POP JUMP JUMPDEST PUSH1 0x0 PUSH20 0xFFFFFFFFFFFFFFFFFFFFFFFFFFFFFFFFFFFFFFFF DUP3 AND SWAP1 POP SWAP2 SWAP1 POP JUMP JUMPDEST PUSH1 0x0 PUSH3 0x2B2 DUP3 PUSH3 0x285 JUMP JUMPDEST SWAP1 POP SWAP2 SWAP1 POP JUMP JUMPDEST PUSH3 0x2C4 DUP2 PUSH3 0x2A5 JUMP JUMPDEST DUP2 EQ PUSH3 0x2D0 JUMPI PUSH1 0x0 DUP1 REVERT JUMPDEST POP JUMP JUMPDEST PUSH1 0x0 DUP2 MLOAD SWAP1 POP PUSH3 0x2E4 DUP2 PUSH3 0x2B9 JUMP JUMPDEST SWAP3 SWAP2 POP POP JUMP JUMPDEST PUSH1 0x0 DUP1 PUSH1 0x0 DUP1 PUSH1 0x80 DUP6 DUP8 SUB SLT ISZERO PUSH3 0x307 JUMPI PUSH3 0x306 PUSH3 0xB7 JUMP JUMPDEST JUMPDEST PUSH1 0x0 PUSH3 0x317 DUP8 DUP3 DUP9 ADD PUSH3 0xE5 JUMP JUMPDEST SWAP5 POP POP PUSH1 0x20 DUP6 ADD MLOAD PUSH8 0xFFFFFFFFFFFFFFFF DUP2 GT ISZERO PUSH3 0x33B JUMPI PUSH3 0x33A PUSH3 0xBC JUMP JUMPDEST JUMPDEST PUSH3 0x349 DUP8 DUP3 DUP9 ADD PUSH3 0x252 JUMP JUMPDEST SWAP4 POP POP PUSH1 0x40 DUP6 ADD MLOAD PUSH8 0xFFFFFFFFFFFFFFFF DUP2 GT ISZERO PUSH3 0x36D JUMPI PUSH3 0x36C PUSH3 0xBC JUMP JUMPDEST JUMPDEST PUSH3 0x37B DUP8 DUP3 DUP9 ADD PUSH3 0x252 JUMP JUMPDEST SWAP3 POP POP PUSH1 0x60 PUSH3 0x38E DUP8 DUP3 DUP9 ADD PUSH3 0x2D3 JUMP JUMPDEST SWAP2 POP POP SWAP3 SWAP6 SWAP2 SWAP5 POP SWAP3 POP JUMP JUMPDEST PUSH1 0x0 DUP2 MLOAD SWAP1 POP SWAP2 SWAP1 POP JUMP JUMPDEST PUSH32 0x4E487B7100000000000000000000000000000000000000000000000000000000 PUSH1 0x0 MSTORE PUSH1 0x22 PUSH1 0x4 MSTORE PUSH1 0x24 PUSH1 0x0 REVERT JUMPDEST PUSH1 0x0 PUSH1 0x2 DUP3 DIV SWAP1 POP PUSH1 0x1 DUP3 AND DUP1 PUSH3 0x3ED JUMPI PUSH1 0x7F DUP3 AND SWAP2 POP JUMPDEST PUSH1 0x20 DUP3 LT DUP2 SUB PUSH3 0x403 JUMPI PUSH3 0x402 PUSH3 0x3A5 JUMP JUMPDEST JUMPDEST POP SWAP2 SWAP1 POP JUMP JUMPDEST PUSH1 0x0 DUP2 SWAP1 POP DUP2 PUSH1 0x0 MSTORE PUSH1 0x20 PUSH1 0x0 KECCAK256 SWAP1 POP SWAP2 SWAP1 POP JUMP JUMPDEST PUSH1 0x0 PUSH1 0x20 PUSH1 0x1F DUP4 ADD DIV SWAP1 POP SWAP2 SWAP1 POP JUMP JUMPDEST PUSH1 0x0 DUP3 DUP3 SHL SWAP1 POP SWAP3 SWAP2 POP POP JUMP JUMPDEST PUSH1 0x0 PUSH1 0x8 DUP4 MUL PUSH3 0x46D PUSH32 0xFFFFFFFFFFFFFFFFFFFFFFFFFFFFFFFFFFFFFFFFFFFFFFFFFFFFFFFFFFFFFFFF DUP3 PUSH3 0x42E JUMP JUMPDEST PUSH3 0x479 DUP7 DUP4 PUSH3 0x42E JUMP JUMPDEST SWAP6 POP DUP1 NOT DUP5 AND SWAP4 POP DUP1 DUP7 AND DUP5 OR SWAP3 POP POP POP SWAP4 SWAP3 POP POP POP JUMP JUMPDEST PUSH1 0x0 DUP2 SWAP1 POP SWAP2 SWAP1 POP JUMP JUMPDEST PUSH1 0x0 PUSH3 0x4BC PUSH3 0x4B6 PUSH3 0x4B0 DUP5 PUSH3 0xC1 JUMP JUMPDEST PUSH3 0x491 JUMP JUMPDEST PUSH3 0xC1 JUMP JUMPDEST SWAP1 POP SWAP2 SWAP1 POP JUMP JUMPDEST PUSH1 0x0 DUP2 SWAP1 POP SWAP2 SWAP1 POP JUMP JUMPDEST PUSH3 0x4D8 DUP4 PUSH3 0x49B JUMP JUMPDEST PUSH3 0x4F0 PUSH3 0x4E7 DUP3 PUSH3 0x4C3 JUMP JUMPDEST DUP5 DUP5 SLOAD PUSH3 0x43B JUMP JUMPDEST DUP3 SSTORE POP POP POP POP JUMP JUMPDEST PUSH1 0x0 SWAP1 JUMP JUMPDEST PUSH3 0x507 PUSH3 0x4F8 JUMP JUMPDEST PUSH3 0x514 DUP2 DUP5 DUP5 PUSH3 0x4CD JUMP JUMPDEST POP POP POP JUMP JUMPDEST JUMPDEST DUP2 DUP2 LT ISZERO PUSH3 0x53C JUMPI PUSH3 0x530 PUSH1 0x0 DUP3 PUSH3 0x4FD JUMP JUMPDEST PUSH1 0x1 DUP2 ADD SWAP1 POP PUSH3 0x51A JUMP JUMPDEST POP POP JUMP JUMPDEST PUSH1 0x1F DUP3 GT ISZERO PUSH3 0x58B JUMPI PUSH3 0x555 DUP2 PUSH3 0x409 JUMP JUMPDEST PUSH3 0x560 DUP5 PUSH3 0x41E JUMP JUMPDEST DUP2 ADD PUSH1 0x20 DUP6 LT ISZERO PUSH3 0x570 JUMPI DUP2 SWAP1 POP JUMPDEST PUSH3 0x588 PUSH3 0x57F DUP6 PUSH3 0x41E JUMP JUMPDEST DUP4 ADD DUP3 PUSH3 0x519 JUMP JUMPDEST POP POP JUMPDEST POP POP POP JUMP JUMPDEST PUSH1 0x0 DUP3 DUP3 SHR SWAP1 POP SWAP3 SWAP2 POP POP JUMP JUMPDEST PUSH1 0x0 PUSH3 0x5B0 PUSH1 0x0 NOT DUP5 PUSH1 0x8 MUL PUSH3 0x590 JUMP JUMPDEST NOT DUP1 DUP4 AND SWAP2 POP POP SWAP3 SWAP2 POP POP JUMP JUMPDEST PUSH1 0x0 PUSH3 0x5CB DUP4 DUP4 PUSH3 0x59D JUMP JUMPDEST SWAP2 POP DUP3 PUSH1 0x2 MUL DUP3 OR SWAP1 POP SWAP3 SWAP2 POP POP JUMP JUMPDEST PUSH3 0x5E6 DUP3 PUSH3 0x39A JUMP JUMPDEST PUSH8 0xFFFFFFFFFFFFFFFF DUP2 GT ISZERO PUSH3 0x602 JUMPI PUSH3 0x601 PUSH3 0x117 JUMP JUMPDEST JUMPDEST PUSH3 0x60E DUP3 SLOAD PUSH3 0x3D4 JUMP JUMPDEST PUSH3 0x61B DUP3 DUP3 DUP6 PUSH3 0x540 JUMP JUMPDEST PUSH1 0x0 PUSH1 0x20 SWAP1 POP PUSH1 0x1F DUP4 GT PUSH1 0x1 DUP2 EQ PUSH3 0x653 JUMPI PUSH1 0x0 DUP5 ISZERO PUSH3 0x63E JUMPI DUP3 DUP8 ADD MLOAD SWAP1 POP JUMPDEST PUSH3 0x64A DUP6 DUP3 PUSH3 0x5BD JUMP JUMPDEST DUP7 SSTORE POP PUSH3 0x6BA JUMP JUMPDEST PUSH1 0x1F NOT DUP5 AND PUSH3 0x663 DUP7 PUSH3 0x409 JUMP JUMPDEST PUSH1 0x0 JUMPDEST DUP3 DUP2 LT ISZERO PUSH3 0x68D JUMPI DUP5 DUP10 ADD MLOAD DUP3 SSTORE PUSH1 0x1 DUP3 ADD SWAP2 POP PUSH1 0x20 DUP6 ADD SWAP5 POP PUSH1 0x20 DUP2 ADD SWAP1 POP PUSH3 0x666 JUMP JUMPDEST DUP7 DUP4 LT ISZERO PUSH3 0x6AD JUMPI DUP5 DUP10 ADD MLOAD PUSH3 0x6A9 PUSH1 0x1F DUP10 AND DUP3 PUSH3 0x59D JUMP JUMPDEST DUP4 SSTORE POP JUMPDEST PUSH1 0x1 PUSH1 0x2 DUP9 MUL ADD DUP9 SSTORE POP POP POP JUMPDEST POP POP POP POP POP POP JUMP JUMPDEST PUSH2 0x130B DUP1 PUSH3 0x6D2 PUSH1 0x0 CODECOPY PUSH1 0x0 RETURN INVALID PUSH1 0x80 PUSH1 0x40 MSTORE PUSH1 0x4 CALLDATASIZE LT PUSH2 0xC2 JUMPI PUSH1 0x0 CALLDATALOAD PUSH1 0xE0 SHR DUP1 PUSH4 0x81D12C58 GT PUSH2 0x7F JUMPI DUP1 PUSH4 0x937E09B1 GT PUSH2 0x59 JUMPI DUP1 PUSH4 0x937E09B1 EQ PUSH2 0x272 JUMPI DUP1 PUSH4 0xB309A91A EQ PUSH2 0x29D JUMPI DUP1 PUSH4 0xC90422A9 EQ PUSH2 0x2A7 JUMPI DUP1 PUSH4 0xD7D1BBDB EQ PUSH2 0x2D2 JUMPI PUSH2 0xC2 JUMP JUMPDEST DUP1 PUSH4 0x81D12C58 EQ PUSH2 0x1DD JUMPI DUP1 PUSH4 0x82FDE093 EQ PUSH2 0x21E JUMPI DUP1 PUSH4 0x8A9CFD55 EQ PUSH2 0x249 JUMPI PUSH2 0xC2 JUMP JUMPDEST DUP1 PUSH4 0x3441006 EQ PUSH2 0xC7 JUMPI DUP1 PUSH4 0xA144391 EQ PUSH2 0xF0 JUMPI DUP1 PUSH4 0x4051DDAC EQ PUSH2 0x12D JUMPI DUP1 PUSH4 0x44D6CF3D EQ PUSH2 0x15C JUMPI DUP1 PUSH4 0x481C6A75 EQ PUSH2 0x187 JUMPI DUP1 PUSH4 0x79DE22DD EQ PUSH2 0x1B2 JUMPI JUMPDEST PUSH1 0x0 DUP1 REVERT JUMPDEST CALLVALUE DUP1 ISZERO PUSH2 0xD3 JUMPI PUSH1 0x0 DUP1 REVERT JUMPDEST POP PUSH2 0xEE PUSH1 0x4 DUP1 CALLDATASIZE SUB DUP2 ADD SWAP1 PUSH2 0xE9 SWAP2 SWAP1 PUSH2 0xAA3 JUMP JUMPDEST PUSH2 0x2FB JUMP JUMPDEST STOP JUMPDEST CALLVALUE DUP1 ISZERO PUSH2 0xFC JUMPI PUSH1 0x0 DUP1 REVERT JUMPDEST POP PUSH2 0x117 PUSH1 0x4 DUP1 CALLDATASIZE SUB DUP2 ADD SWAP1 PUSH2 0x112 SWAP2 SWAP1 PUSH2 0xB2E JUMP JUMPDEST PUSH2 0x4C4 JUMP JUMPDEST PUSH1 0x40 MLOAD PUSH2 0x124 SWAP2 SWAP1 PUSH2 0xB76 JUMP JUMPDEST PUSH1 0x40 MLOAD DUP1 SWAP2 SUB SWAP1 RETURN JUMPDEST CALLVALUE DUP1 ISZERO PUSH2 0x139 JUMPI PUSH1 0x0 DUP1 REVERT JUMPDEST POP PUSH2 0x142 PUSH2 0x4E4 JUMP JUMPDEST PUSH1 0x40 MLOAD PUSH2 0x153 SWAP6 SWAP5 SWAP4 SWAP3 SWAP2 SWAP1 PUSH2 0xBAF JUMP JUMPDEST PUSH1 0x40 MLOAD DUP1 SWAP2 SUB SWAP1 RETURN JUMPDEST CALLVALUE DUP1 ISZERO PUSH2 0x168 JUMPI PUSH1 0x0 DUP1 REVERT JUMPDEST POP PUSH2 0x171 PUSH2 0x52D JUMP JUMPDEST PUSH1 0x40 MLOAD PUSH2 0x17E SWAP2 SWAP1 PUSH2 0xC9B JUMP JUMPDEST PUSH1 0x40 MLOAD DUP1 SWAP2 SUB SWAP1 RETURN JUMPDEST CALLVALUE DUP1 ISZERO PUSH2 0x193 JUMPI PUSH1 0x0 DUP1 REVERT JUMPDEST POP PUSH2 0x19C PUSH2 0x5BB JUMP JUMPDEST PUSH1 0x40 MLOAD PUSH2 0x1A9 SWAP2 SWAP1 PUSH2 0xCBD JUMP JUMPDEST PUSH1 0x40 MLOAD DUP1 SWAP2 SUB SWAP1 RETURN JUMPDEST CALLVALUE DUP1 ISZERO PUSH2 0x1BE JUMPI PUSH1 0x0 DUP1 REVERT JUMPDEST POP PUSH2 0x1C7 PUSH2 0x5E1 JUMP JUMPDEST PUSH1 0x40 MLOAD PUSH2 0x1D4 SWAP2 SWAP1 PUSH2 0xC9B JUMP JUMPDEST PUSH1 0x40 MLOAD DUP1 SWAP2 SUB SWAP1 RETURN JUMPDEST CALLVALUE DUP1 ISZERO PUSH2 0x1E9 JUMPI PUSH1 0x0 DUP1 REVERT JUMPDEST POP PUSH2 0x204 PUSH1 0x4 DUP1 CALLDATASIZE SUB DUP2 ADD SWAP1 PUSH2 0x1FF SWAP2 SWAP1 PUSH2 0xAA3 JUMP JUMPDEST PUSH2 0x66F JUMP JUMPDEST PUSH1 0x40 MLOAD PUSH2 0x215 SWAP6 SWAP5 SWAP4 SWAP3 SWAP2 SWAP1 PUSH2 0xCD8 JUMP JUMPDEST PUSH1 0x40 MLOAD DUP1 SWAP2 SUB SWAP1 RETURN JUMPDEST CALLVALUE DUP1 ISZERO PUSH2 0x22A JUMPI PUSH1 0x0 DUP1 REVERT JUMPDEST POP PUSH2 0x233 PUSH2 0x76A JUMP JUMPDEST PUSH1 0x40 MLOAD PUSH2 0x240 SWAP2 SWAP1 PUSH2 0xD32 JUMP JUMPDEST PUSH1 0x40 MLOAD DUP1 SWAP2 SUB SWAP1 RETURN JUMPDEST CALLVALUE DUP1 ISZERO PUSH2 0x255 JUMPI PUSH1 0x0 DUP1 REVERT JUMPDEST POP PUSH2 0x270 PUSH1 0x4 DUP1 CALLDATASIZE SUB DUP2 ADD SWAP1 PUSH2 0x26B SWAP2 SWAP1 PUSH2 0xE82 JUMP JUMPDEST PUSH2 0x770 JUMP JUMPDEST STOP JUMPDEST CALLVALUE DUP1 ISZERO PUSH2 0x27E JUMPI PUSH1 0x0 DUP1 REVERT JUMPDEST POP PUSH2 0x287 PUSH2 0x879 JUMP JUMPDEST PUSH1 0x40 MLOAD PUSH2 0x294 SWAP2 SWAP1 PUSH2 0xD32 JUMP JUMPDEST PUSH1 0x40 MLOAD DUP1 SWAP2 SUB SWAP1 RETURN JUMPDEST PUSH2 0x2A5 PUSH2 0x87F JUMP JUMPDEST STOP JUMPDEST CALLVALUE DUP1 ISZERO PUSH2 0x2B3 JUMPI PUSH1 0x0 DUP1 REVERT JUMPDEST POP PUSH2 0x2BC PUSH2 0x8FF JUMP JUMPDEST PUSH1 0x40 MLOAD PUSH2 0x2C9 SWAP2 SWAP1 PUSH2 0xD32 JUMP JUMPDEST PUSH1 0x40 MLOAD DUP1 SWAP2 SUB SWAP1 RETURN JUMPDEST CALLVALUE DUP1 ISZERO PUSH2 0x2DE JUMPI PUSH1 0x0 DUP1 REVERT JUMPDEST POP PUSH2 0x2F9 PUSH1 0x4 DUP1 CALLDATASIZE SUB DUP2 ADD SWAP1 PUSH2 0x2F4 SWAP2 SWAP1 PUSH2 0xAA3 JUMP JUMPDEST PUSH2 0x90C JUMP JUMPDEST STOP JUMPDEST PUSH1 0x2 PUSH1 0x0 SWAP1 SLOAD SWAP1 PUSH2 0x100 EXP SWAP1 DIV PUSH20 0xFFFFFFFFFFFFFFFFFFFFFFFFFFFFFFFFFFFFFFFF AND PUSH20 0xFFFFFFFFFFFFFFFFFFFFFFFFFFFFFFFFFFFFFFFF AND CALLER PUSH20 0xFFFFFFFFFFFFFFFFFFFFFFFFFFFFFFFFFFFFFFFF AND EQ PUSH2 0x355 JUMPI PUSH1 0x0 DUP1 REVERT JUMPDEST PUSH1 0x4 DUP2 DUP2 SLOAD DUP2 LT PUSH2 0x369 JUMPI PUSH2 0x368 PUSH2 0xEF1 JUMP JUMPDEST JUMPDEST SWAP1 PUSH1 0x0 MSTORE PUSH1 0x20 PUSH1 0x0 KECCAK256 SWAP1 PUSH1 0x5 MUL ADD PUSH1 0x2 ADD PUSH1 0x14 SWAP1 SLOAD SWAP1 PUSH2 0x100 EXP SWAP1 DIV PUSH1 0xFF AND ISZERO PUSH2 0x392 JUMPI PUSH1 0x0 DUP1 REVERT JUMPDEST PUSH1 0x2 PUSH1 0x6 SLOAD PUSH2 0x3A1 SWAP2 SWAP1 PUSH2 0xF7E JUMP JUMPDEST PUSH1 0x4 DUP3 DUP2 SLOAD DUP2 LT PUSH2 0x3B5 JUMPI PUSH2 0x3B4 PUSH2 0xEF1 JUMP JUMPDEST JUMPDEST SWAP1 PUSH1 0x0 MSTORE PUSH1 0x20 PUSH1 0x0 KECCAK256 SWAP1 PUSH1 0x5 MUL ADD PUSH1 0x4 ADD SLOAD LT ISZERO PUSH2 0x3D2 JUMPI PUSH1 0x0 DUP1 REVERT JUMPDEST PUSH1 0x1 PUSH1 0x4 DUP3 DUP2 SLOAD DUP2 LT PUSH2 0x3E8 JUMPI PUSH2 0x3E7 PUSH2 0xEF1 JUMP JUMPDEST JUMPDEST SWAP1 PUSH1 0x0 MSTORE PUSH1 0x20 PUSH1 0x0 KECCAK256 SWAP1 PUSH1 0x5 MUL ADD PUSH1 0x2 ADD PUSH1 0x14 PUSH2 0x100 EXP DUP2 SLOAD DUP2 PUSH1 0xFF MUL NOT AND SWAP1 DUP4 ISZERO ISZERO MUL OR SWAP1 SSTORE POP PUSH1 0x4 DUP2 DUP2 SLOAD DUP2 LT PUSH2 0x424 JUMPI PUSH2 0x423 PUSH2 0xEF1 JUMP JUMPDEST JUMPDEST SWAP1 PUSH1 0x0 MSTORE PUSH1 0x20 PUSH1 0x0 KECCAK256 SWAP1 PUSH1 0x5 MUL ADD PUSH1 0x2 ADD PUSH1 0x0 SWAP1 SLOAD SWAP1 PUSH2 0x100 EXP SWAP1 DIV PUSH20 0xFFFFFFFFFFFFFFFFFFFFFFFFFFFFFFFFFFFFFFFF AND PUSH20 0xFFFFFFFFFFFFFFFFFFFFFFFFFFFFFFFFFFFFFFFF AND PUSH2 0x8FC PUSH1 0x4 DUP4 DUP2 SLOAD DUP2 LT PUSH2 0x483 JUMPI PUSH2 0x482 PUSH2 0xEF1 JUMP JUMPDEST JUMPDEST SWAP1 PUSH1 0x0 MSTORE PUSH1 0x20 PUSH1 0x0 KECCAK256 SWAP1 PUSH1 0x5 MUL ADD PUSH1 0x1 ADD SLOAD SWAP1 DUP2 ISZERO MUL SWAP1 PUSH1 0x40 MLOAD PUSH1 0x0 PUSH1 0x40 MLOAD DUP1 DUP4 SUB DUP2 DUP6 DUP9 DUP9 CALL SWAP4 POP POP POP POP ISZERO DUP1 ISZERO PUSH2 0x4C0 JUMPI RETURNDATASIZE PUSH1 0x0 DUP1 RETURNDATACOPY RETURNDATASIZE PUSH1 0x0 REVERT JUMPDEST POP POP JUMP JUMPDEST PUSH1 0x5 PUSH1 0x20 MSTORE DUP1 PUSH1 0x0 MSTORE PUSH1 0x40 PUSH1 0x0 KECCAK256 PUSH1 0x0 SWAP2 POP SLOAD SWAP1 PUSH2 0x100 EXP SWAP1 DIV PUSH1 0xFF AND DUP2 JUMP JUMPDEST PUSH1 0x0 DUP1 PUSH1 0x0 DUP1 PUSH1 0x0 PUSH1 0x3 SLOAD SELFBALANCE PUSH1 0x4 DUP1 SLOAD SWAP1 POP PUSH1 0x6 SLOAD PUSH1 0x2 PUSH1 0x0 SWAP1 SLOAD SWAP1 PUSH2 0x100 EXP SWAP1 DIV PUSH20 0xFFFFFFFFFFFFFFFFFFFFFFFFFFFFFFFFFFFFFFFF AND SWAP5 POP SWAP5 POP SWAP5 POP SWAP5 POP SWAP5 POP SWAP1 SWAP2 SWAP3 SWAP4 SWAP5 JUMP JUMPDEST PUSH1 0x0 DUP1 SLOAD PUSH2 0x53A SWAP1 PUSH2 0xFDE JUMP JUMPDEST DUP1 PUSH1 0x1F ADD PUSH1 0x20 DUP1 SWAP2 DIV MUL PUSH1 0x20 ADD PUSH1 0x40 MLOAD SWAP1 DUP2 ADD PUSH1 0x40 MSTORE DUP1 SWAP3 SWAP2 SWAP1 DUP2 DUP2 MSTORE PUSH1 0x20 ADD DUP3 DUP1 SLOAD PUSH2 0x566 SWAP1 PUSH2 0xFDE JUMP JUMPDEST DUP1 ISZERO PUSH2 0x5B3 JUMPI DUP1 PUSH1 0x1F LT PUSH2 0x588 JUMPI PUSH2 0x100 DUP1 DUP4 SLOAD DIV MUL DUP4 MSTORE SWAP2 PUSH1 0x20 ADD SWAP2 PUSH2 0x5B3 JUMP JUMPDEST DUP3 ADD SWAP2 SWAP1 PUSH1 0x0 MSTORE PUSH1 0x20 PUSH1 0x0 KECCAK256 SWAP1 JUMPDEST DUP2 SLOAD DUP2 MSTORE SWAP1 PUSH1 0x1 ADD SWAP1 PUSH1 0x20 ADD DUP1 DUP4 GT PUSH2 0x596 JUMPI DUP3 SWAP1 SUB PUSH1 0x1F AND DUP3 ADD SWAP2 JUMPDEST POP POP POP POP POP DUP2 JUMP JUMPDEST PUSH1 0x2 PUSH1 0x0 SWAP1 SLOAD SWAP1 PUSH2 0x100 EXP SWAP1 DIV PUSH20 0xFFFFFFFFFFFFFFFFFFFFFFFFFFFFFFFFFFFFFFFF AND DUP2 JUMP JUMPDEST PUSH1 0x1 DUP1 SLOAD PUSH2 0x5EE SWAP1 PUSH2 0xFDE JUMP JUMPDEST DUP1 PUSH1 0x1F ADD PUSH1 0x20 DUP1 SWAP2 DIV MUL PUSH1 0x20 ADD PUSH1 0x40 MLOAD SWAP1 DUP2 ADD PUSH1 0x40 MSTORE DUP1 SWAP3 SWAP2 SWAP1 DUP2 DUP2 MSTORE PUSH1 0x20 ADD DUP3 DUP1 SLOAD PUSH2 0x61A SWAP1 PUSH2 0xFDE JUMP JUMPDEST DUP1 ISZERO PUSH2 0x667 JUMPI DUP1 PUSH1 0x1F LT PUSH2 0x63C JUMPI PUSH2 0x100 DUP1 DUP4 SLOAD DIV MUL DUP4 MSTORE SWAP2 PUSH1 0x20 ADD SWAP2 PUSH2 0x667 JUMP JUMPDEST DUP3 ADD SWAP2 SWAP1 PUSH1 0x0 MSTORE PUSH1 0x20 PUSH1 0x0 KECCAK256 SWAP1 JUMPDEST DUP2 SLOAD DUP2 MSTORE SWAP1 PUSH1 0x1 ADD SWAP1 PUSH1 0x20 ADD DUP1 DUP4 GT PUSH2 0x64A JUMPI DUP3 SWAP1 SUB PUSH1 0x1F AND DUP3 ADD SWAP2 JUMPDEST POP POP POP POP POP DUP2 JUMP JUMPDEST PUSH1 0x4 DUP2 DUP2 SLOAD DUP2 LT PUSH2 0x67F JUMPI PUSH1 0x0 DUP1 REVERT JUMPDEST SWAP1 PUSH1 0x0 MSTORE PUSH1 0x20 PUSH1 0x0 KECCAK256 SWAP1 PUSH1 0x5 MUL ADD PUSH1 0x0 SWAP2 POP SWAP1 POP DUP1 PUSH1 0x0 ADD DUP1 SLOAD PUSH2 0x6A2 SWAP1 PUSH2 0xFDE JUMP JUMPDEST DUP1 PUSH1 0x1F ADD PUSH1 0x20 DUP1 SWAP2 DIV MUL PUSH1 0x20 ADD PUSH1 0x40 MLOAD SWAP1 DUP2 ADD PUSH1 0x40 MSTORE DUP1 SWAP3 SWAP2 SWAP1 DUP2 DUP2 MSTORE PUSH1 0x20 ADD DUP3 DUP1 SLOAD PUSH2 0x6CE SWAP1 PUSH2 0xFDE JUMP JUMPDEST DUP1 ISZERO PUSH2 0x71B JUMPI DUP1 PUSH1 0x1F LT PUSH2 0x6F0 JUMPI PUSH2 0x100 DUP1 DUP4 SLOAD DIV MUL DUP4 MSTORE SWAP2 PUSH1 0x20 ADD SWAP2 PUSH2 0x71B JUMP JUMPDEST DUP3 ADD SWAP2 SWAP1 PUSH1 0x0 MSTORE PUSH1 0x20 PUSH1 0x0 KECCAK256 SWAP1 JUMPDEST DUP2 SLOAD DUP2 MSTORE SWAP1 PUSH1 0x1 ADD SWAP1 PUSH1 0x20 ADD DUP1 DUP4 GT PUSH2 0x6FE JUMPI DUP3 SWAP1 SUB PUSH1 0x1F AND DUP3 ADD SWAP2 JUMPDEST POP POP POP POP POP SWAP1 DUP1 PUSH1 0x1 ADD SLOAD SWAP1 DUP1 PUSH1 0x2 ADD PUSH1 0x0 SWAP1 SLOAD SWAP1 PUSH2 0x100 EXP SWAP1 DIV PUSH20 0xFFFFFFFFFFFFFFFFFFFFFFFFFFFFFFFFFFFFFFFF AND SWAP1 DUP1 PUSH1 0x2 ADD PUSH1 0x14 SWAP1 SLOAD SWAP1 PUSH2 0x100 EXP SWAP1 DIV PUSH1 0xFF AND SWAP1 DUP1 PUSH1 0x4 ADD SLOAD SWAP1 POP DUP6 JUMP JUMPDEST PUSH1 0x6 SLOAD DUP2 JUMP JUMPDEST PUSH1 0x2 PUSH1 0x0 SWAP1 SLOAD SWAP1 PUSH2 0x100 EXP SWAP1 DIV PUSH20 0xFFFFFFFFFFFFFFFFFFFFFFFFFFFFFFFFFFFFFFFF AND PUSH20 0xFFFFFFFFFFFFFFFFFFFFFFFFFFFFFFFFFFFFFFFF AND CALLER PUSH20 0xFFFFFFFFFFFFFFFFFFFFFFFFFFFFFFFFFFFFFFFF AND EQ PUSH2 0x7CA JUMPI PUSH1 0x0 DUP1 REVERT JUMPDEST PUSH1 0x0 PUSH1 0x4 PUSH1 0x1 DUP2 PUSH1 0x1 DUP2 SLOAD ADD DUP1 DUP3 SSTORE DUP1 SWAP2 POP POP SUB SWAP1 PUSH1 0x0 MSTORE PUSH1 0x20 PUSH1 0x0 KECCAK256 SWAP1 PUSH1 0x5 MUL ADD SWAP1 POP DUP4 DUP2 PUSH1 0x0 ADD SWAP1 DUP2 PUSH2 0x7FF SWAP2 SWAP1 PUSH2 0x11BB JUMP JUMPDEST POP DUP3 DUP2 PUSH1 0x1 ADD DUP2 SWAP1 SSTORE POP DUP2 DUP2 PUSH1 0x2 ADD PUSH1 0x0 PUSH2 0x100 EXP DUP2 SLOAD DUP2 PUSH20 0xFFFFFFFFFFFFFFFFFFFFFFFFFFFFFFFFFFFFFFFF MUL NOT AND SWAP1 DUP4 PUSH20 0xFFFFFFFFFFFFFFFFFFFFFFFFFFFFFFFFFFFFFFFF AND MUL OR SWAP1 SSTORE POP PUSH1 0x0 DUP2 PUSH1 0x2 ADD PUSH1 0x14 PUSH2 0x100 EXP DUP2 SLOAD DUP2 PUSH1 0xFF MUL NOT AND SWAP1 DUP4 ISZERO ISZERO MUL OR SWAP1 SSTORE POP PUSH1 0x0 DUP2 PUSH1 0x4 ADD DUP2 SWAP1 SSTORE POP POP POP POP POP JUMP JUMPDEST PUSH1 0x3 SLOAD DUP2 JUMP JUMPDEST PUSH1 0x3 SLOAD CALLVALUE GT PUSH2 0x88D JUMPI PUSH1 0x0 DUP1 REVERT JUMPDEST PUSH1 0x1 PUSH1 0x5 PUSH1 0x0 CALLER PUSH20 0xFFFFFFFFFFFFFFFFFFFFFFFFFFFFFFFFFFFFFFFF AND PUSH20 0xFFFFFFFFFFFFFFFFFFFFFFFFFFFFFFFFFFFFFFFF AND DUP2 MSTORE PUSH1 0x20 ADD SWAP1 DUP2 MSTORE PUSH1 0x20 ADD PUSH1 0x0 KECCAK256 PUSH1 0x0 PUSH2 0x100 EXP DUP2 SLOAD DUP2 PUSH1 0xFF MUL NOT AND SWAP1 DUP4 ISZERO ISZERO MUL OR SWAP1 SSTORE POP PUSH1 0x6 PUSH1 0x0 DUP2 SLOAD DUP1 SWAP3 SWAP2 SWAP1 PUSH2 0x8F8 SWAP1 PUSH2 0x128D JUMP JUMPDEST SWAP2 SWAP1 POP SSTORE POP JUMP JUMPDEST PUSH1 0x0 PUSH1 0x4 DUP1 SLOAD SWAP1 POP SWAP1 POP SWAP1 JUMP JUMPDEST PUSH1 0x0 PUSH1 0x4 DUP3 DUP2 SLOAD DUP2 LT PUSH2 0x922 JUMPI PUSH2 0x921 PUSH2 0xEF1 JUMP JUMPDEST JUMPDEST SWAP1 PUSH1 0x0 MSTORE PUSH1 0x20 PUSH1 0x0 KECCAK256 SWAP1 PUSH1 0x5 MUL ADD SWAP1 POP PUSH1 0x5 PUSH1 0x0 CALLER PUSH20 0xFFFFFFFFFFFFFFFFFFFFFFFFFFFFFFFFFFFFFFFF AND PUSH20 0xFFFFFFFFFFFFFFFFFFFFFFFFFFFFFFFFFFFFFFFF AND DUP2 MSTORE PUSH1 0x20 ADD SWAP1 DUP2 MSTORE PUSH1 0x20 ADD PUSH1 0x0 KECCAK256 PUSH1 0x0 SWAP1 SLOAD SWAP1 PUSH2 0x100 EXP SWAP1 DIV PUSH1 0xFF AND PUSH2 0x988 JUMPI PUSH1 0x0 DUP1 REVERT JUMPDEST DUP1 PUSH1 0x3 ADD PUSH1 0x0 CALLER PUSH20 0xFFFFFFFFFFFFFFFFFFFFFFFFFFFFFFFFFFFFFFFF AND PUSH20 0xFFFFFFFFFFFFFFFFFFFFFFFFFFFFFFFFFFFFFFFF AND DUP2 MSTORE PUSH1 0x20 ADD SWAP1 DUP2 MSTORE PUSH1 0x20 ADD PUSH1 0x0 KECCAK256 PUSH1 0x0 SWAP1 SLOAD SWAP1 PUSH2 0x100 EXP SWAP1 DIV PUSH1 0xFF AND ISZERO PUSH2 0x9E1 JUMPI PUSH1 0x0 DUP1 REVERT JUMPDEST PUSH1 0x1 DUP2 PUSH1 0x3 ADD PUSH1 0x0 CALLER PUSH20 0xFFFFFFFFFFFFFFFFFFFFFFFFFFFFFFFFFFFFFFFF AND PUSH20 0xFFFFFFFFFFFFFFFFFFFFFFFFFFFFFFFFFFFFFFFF AND DUP2 MSTORE PUSH1 0x20 ADD SWAP1 DUP2 MSTORE PUSH1 0x20 ADD PUSH1 0x0 KECCAK256 PUSH1 0x0 PUSH2 0x100 EXP DUP2 SLOAD DUP2 PUSH1 0xFF MUL NOT AND SWAP1 DUP4 ISZERO ISZERO MUL OR SWAP1 SSTORE POP DUP1 PUSH1 0x4 ADD PUSH1 0x0 DUP2 SLOAD DUP1 SWAP3 SWAP2 SWAP1 PUSH2 0xA50 SWAP1 PUSH2 0x128D JUMP JUMPDEST SWAP2 SWAP1 POP SSTORE POP POP POP JUMP JUMPDEST PUSH1 0x0 PUSH1 0x40 MLOAD SWAP1 POP SWAP1 JUMP JUMPDEST PUSH1 0x0 DUP1 REVERT JUMPDEST PUSH1 0x0 DUP1 REVERT JUMPDEST PUSH1 0x0 DUP2 SWAP1 POP SWAP2 SWAP1 POP JUMP JUMPDEST PUSH2 0xA80 DUP2 PUSH2 0xA6D JUMP JUMPDEST DUP2 EQ PUSH2 0xA8B JUMPI PUSH1 0x0 DUP1 REVERT JUMPDEST POP JUMP JUMPDEST PUSH1 0x0 DUP2 CALLDATALOAD SWAP1 POP PUSH2 0xA9D DUP2 PUSH2 0xA77 JUMP JUMPDEST SWAP3 SWAP2 POP POP JUMP JUMPDEST PUSH1 0x0 PUSH1 0x20 DUP3 DUP5 SUB SLT ISZERO PUSH2 0xAB9 JUMPI PUSH2 0xAB8 PUSH2 0xA63 JUMP JUMPDEST JUMPDEST PUSH1 0x0 PUSH2 0xAC7 DUP5 DUP3 DUP6 ADD PUSH2 0xA8E JUMP JUMPDEST SWAP2 POP POP SWAP3 SWAP2 POP POP JUMP JUMPDEST PUSH1 0x0 PUSH20 0xFFFFFFFFFFFFFFFFFFFFFFFFFFFFFFFFFFFFFFFF DUP3 AND SWAP1 POP SWAP2 SWAP1 POP JUMP JUMPDEST PUSH1 0x0 PUSH2 0xAFB DUP3 PUSH2 0xAD0 JUMP JUMPDEST SWAP1 POP SWAP2 SWAP1 POP JUMP JUMPDEST PUSH2 0xB0B DUP2 PUSH2 0xAF0 JUMP JUMPDEST DUP2 EQ PUSH2 0xB16 JUMPI PUSH1 0x0 DUP1 REVERT JUMPDEST POP JUMP JUMPDEST PUSH1 0x0 DUP2 CALLDATALOAD SWAP1 POP PUSH2 0xB28 DUP2 PUSH2 0xB02 JUMP JUMPDEST SWAP3 SWAP2 POP POP JUMP JUMPDEST PUSH1 0x0 PUSH1 0x20 DUP3 DUP5 SUB SLT ISZERO PUSH2 0xB44 JUMPI PUSH2 0xB43 PUSH2 0xA63 JUMP JUMPDEST JUMPDEST PUSH1 0x0 PUSH2 0xB52 DUP5 DUP3 DUP6 ADD PUSH2 0xB19 JUMP JUMPDEST SWAP2 POP POP SWAP3 SWAP2 POP POP JUMP JUMPDEST PUSH1 0x0 DUP2 ISZERO ISZERO SWAP1 POP SWAP2 SWAP1 POP JUMP JUMPDEST PUSH2 0xB70 DUP2 PUSH2 0xB5B JUMP JUMPDEST DUP3 MSTORE POP POP JUMP JUMPDEST PUSH1 0x0 PUSH1 0x20 DUP3 ADD SWAP1 POP PUSH2 0xB8B PUSH1 0x0 DUP4 ADD DUP5 PUSH2 0xB67 JUMP JUMPDEST SWAP3 SWAP2 POP POP JUMP JUMPDEST PUSH2 0xB9A DUP2 PUSH2 0xA6D JUMP JUMPDEST DUP3 MSTORE POP POP JUMP JUMPDEST PUSH2 0xBA9 DUP2 PUSH2 0xAF0 JUMP JUMPDEST DUP3 MSTORE POP POP JUMP JUMPDEST PUSH1 0x0 PUSH1 0xA0 DUP3 ADD SWAP1 POP PUSH2 0xBC4 PUSH1 0x0 DUP4 ADD DUP9 PUSH2 0xB91 JUMP JUMPDEST PUSH2 0xBD1 PUSH1 0x20 DUP4 ADD DUP8 PUSH2 0xB91 JUMP JUMPDEST PUSH2 0xBDE PUSH1 0x40 DUP4 ADD DUP7 PUSH2 0xB91 JUMP JUMPDEST PUSH2 0xBEB PUSH1 0x60 DUP4 ADD DUP6 PUSH2 0xB91 JUMP JUMPDEST PUSH2 0xBF8 PUSH1 0x80 DUP4 ADD DUP5 PUSH2 0xBA0 JUMP JUMPDEST SWAP7 SWAP6 POP POP POP POP POP POP JUMP JUMPDEST PUSH1 0x0 DUP2 MLOAD SWAP1 POP SWAP2 SWAP1 POP JUMP JUMPDEST PUSH1 0x0 DUP3 DUP3 MSTORE PUSH1 0x20 DUP3 ADD SWAP1 POP SWAP3 SWAP2 POP POP JUMP JUMPDEST PUSH1 0x0 JUMPDEST DUP4 DUP2 LT ISZERO PUSH2 0xC3C JUMPI DUP1 DUP3 ADD MLOAD DUP2 DUP5 ADD MSTORE PUSH1 0x20 DUP2 ADD SWAP1 POP PUSH2 0xC21 JUMP JUMPDEST DUP4 DUP2 GT ISZERO PUSH2 0xC4B JUMPI PUSH1 0x0 DUP5 DUP5 ADD MSTORE JUMPDEST POP POP POP POP JUMP JUMPDEST PUSH1 0x0 PUSH1 0x1F NOT PUSH1 0x1F DUP4 ADD AND SWAP1 POP SWAP2 SWAP1 POP JUMP JUMPDEST PUSH1 0x0 PUSH2 0xC6D DUP3 PUSH2 0xC02 JUMP JUMPDEST PUSH2 0xC77 DUP2 DUP6 PUSH2 0xC0D JUMP JUMPDEST SWAP4 POP PUSH2 0xC87 DUP2 DUP6 PUSH1 0x20 DUP7 ADD PUSH2 0xC1E JUMP JUMPDEST PUSH2 0xC90 DUP2 PUSH2 0xC51 JUMP JUMPDEST DUP5 ADD SWAP2 POP POP SWAP3 SWAP2 POP POP JUMP JUMPDEST PUSH1 0x0 PUSH1 0x20 DUP3 ADD SWAP1 POP DUP2 DUP2 SUB PUSH1 0x0 DUP4 ADD MSTORE PUSH2 0xCB5 DUP2 DUP5 PUSH2 0xC62 JUMP JUMPDEST SWAP1 POP SWAP3 SWAP2 POP POP JUMP JUMPDEST PUSH1 0x0 PUSH1 0x20 DUP3 ADD SWAP1 POP PUSH2 0xCD2 PUSH1 0x0 DUP4 ADD DUP5 PUSH2 0xBA0 JUMP JUMPDEST SWAP3 SWAP2 POP POP JUMP JUMPDEST PUSH1 0x0 PUSH1 0xA0 DUP3 ADD SWAP1 POP DUP2 DUP2 SUB PUSH1 0x0 DUP4 ADD MSTORE PUSH2 0xCF2 DUP2 DUP9 PUSH2 0xC62 JUMP JUMPDEST SWAP1 POP PUSH2 0xD01 PUSH1 0x20 DUP4 ADD DUP8 PUSH2 0xB91 JUMP JUMPDEST PUSH2 0xD0E PUSH1 0x40 DUP4 ADD DUP7 PUSH2 0xBA0 JUMP JUMPDEST PUSH2 0xD1B PUSH1 0x60 DUP4 ADD DUP6 PUSH2 0xB67 JUMP JUMPDEST PUSH2 0xD28 PUSH1 0x80 DUP4 ADD DUP5 PUSH2 0xB91 JUMP JUMPDEST SWAP7 SWAP6 POP POP POP POP POP POP JUMP JUMPDEST PUSH1 0x0 PUSH1 0x20 DUP3 ADD SWAP1 POP PUSH2 0xD47 PUSH1 0x0 DUP4 ADD DUP5 PUSH2 0xB91 JUMP JUMPDEST SWAP3 SWAP2 POP POP JUMP JUMPDEST PUSH1 0x0 DUP1 REVERT JUMPDEST PUSH1 0x0 DUP1 REVERT JUMPDEST PUSH32 0x4E487B7100000000000000000000000000000000000000000000000000000000 PUSH1 0x0 MSTORE PUSH1 0x41 PUSH1 0x4 MSTORE PUSH1 0x24 PUSH1 0x0 REVERT JUMPDEST PUSH2 0xD8F DUP3 PUSH2 0xC51 JUMP JUMPDEST DUP2 ADD DUP2 DUP2 LT PUSH8 0xFFFFFFFFFFFFFFFF DUP3 GT OR ISZERO PUSH2 0xDAE JUMPI PUSH2 0xDAD PUSH2 0xD57 JUMP JUMPDEST JUMPDEST DUP1 PUSH1 0x40 MSTORE POP POP POP JUMP JUMPDEST PUSH1 0x0 PUSH2 0xDC1 PUSH2 0xA59 JUMP JUMPDEST SWAP1 POP PUSH2 0xDCD DUP3 DUP3 PUSH2 0xD86 JUMP JUMPDEST SWAP2 SWAP1 POP JUMP JUMPDEST PUSH1 0x0 PUSH8 0xFFFFFFFFFFFFFFFF DUP3 GT ISZERO PUSH2 0xDED JUMPI PUSH2 0xDEC PUSH2 0xD57 JUMP JUMPDEST JUMPDEST PUSH2 0xDF6 DUP3 PUSH2 0xC51 JUMP JUMPDEST SWAP1 POP PUSH1 0x20 DUP2 ADD SWAP1 POP SWAP2 SWAP1 POP JUMP JUMPDEST DUP3 DUP2 DUP4 CALLDATACOPY PUSH1 0x0 DUP4 DUP4 ADD MSTORE POP POP POP JUMP JUMPDEST PUSH1 0x0 PUSH2 0xE25 PUSH2 0xE20 DUP5 PUSH2 0xDD2 JUMP JUMPDEST PUSH2 0xDB7 JUMP JUMPDEST SWAP1 POP DUP3 DUP2 MSTORE PUSH1 0x20 DUP2 ADD DUP5 DUP5 DUP5 ADD GT ISZERO PUSH2 0xE41 JUMPI PUSH2 0xE40 PUSH2 0xD52 JUMP JUMPDEST JUMPDEST PUSH2 0xE4C DUP5 DUP3 DUP6 PUSH2 0xE03 JUMP JUMPDEST POP SWAP4 SWAP3 POP POP POP JUMP JUMPDEST PUSH1 0x0 DUP3 PUSH1 0x1F DUP4 ADD SLT PUSH2 0xE69 JUMPI PUSH2 0xE68 PUSH2 0xD4D JUMP JUMPDEST JUMPDEST DUP2 CALLDATALOAD PUSH2 0xE79 DUP5 DUP3 PUSH1 0x20 DUP7 ADD PUSH2 0xE12 JUMP JUMPDEST SWAP2 POP POP SWAP3 SWAP2 POP POP JUMP JUMPDEST PUSH1 0x0 DUP1 PUSH1 0x0 PUSH1 0x60 DUP5 DUP7 SUB SLT ISZERO PUSH2 0xE9B JUMPI PUSH2 0xE9A PUSH2 0xA63 JUMP JUMPDEST JUMPDEST PUSH1 0x0 DUP5 ADD CALLDATALOAD PUSH8 0xFFFFFFFFFFFFFFFF DUP2 GT ISZERO PUSH2 0xEB9 JUMPI PUSH2 0xEB8 PUSH2 0xA68 JUMP JUMPDEST JUMPDEST PUSH2 0xEC5 DUP7 DUP3 DUP8 ADD PUSH2 0xE54 JUMP JUMPDEST SWAP4 POP POP PUSH1 0x20 PUSH2 0xED6 DUP7 DUP3 DUP8 ADD PUSH2 0xA8E JUMP JUMPDEST SWAP3 POP POP PUSH1 0x40 PUSH2 0xEE7 DUP7 DUP3 DUP8 ADD PUSH2 0xB19 JUMP JUMPDEST SWAP2 POP POP SWAP3 POP SWAP3 POP SWAP3 JUMP JUMPDEST PUSH32 0x4E487B7100000000000000000000000000000000000000000000000000000000 PUSH1 0x0 MSTORE PUSH1 0x32 PUSH1 0x4 MSTORE PUSH1 0x24 PUSH1 0x0 REVERT JUMPDEST PUSH32 0x4E487B7100000000000000000000000000000000000000000000000000000000 PUSH1 0x0 MSTORE PUSH1 0x12 PUSH1 0x4 MSTORE PUSH1 0x24 PUSH1 0x0 REVERT JUMPDEST PUSH32 0x4E487B7100000000000000000000000000000000000000000000000000000000 PUSH1 0x0 MSTORE PUSH1 0x11 PUSH1 0x4 MSTORE PUSH1 0x24 PUSH1 0x0 REVERT JUMPDEST PUSH1 0x0 PUSH2 0xF89 DUP3 PUSH2 0xA6D JUMP JUMPDEST SWAP2 POP PUSH2 0xF94 DUP4 PUSH2 0xA6D JUMP JUMPDEST SWAP3 POP DUP3 PUSH2 0xFA4 JUMPI PUSH2 0xFA3 PUSH2 0xF20 JUMP JUMPDEST JUMPDEST DUP3 DUP3 DIV SWAP1 POP SWAP3 SWAP2 POP POP JUMP JUMPDEST PUSH32 0x4E487B7100000000000000000000000000000000000000000000000000000000 PUSH1 0x0 MSTORE PUSH1 0x22 PUSH1 0x4 MSTORE PUSH1 0x24 PUSH1 0x0 REVERT JUMPDEST PUSH1 0x0 PUSH1 0x2 DUP3 DIV SWAP1 POP PUSH1 0x1 DUP3 AND DUP1 PUSH2 0xFF6 JUMPI PUSH1 0x7F DUP3 AND SWAP2 POP JUMPDEST PUSH1 0x20 DUP3 LT DUP2 SUB PUSH2 0x1009 JUMPI PUSH2 0x1008 PUSH2 0xFAF JUMP JUMPDEST JUMPDEST POP SWAP2 SWAP1 POP JUMP JUMPDEST PUSH1 0x0 DUP2 SWAP1 POP DUP2 PUSH1 0x0 MSTORE PUSH1 0x20 PUSH1 0x0 KECCAK256 SWAP1 POP SWAP2 SWAP1 POP JUMP JUMPDEST PUSH1 0x0 PUSH1 0x20 PUSH1 0x1F DUP4 ADD DIV SWAP1 POP SWAP2 SWAP1 POP JUMP JUMPDEST PUSH1 0x0 DUP3 DUP3 SHL SWAP1 POP SWAP3 SWAP2 POP POP JUMP JUMPDEST PUSH1 0x0 PUSH1 0x8 DUP4 MUL PUSH2 0x1071 PUSH32 0xFFFFFFFFFFFFFFFFFFFFFFFFFFFFFFFFFFFFFFFFFFFFFFFFFFFFFFFFFFFFFFFF DUP3 PUSH2 0x1034 JUMP JUMPDEST PUSH2 0x107B DUP7 DUP4 PUSH2 0x1034 JUMP JUMPDEST SWAP6 POP DUP1 NOT DUP5 AND SWAP4 POP DUP1 DUP7 AND DUP5 OR SWAP3 POP POP POP SWAP4 SWAP3 POP POP POP JUMP JUMPDEST PUSH1 0x0 DUP2 SWAP1 POP SWAP2 SWAP1 POP JUMP JUMPDEST PUSH1 0x0 PUSH2 0x10B8 PUSH2 0x10B3 PUSH2 0x10AE DUP5 PUSH2 0xA6D JUMP JUMPDEST PUSH2 0x1093 JUMP JUMPDEST PUSH2 0xA6D JUMP JUMPDEST SWAP1 POP SWAP2 SWAP1 POP JUMP JUMPDEST PUSH1 0x0 DUP2 SWAP1 POP SWAP2 SWAP1 POP JUMP JUMPDEST PUSH2 0x10D2 DUP4 PUSH2 0x109D JUMP JUMPDEST PUSH2 0x10E6 PUSH2 0x10DE DUP3 PUSH2 0x10BF JUMP JUMPDEST DUP5 DUP5 SLOAD PUSH2 0x1041 JUMP JUMPDEST DUP3 SSTORE POP POP POP POP JUMP JUMPDEST PUSH1 0x0 SWAP1 JUMP JUMPDEST PUSH2 0x10FB PUSH2 0x10EE JUMP JUMPDEST PUSH2 0x1106 DUP2 DUP5 DUP5 PUSH2 0x10C9 JUMP JUMPDEST POP POP POP JUMP JUMPDEST JUMPDEST DUP2 DUP2 LT ISZERO PUSH2 0x112A JUMPI PUSH2 0x111F PUSH1 0x0 DUP3 PUSH2 0x10F3 JUMP JUMPDEST PUSH1 0x1 DUP2 ADD SWAP1 POP PUSH2 0x110C JUMP JUMPDEST POP POP JUMP JUMPDEST PUSH1 0x1F DUP3 GT ISZERO PUSH2 0x116F JUMPI PUSH2 0x1140 DUP2 PUSH2 0x100F JUMP JUMPDEST PUSH2 0x1149 DUP5 PUSH2 0x1024 JUMP JUMPDEST DUP2 ADD PUSH1 0x20 DUP6 LT ISZERO PUSH2 0x1158 JUMPI DUP2 SWAP1 POP JUMPDEST PUSH2 0x116C PUSH2 0x1164 DUP6 PUSH2 0x1024 JUMP JUMPDEST DUP4 ADD DUP3 PUSH2 0x110B JUMP JUMPDEST POP POP JUMPDEST POP POP POP JUMP JUMPDEST PUSH1 0x0 DUP3 DUP3 SHR SWAP1 POP SWAP3 SWAP2 POP POP JUMP JUMPDEST PUSH1 0x0 PUSH2 0x1192 PUSH1 0x0 NOT DUP5 PUSH1 0x8 MUL PUSH2 0x1174 JUMP JUMPDEST NOT DUP1 DUP4 AND SWAP2 POP POP SWAP3 SWAP2 POP POP JUMP JUMPDEST PUSH1 0x0 PUSH2 0x11AB DUP4 DUP4 PUSH2 0x1181 JUMP JUMPDEST SWAP2 POP DUP3 PUSH1 0x2 MUL DUP3 OR SWAP1 POP SWAP3 SWAP2 POP POP JUMP JUMPDEST PUSH2 0x11C4 DUP3 PUSH2 0xC02 JUMP JUMPDEST PUSH8 0xFFFFFFFFFFFFFFFF DUP2 GT ISZERO PUSH2 0x11DD JUMPI PUSH2 0x11DC PUSH2 0xD57 JUMP JUMPDEST JUMPDEST PUSH2 0x11E7 DUP3 SLOAD PUSH2 0xFDE JUMP JUMPDEST PUSH2 0x11F2 DUP3 DUP3 DUP6 PUSH2 0x112E JUMP JUMPDEST PUSH1 0x0 PUSH1 0x20 SWAP1 POP PUSH1 0x1F DUP4 GT PUSH1 0x1 DUP2 EQ PUSH2 0x1225 JUMPI PUSH1 0x0 DUP5 ISZERO PUSH2 0x1213 JUMPI DUP3 DUP8 ADD MLOAD SWAP1 POP JUMPDEST PUSH2 0x121D DUP6 DUP3 PUSH2 0x119F JUMP JUMPDEST DUP7 SSTORE POP PUSH2 0x1285 JUMP JUMPDEST PUSH1 0x1F NOT DUP5 AND PUSH2 0x1233 DUP7 PUSH2 0x100F JUMP JUMPDEST PUSH1 0x0 JUMPDEST DUP3 DUP2 LT ISZERO PUSH2 0x125B JUMPI DUP5 DUP10 ADD MLOAD DUP3 SSTORE PUSH1 0x1 DUP3 ADD SWAP2 POP PUSH1 0x20 DUP6 ADD SWAP5 POP PUSH1 0x20 DUP2 ADD SWAP1 POP PUSH2 0x1236 JUMP JUMPDEST DUP7 DUP4 LT ISZERO PUSH2 0x1278 JUMPI DUP5 DUP10 ADD MLOAD PUSH2 0x1274 PUSH1 0x1F DUP10 AND DUP3 PUSH2 0x1181 JUMP JUMPDEST DUP4 SSTORE POP JUMPDEST PUSH1 0x1 PUSH1 0x2 DUP9 MUL ADD DUP9 SSTORE POP POP POP JUMPDEST POP POP POP POP POP POP JUMP JUMPDEST PUSH1 0x0 PUSH2 0x1298 DUP3 PUSH2 0xA6D JUMP JUMPDEST SWAP2 POP PUSH32 0xFFFFFFFFFFFFFFFFFFFFFFFFFFFFFFFFFFFFFFFFFFFFFFFFFFFFFFFFFFFFFFFF DUP3 SUB PUSH2 0x12CA JUMPI PUSH2 0x12C9 PUSH2 0xF4F JUMP JUMPDEST JUMPDEST PUSH1 0x1 DUP3 ADD SWAP1 POP SWAP2 SWAP1 POP JUMP INVALID LOG2 PUSH5 0x6970667358 0x22 SLT KECCAK256 CREATE2 0xE3 MULMOD 0xB5 SSTORE 0xD8 EQ MLOAD 0xAE ADD PUSH23 0x85CB92D6870FF231341EE46310B1963D283EA00BA66473 PUSH16 0x6C634300080F0033A264697066735822 SLT KECCAK256 SWAP10 0xA6 DUP15 0xD5 LOG3 0x23 SWAP1 ISZERO SELFDESTRUCT BALANCE 0xAE PUSH21 0x89AA81BEBE3B74BC4CE21F8E8245514ACF735EFB64 PUSH20 0x6F6C634300080F00330000000000000000000000 "},"gasEstimates":{"creation":{"codeDepositCost":"1706600","executionCost":"1792","totalCost":"1708392"},"external":{"createCampaign(uint256,string,string)":"infinite","deployedCampaigns(uint256)":"4934","getDeployedCampaigns()":"infinite"}},"methodIdentifiers":{"createCampaign(uint256,string,string)":"fad4dee3","deployedCampaigns(uint256)":"339d50a5","getDeployedCampaigns()":"4acb9d4f"}},"storageLayout":{"storage":[{"astId":4,"contract":"Campaign.sol:CampaignFactory","label":"deployedCampaigns","offset":0,"slot":"0","type":"t_array(t_address_payable)dyn_storage"}],"types":{"t_address_payable":{"encoding":"inplace","label":"address payable","numberOfBytes":"20"},"t_array(t_address_payable)dyn_storage":{"base":"t_address_payable","encoding":"dynamic_array","label":"address payable[]","numberOfBytes":"32"}}},"userdoc":{"kind":"user","methods":{},"version":1}}